{"abi":[{"type":"constructor","inputs":[{"name":"_owners","type":"address[]","internalType":"address[]"},{"name":"_threshold","type":"uint256","internalType":"uint256"}],"stateMutability":"nonpayable"},{"type":"function","name":"addOwner","inputs":[{"name":"newOwner","type":"address","internalType":"address"}],"outputs":[],"stateMutability":"nonpayable"},{"type":"function","name":"approveTransaction","inputs":[{"name":"transactionId","type":"uint256","internalType":"uint256"}],"outputs":[],"stateMutability":"nonpayable"},{"type":"function","name":"cancelTransaction","inputs":[{"name":"transactionId","type":"uint256","internalType":"uint256"}],"outputs":[],"stateMutability":"nonpayable"},{"type":"function","name":"isOwner","inputs":[{"name":"","type":"address","internalType":"address"}],"outputs":[{"name":"","type":"bool","internalType":"bool"}],"stateMutability":"view"},{"type":"function","name":"owners","inputs":[{"name":"","type":"uint256","internalType":"uint256"}],"outputs":[{"name":"","type":"address","internalType":"address"}],"stateMutability":"view"},{"type":"function","name":"removeOwner","inputs":[{"name":"ownerToRemove","type":"address","internalType":"address"}],"outputs":[],"stateMutability":"nonpayable"},{"type":"function","name":"submitTransaction","inputs":[{"name":"to","type":"address","internalType":"address"},{"name":"value","type":"uint256","internalType":"uint256"},{"name":"data","type":"bytes","internalType":"bytes"}],"outputs":[],"stateMutability":"nonpayable"},{"type":"function","name":"threshold","inputs":[],"outputs":[{"name":"","type":"uint256","internalType":"uint256"}],"stateMutability":"view"},{"type":"function","name":"transactions","inputs":[{"name":"","type":"uint256","internalType":"uint256"}],"outputs":[{"name":"to","type":"address","internalType":"address"},{"name":"value","type":"uint256","internalType":"uint256"},{"name":"data","type":"bytes","internalType":"bytes"},{"name":"executed","type":"bool","internalType":"bool"},{"name":"approvalCount","type":"uint256","internalType":"uint256"}],"stateMutability":"view"},{"type":"event","name":"OwnershipAdded","inputs":[{"name":"newOwner","type":"address","indexed":false,"internalType":"address"}],"anonymous":false},{"type":"event","name":"OwnershipRemoved","inputs":[{"name":"removedOwner","type":"address","indexed":false,"internalType":"address"}],"anonymous":false},{"type":"event","name":"TransactionApproved","inputs":[{"name":"transactionId","type":"uint256","indexed":false,"internalType":"uint256"},{"name":"approver","type":"address","indexed":false,"internalType":"address"}],"anonymous":false},{"type":"event","name":"TransactionCancelled","inputs":[{"name":"transactionId","type":"uint256","indexed":false,"internalType":"uint256"}],"anonymous":false},{"type":"event","name":"TransactionExecuted","inputs":[{"name":"transactionId","type":"uint256","indexed":false,"internalType":"uint256"},{"name":"executor","type":"address","indexed":false,"internalType":"address"}],"anonymous":false},{"type":"event","name":"TransactionSubmitted","inputs":[{"name":"transactionId","type":"uint256","indexed":false,"internalType":"uint256"},{"name":"to","type":"address","indexed":false,"internalType":"address"},{"name":"value","type":"uint256","indexed":false,"internalType":"uint256"},{"name":"data","type":"bytes","indexed":false,"internalType":"bytes"}],"anonymous":false}],"bytecode":{"object":"0x60806040523480156200001157600080fd5b50604051620013d4380380620013d48339810160408190526200003491620001ec565b60008251118015620000465750600081115b801562000054575081518111155b6200009b5760405162461bcd60e51b8152602060048201526012602482015271496e76616c696420706172616d657465727360701b60448201526064015b60405180910390fd5b60005b8251811015620001ae576000838281518110620000bf57620000bf620002c6565b6020026020010151905060006001600160a01b0316816001600160a01b0316141580156200010657506001600160a01b03811660009081526001602052604090205460ff16155b620001445760405162461bcd60e51b815260206004820152600d60248201526c24b73b30b634b21037bbb732b960991b604482015260640162000092565b6001600160a01b031660008181526001602081905260408220805460ff191682179055815480820183559180527f290decd9548b62a8d60345a988386fc84ba6bc95484008f6362f93160ef3e56390910180546001600160a01b031916909217909155016200009e565b5060025550620002dc565b634e487b7160e01b600052604160045260246000fd5b80516001600160a01b0381168114620001e757600080fd5b919050565b600080604083850312156200020057600080fd5b82516001600160401b03808211156200021857600080fd5b818501915085601f8301126200022d57600080fd5b8151602082821115620002445762000244620001b9565b8160051b604051601f19603f830116810181811086821117156200026c576200026c620001b9565b6040529283528183019350848101820192898411156200028b57600080fd5b948201945b83861015620002b457620002a486620001cf565b8552948201949382019362000290565b97909101519698969750505050505050565b634e487b7160e01b600052603260045260246000fd5b6110e880620002ec6000396000f3fe608060405234801561001057600080fd5b50600436106100935760003560e01c80633380c0d8116100665780633380c0d81461012357806342cde4e8146101365780637065cb481461014d5780639ace38c214610160578063c64274741461018457600080fd5b8063025e7c2714610098578063173825d9146100c8578063242232d1146100dd5780632f54bf6e146100f0575b600080fd5b6100ab6100a6366004610bf9565b610197565b6040516001600160a01b0390911681526020015b60405180910390f35b6100db6100d6366004610c2e565b6101c1565b005b6100db6100eb366004610bf9565b6103d8565b6101136100fe366004610c2e565b60016020526000908152604090205460ff1681565b60405190151581526020016100bf565b6100db610131366004610bf9565b6105f7565b61013f60025481565b6040519081526020016100bf565b6100db61015b366004610c2e565b610701565b61017361016e366004610bf9565b610833565b6040516100bf959493929190610c96565b6100db610192366004610ce7565b61090c565b600081815481106101a757600080fd5b6000918252602090912001546001600160a01b0316905081565b3360009081526001602052604090205460ff166101f95760405162461bcd60e51b81526004016101f090610db2565b60405180910390fd5b6001600160a01b03811660009081526001602052604090205460ff166102315760405162461bcd60e51b81526004016101f090610db2565b6000546001106102835760405162461bcd60e51b815260206004820152601c60248201527f43616e6e6f742072656d6f766520746865206c617374206f776e65720000000060448201526064016101f0565b6001600160a01b0381166000908152600160205260408120805460ff191690555b6000548110156103d457816001600160a01b0316600082815481106102cb576102cb610dd8565b6000918252602090912001546001600160a01b0316036103cc57600080546102f590600190610e04565b8154811061030557610305610dd8565b600091825260208220015481546001600160a01b0390911691908390811061032f5761032f610dd8565b6000918252602082200180546001600160a01b0319166001600160a01b03939093169290921790915580548061036757610367610e1d565b6000828152602090819020600019908301810180546001600160a01b03191690559091019091556040516001600160a01b03841681527f86d076ecf250a6d90a67a7c75317f44709d5001395ecf1df6d9dad5278f1e681910160405180910390a15050565b6001016102a4565b5050565b3360009081526001602052604090205460ff166104075760405162461bcd60e51b81526004016101f090610db2565b6003548190811061042a5760405162461bcd60e51b81526004016101f090610e33565b816003818154811061043e5761043e610dd8565b600091825260209091206003600690920201015460ff16156104725760405162461bcd60e51b81526004016101f090610e6a565b826003818154811061048657610486610dd8565b600091825260208083203384526004600690930201919091019052604090205460ff16156105095760405162461bcd60e51b815260206004820152602a60248201527f5472616e73616374696f6e20616c726561647920617070726f766564206279206044820152693a3434b99037bbb732b960b11b60648201526084016101f0565b60016003858154811061051e5761051e610dd8565b60009182526020808320338452600692909202909101600401905260409020805460ff1916911515919091179055600380548590811061056057610560610dd8565b60009182526020822060056006909202010180549161057e83610ea1565b9091555050604080518581523360208201527f924813d717e221b5f46dcd8a56da1679e4612584ab3237d55e5faabf6f6a3079910160405180910390a1600254600385815481106105d1576105d1610dd8565b906000526020600020906006020160050154106105f1576105f1846109f7565b50505050565b3360009081526001602052604090205460ff166106265760405162461bcd60e51b81526004016101f090610db2565b600354819081106106495760405162461bcd60e51b81526004016101f090610e33565b816003818154811061065d5761065d610dd8565b600091825260209091206003600690920201015460ff16156106915760405162461bcd60e51b81526004016101f090610e6a565b6001600384815481106106a6576106a6610dd8565b600091825260209182902060069190910201600301805460ff1916921515929092179091556040518481527f956fb32199d8b882b2039a14e1be35ab14f7a80b9089fc223f14b43937173e60910160405180910390a1505050565b3360009081526001602052604090205460ff166107305760405162461bcd60e51b81526004016101f090610db2565b6001600160a01b0381161580159061076157506001600160a01b03811660009081526001602052604090205460ff16155b61079d5760405162461bcd60e51b815260206004820152600d60248201526c24b73b30b634b21037bbb732b960991b60448201526064016101f0565b6001600160a01b0381166000818152600160208181526040808420805460ff191684179055835492830184559280527f290decd9548b62a8d60345a988386fc84ba6bc95484008f6362f93160ef3e56390910180546001600160a01b0319168417905590519182527fb4cd6c6140e1db788f68710738b06ef4d0df6a884a06a088433a4c2f5e036e7c910160405180910390a150565b6003818154811061084357600080fd5b60009182526020909120600690910201805460018201546002830180546001600160a01b03909316945090929161087990610eba565b80601f01602080910402602001604051908101604052809291908181526020018280546108a590610eba565b80156108f25780601f106108c7576101008083540402835291602001916108f2565b820191906000526020600020905b8154815290600101906020018083116108d557829003601f168201915b505050506003830154600590930154919260ff1691905085565b3360009081526001602052604090205460ff1661093b5760405162461bcd60e51b81526004016101f090610db2565b600380546001810180835560008381529192908390811061095e5761095e610dd8565b6000918252602090912060069091020180546001600160a01b0319166001600160a01b0387161781556001810185905590506002810161099e8482610f45565b5060038101805460ff19169055600060058201556040517f3f6db45da5513bd4fe9f8a31e60ea668bdd4bca57e30a85a9a26f90c9fbcb56c906109e8908490889088908890611005565b60405180910390a15050505050565b60035481908110610a1a5760405162461bcd60e51b81526004016101f090610e33565b8160038181548110610a2e57610a2e610dd8565b600091825260209091206003600690920201015460ff1615610a625760405162461bcd60e51b81526004016101f090610e6a565b600160038481548110610a7757610a77610dd8565b906000526020600020906006020160030160006101000a81548160ff021916908315150217905550600060038481548110610ab457610ab4610dd8565b6000918252602090912060069091020154600380546001600160a01b039092169186908110610ae557610ae5610dd8565b90600052602060002090600602016001015460038681548110610b0a57610b0a610dd8565b9060005260206000209060060201600201604051610b28919061103c565b60006040518083038185875af1925050503d8060008114610b65576040519150601f19603f3d011682016040523d82523d6000602084013e610b6a565b606091505b5050905080610bbb5760405162461bcd60e51b815260206004820152601c60248201527f5472616e73616374696f6e20657865637574696f6e206661696c65640000000060448201526064016101f0565b604080518581523360208201527fefc13bdcf58f184ea7cae26b499fb33b539e01d0197cea456f3ada289b8cf19b910160405180910390a150505050565b600060208284031215610c0b57600080fd5b5035919050565b80356001600160a01b0381168114610c2957600080fd5b919050565b600060208284031215610c4057600080fd5b610c4982610c12565b9392505050565b6000815180845260005b81811015610c7657602081850181015186830182015201610c5a565b506000602082860101526020601f19601f83011685010191505092915050565b60018060a01b038616815284602082015260a060408201526000610cbd60a0830186610c50565b931515606083015250608001529392505050565b634e487b7160e01b600052604160045260246000fd5b600080600060608486031215610cfc57600080fd5b610d0584610c12565b925060208401359150604084013567ffffffffffffffff80821115610d2957600080fd5b818601915086601f830112610d3d57600080fd5b813581811115610d4f57610d4f610cd1565b604051601f8201601f19908116603f01168101908382118183101715610d7757610d77610cd1565b81604052828152896020848701011115610d9057600080fd5b8260208601602083013760006020848301015280955050505050509250925092565b6020808252600c908201526b2737ba1030b71037bbb732b960a11b604082015260600190565b634e487b7160e01b600052603260045260246000fd5b634e487b7160e01b600052601160045260246000fd5b81810381811115610e1757610e17610dee565b92915050565b634e487b7160e01b600052603160045260246000fd5b6020808252601a908201527f5472616e73616374696f6e20646f6573206e6f74206578697374000000000000604082015260600190565b6020808252601c908201527f5472616e73616374696f6e20616c726561647920657865637574656400000000604082015260600190565b600060018201610eb357610eb3610dee565b5060010190565b600181811c90821680610ece57607f821691505b602082108103610eee57634e487b7160e01b600052602260045260246000fd5b50919050565b601f821115610f40576000816000526020600020601f850160051c81016020861015610f1d5750805b601f850160051c820191505b81811015610f3c57828155600101610f29565b5050505b505050565b815167ffffffffffffffff811115610f5f57610f5f610cd1565b610f7381610f6d8454610eba565b84610ef4565b602080601f831160018114610fa85760008415610f905750858301515b600019600386901b1c1916600185901b178555610f3c565b600085815260208120601f198616915b82811015610fd757888601518255948401946001909101908401610fb8565b5085821015610ff55787850151600019600388901b60f8161c191681555b5050505050600190811b01905550565b84815260018060a01b03841660208201528260408201526080606082015260006110326080830184610c50565b9695505050505050565b600080835461104a81610eba565b600182811680156110625760018114611077576110a6565b60ff19841687528215158302870194506110a6565b8760005260208060002060005b8581101561109d5781548a820152908401908201611084565b50505082870194505b5092969550505050505056fea2646970667358221220c534688ef49ac1b51856349ce4cd78742a68f65d79e4bde6f5d45b1fe86f0c5264736f6c63430008170033","linkReferences":{}},"methodIdentifiers":{"addOwner(address)":"7065cb48","approveTransaction(uint256)":"242232d1","cancelTransaction(uint256)":"3380c0d8","isOwner(address)":"2f54bf6e","owners(uint256)":"025e7c27","removeOwner(address)":"173825d9","submitTransaction(address,uint256,bytes)":"c6427474","threshold()":"42cde4e8","transactions(uint256)":"9ace38c2"},"id":0}