{
	"contracts/wallet.sol": {
		"MultiSignatureWallet": {
			"abi": [
				{
					"inputs": [
						{
							"internalType": "address[]",
							"name": "_owners",
							"type": "address[]"
						},
						{
							"internalType": "uint256",
							"name": "_threshold",
							"type": "uint256"
						}
					],
					"stateMutability": "nonpayable",
					"type": "constructor"
				},
				{
					"anonymous": false,
					"inputs": [
						{
							"indexed": false,
							"internalType": "address",
							"name": "newOwner",
							"type": "address"
						}
					],
					"name": "OwnershipAdded",
					"type": "event"
				},
				{
					"anonymous": false,
					"inputs": [
						{
							"indexed": false,
							"internalType": "address",
							"name": "removedOwner",
							"type": "address"
						}
					],
					"name": "OwnershipRemoved",
					"type": "event"
				},
				{
					"anonymous": false,
					"inputs": [
						{
							"indexed": false,
							"internalType": "uint256",
							"name": "transactionId",
							"type": "uint256"
						},
						{
							"indexed": false,
							"internalType": "address",
							"name": "approver",
							"type": "address"
						}
					],
					"name": "TransactionApproved",
					"type": "event"
				},
				{
					"anonymous": false,
					"inputs": [
						{
							"indexed": false,
							"internalType": "uint256",
							"name": "transactionId",
							"type": "uint256"
						}
					],
					"name": "TransactionCancelled",
					"type": "event"
				},
				{
					"anonymous": false,
					"inputs": [
						{
							"indexed": false,
							"internalType": "uint256",
							"name": "transactionId",
							"type": "uint256"
						},
						{
							"indexed": false,
							"internalType": "address",
							"name": "executor",
							"type": "address"
						}
					],
					"name": "TransactionExecuted",
					"type": "event"
				},
				{
					"anonymous": false,
					"inputs": [
						{
							"indexed": false,
							"internalType": "uint256",
							"name": "transactionId",
							"type": "uint256"
						},
						{
							"indexed": false,
							"internalType": "address",
							"name": "to",
							"type": "address"
						},
						{
							"indexed": false,
							"internalType": "uint256",
							"name": "value",
							"type": "uint256"
						},
						{
							"indexed": false,
							"internalType": "bytes",
							"name": "data",
							"type": "bytes"
						}
					],
					"name": "TransactionSubmitted",
					"type": "event"
				},
				{
					"inputs": [
						{
							"internalType": "address",
							"name": "newOwner",
							"type": "address"
						}
					],
					"name": "addOwner",
					"outputs": [],
					"stateMutability": "nonpayable",
					"type": "function"
				},
				{
					"inputs": [
						{
							"internalType": "uint256",
							"name": "transactionId",
							"type": "uint256"
						}
					],
					"name": "approveTransaction",
					"outputs": [],
					"stateMutability": "nonpayable",
					"type": "function"
				},
				{
					"inputs": [
						{
							"internalType": "uint256",
							"name": "transactionId",
							"type": "uint256"
						}
					],
					"name": "cancelTransaction",
					"outputs": [],
					"stateMutability": "nonpayable",
					"type": "function"
				},
				{
					"inputs": [
						{
							"internalType": "address",
							"name": "",
							"type": "address"
						}
					],
					"name": "isOwner",
					"outputs": [
						{
							"internalType": "bool",
							"name": "",
							"type": "bool"
						}
					],
					"stateMutability": "view",
					"type": "function"
				},
				{
					"inputs": [
						{
							"internalType": "uint256",
							"name": "",
							"type": "uint256"
						}
					],
					"name": "owners",
					"outputs": [
						{
							"internalType": "address",
							"name": "",
							"type": "address"
						}
					],
					"stateMutability": "view",
					"type": "function"
				},
				{
					"inputs": [
						{
							"internalType": "address",
							"name": "ownerToRemove",
							"type": "address"
						}
					],
					"name": "removeOwner",
					"outputs": [],
					"stateMutability": "nonpayable",
					"type": "function"
				},
				{
					"inputs": [
						{
							"internalType": "address",
							"name": "to",
							"type": "address"
						},
						{
							"internalType": "uint256",
							"name": "value",
							"type": "uint256"
						},
						{
							"internalType": "bytes",
							"name": "data",
							"type": "bytes"
						}
					],
					"name": "submitTransaction",
					"outputs": [],
					"stateMutability": "nonpayable",
					"type": "function"
				},
				{
					"inputs": [],
					"name": "threshold",
					"outputs": [
						{
							"internalType": "uint256",
							"name": "",
							"type": "uint256"
						}
					],
					"stateMutability": "view",
					"type": "function"
				},
				{
					"inputs": [
						{
							"internalType": "uint256",
							"name": "",
							"type": "uint256"
						}
					],
					"name": "transactions",
					"outputs": [
						{
							"internalType": "address",
							"name": "to",
							"type": "address"
						},
						{
							"internalType": "uint256",
							"name": "value",
							"type": "uint256"
						},
						{
							"internalType": "bytes",
							"name": "data",
							"type": "bytes"
						},
						{
							"internalType": "bool",
							"name": "executed",
							"type": "bool"
						},
						{
							"internalType": "uint256",
							"name": "approvalCount",
							"type": "uint256"
						}
					],
					"stateMutability": "view",
					"type": "function"
				}
			],
			"devdoc": {
				"kind": "dev",
				"methods": {},
				"version": 1
			},
			"evm": {
				"assembly": "    /* \"contracts/wallet.sol\":57:4309  contract MultiSignatureWallet {... */\n  mstore(0x40, 0x80)\n    /* \"contracts/wallet.sol\":1415:1873  constructor(address[] memory _owners, uint256 _threshold) {... */\n  callvalue\n  dup1\n  iszero\n  tag_1\n  jumpi\n  0x00\n  dup1\n  revert\ntag_1:\n  pop\n  mload(0x40)\n  sub(codesize, bytecodeSize)\n  dup1\n  bytecodeSize\n  dup4\n  codecopy\n  dup2\n  dup2\n  add\n  0x40\n  mstore\n  dup2\n  add\n  swap1\n  tag_2\n  swap2\n  swap1\n  tag_3\n  jump\t// in\ntag_2:\n    /* \"contracts/wallet.sol\":1508:1509  0 */\n  0x00\n    /* \"contracts/wallet.sol\":1491:1498  _owners */\n  dup3\n    /* \"contracts/wallet.sol\":1491:1505  _owners.length */\n  mload\n    /* \"contracts/wallet.sol\":1491:1509  _owners.length > 0 */\n  gt\n    /* \"contracts/wallet.sol\":1491:1527  _owners.length > 0 && _threshold > 0 */\n  dup1\n  iszero\n  tag_6\n  jumpi\n  pop\n    /* \"contracts/wallet.sol\":1526:1527  0 */\n  0x00\n    /* \"contracts/wallet.sol\":1513:1523  _threshold */\n  dup2\n    /* \"contracts/wallet.sol\":1513:1527  _threshold > 0 */\n  gt\n    /* \"contracts/wallet.sol\":1491:1527  _owners.length > 0 && _threshold > 0 */\ntag_6:\n    /* \"contracts/wallet.sol\":1491:1559  _owners.length > 0 && _threshold > 0 && _threshold <= _owners.length */\n  dup1\n  iszero\n  tag_7\n  jumpi\n  pop\n    /* \"contracts/wallet.sol\":1545:1552  _owners */\n  dup2\n    /* \"contracts/wallet.sol\":1545:1559  _owners.length */\n  mload\n    /* \"contracts/wallet.sol\":1531:1541  _threshold */\n  dup2\n    /* \"contracts/wallet.sol\":1531:1559  _threshold <= _owners.length */\n  gt\n  iszero\n    /* \"contracts/wallet.sol\":1491:1559  _owners.length > 0 && _threshold > 0 && _threshold <= _owners.length */\ntag_7:\n    /* \"contracts/wallet.sol\":1483:1582  require(_owners.length > 0 && _threshold > 0 && _threshold <= _owners.length, \"Invalid parameters\") */\n  tag_8\n  jumpi\n  mload(0x40)\n  0x08c379a000000000000000000000000000000000000000000000000000000000\n  dup2\n  mstore\n  0x04\n  add\n  tag_9\n  swap1\n  tag_10\n  jump\t// in\ntag_9:\n  mload(0x40)\n  dup1\n  swap2\n  sub\n  swap1\n  revert\ntag_8:\n    /* \"contracts/wallet.sol\":1598:1607  uint256 i */\n  0x00\n    /* \"contracts/wallet.sol\":1593:1834  for (uint256 i = 0; i < _owners.length; i++) {... */\ntag_11:\n    /* \"contracts/wallet.sol\":1617:1624  _owners */\n  dup3\n    /* \"contracts/wallet.sol\":1617:1631  _owners.length */\n  mload\n    /* \"contracts/wallet.sol\":1613:1614  i */\n  dup2\n    /* \"contracts/wallet.sol\":1613:1631  i < _owners.length */\n  lt\n    /* \"contracts/wallet.sol\":1593:1834  for (uint256 i = 0; i < _owners.length; i++) {... */\n  iszero\n  tag_12\n  jumpi\n    /* \"contracts/wallet.sol\":1652:1665  address owner */\n  0x00\n    /* \"contracts/wallet.sol\":1668:1675  _owners */\n  dup4\n    /* \"contracts/wallet.sol\":1676:1677  i */\n  dup3\n    /* \"contracts/wallet.sol\":1668:1678  _owners[i] */\n  dup2\n  mload\n  dup2\n  lt\n  tag_14\n  jumpi\n  tag_15\n  tag_16\n  jump\t// in\ntag_15:\ntag_14:\n  0x20\n  mul\n  0x20\n  add\n  add\n  mload\n    /* \"contracts/wallet.sol\":1652:1678  address owner = _owners[i] */\n  swap1\n  pop\n    /* \"contracts/wallet.sol\":1717:1718  0 */\n  0x00\n    /* \"contracts/wallet.sol\":1700:1719  owner != address(0) */\n  0xffffffffffffffffffffffffffffffffffffffff\n  and\n    /* \"contracts/wallet.sol\":1700:1705  owner */\n  dup2\n    /* \"contracts/wallet.sol\":1700:1719  owner != address(0) */\n  0xffffffffffffffffffffffffffffffffffffffff\n  and\n  eq\n  iszero\n    /* \"contracts/wallet.sol\":1700:1738  owner != address(0) && !isOwner[owner] */\n  dup1\n  iszero\n  tag_17\n  jumpi\n  pop\n    /* \"contracts/wallet.sol\":1724:1731  isOwner */\n  0x01\n    /* \"contracts/wallet.sol\":1724:1738  isOwner[owner] */\n  0x00\n    /* \"contracts/wallet.sol\":1732:1737  owner */\n  dup3\n    /* \"contracts/wallet.sol\":1724:1738  isOwner[owner] */\n  0xffffffffffffffffffffffffffffffffffffffff\n  and\n  0xffffffffffffffffffffffffffffffffffffffff\n  and\n  dup2\n  mstore\n  0x20\n  add\n  swap1\n  dup2\n  mstore\n  0x20\n  add\n  0x00\n  keccak256\n  0x00\n  swap1\n  sload\n  swap1\n  0x0100\n  exp\n  swap1\n  div\n  0xff\n  and\n    /* \"contracts/wallet.sol\":1723:1738  !isOwner[owner] */\n  iszero\n    /* \"contracts/wallet.sol\":1700:1738  owner != address(0) && !isOwner[owner] */\ntag_17:\n    /* \"contracts/wallet.sol\":1692:1756  require(owner != address(0) && !isOwner[owner], \"Invalid owner\") */\n  tag_18\n  jumpi\n  mload(0x40)\n  0x08c379a000000000000000000000000000000000000000000000000000000000\n  dup2\n  mstore\n  0x04\n  add\n  tag_19\n  swap1\n  tag_20\n  jump\t// in\ntag_19:\n  mload(0x40)\n  dup1\n  swap2\n  sub\n  swap1\n  revert\ntag_18:\n    /* \"contracts/wallet.sol\":1787:1791  true */\n  0x01\n    /* \"contracts/wallet.sol\":1770:1777  isOwner */\n  dup1\n    /* \"contracts/wallet.sol\":1770:1784  isOwner[owner] */\n  0x00\n    /* \"contracts/wallet.sol\":1778:1783  owner */\n  dup4\n    /* \"contracts/wallet.sol\":1770:1784  isOwner[owner] */\n  0xffffffffffffffffffffffffffffffffffffffff\n  and\n  0xffffffffffffffffffffffffffffffffffffffff\n  and\n  dup2\n  mstore\n  0x20\n  add\n  swap1\n  dup2\n  mstore\n  0x20\n  add\n  0x00\n  keccak256\n  0x00\n    /* \"contracts/wallet.sol\":1770:1791  isOwner[owner] = true */\n  0x0100\n  exp\n  dup2\n  sload\n  dup2\n  0xff\n  mul\n  not\n  and\n  swap1\n  dup4\n  iszero\n  iszero\n  mul\n  or\n  swap1\n  sstore\n  pop\n    /* \"contracts/wallet.sol\":1805:1811  owners */\n  0x00\n    /* \"contracts/wallet.sol\":1817:1822  owner */\n  dup2\n    /* \"contracts/wallet.sol\":1805:1823  owners.push(owner) */\n  swap1\n  dup1\n  0x01\n  dup2\n  sload\n  add\n  dup1\n  dup3\n  sstore\n  dup1\n  swap2\n  pop\n  pop\n  0x01\n  swap1\n  sub\n  swap1\n  0x00\n  mstore\n  keccak256(0x00, 0x20)\n  add\n  0x00\n  swap1\n  swap2\n  swap1\n  swap2\n  swap1\n  swap2\n  0x0100\n  exp\n  dup2\n  sload\n  dup2\n  0xffffffffffffffffffffffffffffffffffffffff\n  mul\n  not\n  and\n  swap1\n  dup4\n  0xffffffffffffffffffffffffffffffffffffffff\n  and\n  mul\n  or\n  swap1\n  sstore\n  pop\n    /* \"contracts/wallet.sol\":1638:1834  {... */\n  pop\n    /* \"contracts/wallet.sol\":1633:1636  i++ */\n  dup1\n  dup1\n  0x01\n  add\n  swap2\n  pop\n  pop\n    /* \"contracts/wallet.sol\":1593:1834  for (uint256 i = 0; i < _owners.length; i++) {... */\n  jump(tag_11)\ntag_12:\n  pop\n    /* \"contracts/wallet.sol\":1856:1866  _threshold */\n  dup1\n    /* \"contracts/wallet.sol\":1844:1853  threshold */\n  0x02\n    /* \"contracts/wallet.sol\":1844:1866  threshold = _threshold */\n  dup2\n  swap1\n  sstore\n  pop\n    /* \"contracts/wallet.sol\":1415:1873  constructor(address[] memory _owners, uint256 _threshold) {... */\n  pop\n  pop\n    /* \"contracts/wallet.sol\":57:4309  contract MultiSignatureWallet {... */\n  jump(tag_22)\n    /* \"#utility.yul\":7:82   */\ntag_23:\n    /* \"#utility.yul\":40:46   */\n  0x00\n    /* \"#utility.yul\":73:75   */\n  0x40\n    /* \"#utility.yul\":67:76   */\n  mload\n    /* \"#utility.yul\":57:76   */\n  swap1\n  pop\n    /* \"#utility.yul\":7:82   */\n  swap1\n  jump\t// out\n    /* \"#utility.yul\":88:205   */\ntag_24:\n    /* \"#utility.yul\":197:198   */\n  0x00\n    /* \"#utility.yul\":194:195   */\n  dup1\n    /* \"#utility.yul\":187:199   */\n  revert\n    /* \"#utility.yul\":211:328   */\ntag_25:\n    /* \"#utility.yul\":320:321   */\n  0x00\n    /* \"#utility.yul\":317:318   */\n  dup1\n    /* \"#utility.yul\":310:322   */\n  revert\n    /* \"#utility.yul\":334:451   */\ntag_26:\n    /* \"#utility.yul\":443:444   */\n  0x00\n    /* \"#utility.yul\":440:441   */\n  dup1\n    /* \"#utility.yul\":433:445   */\n  revert\n    /* \"#utility.yul\":457:559   */\ntag_27:\n    /* \"#utility.yul\":498:504   */\n  0x00\n    /* \"#utility.yul\":549:551   */\n  0x1f\n    /* \"#utility.yul\":545:552   */\n  not\n    /* \"#utility.yul\":540:542   */\n  0x1f\n    /* \"#utility.yul\":533:538   */\n  dup4\n    /* \"#utility.yul\":529:543   */\n  add\n    /* \"#utility.yul\":525:553   */\n  and\n    /* \"#utility.yul\":515:553   */\n  swap1\n  pop\n    /* \"#utility.yul\":457:559   */\n  swap2\n  swap1\n  pop\n  jump\t// out\n    /* \"#utility.yul\":565:745   */\ntag_28:\n    /* \"#utility.yul\":613:690   */\n  0x4e487b7100000000000000000000000000000000000000000000000000000000\n    /* \"#utility.yul\":610:611   */\n  0x00\n    /* \"#utility.yul\":603:691   */\n  mstore\n    /* \"#utility.yul\":710:714   */\n  0x41\n    /* \"#utility.yul\":707:708   */\n  0x04\n    /* \"#utility.yul\":700:715   */\n  mstore\n    /* \"#utility.yul\":734:738   */\n  0x24\n    /* \"#utility.yul\":731:732   */\n  0x00\n    /* \"#utility.yul\":724:739   */\n  revert\n    /* \"#utility.yul\":751:1032   */\ntag_29:\n    /* \"#utility.yul\":834:861   */\n  tag_55\n    /* \"#utility.yul\":856:860   */\n  dup3\n    /* \"#utility.yul\":834:861   */\n  tag_27\n  jump\t// in\ntag_55:\n    /* \"#utility.yul\":826:832   */\n  dup2\n    /* \"#utility.yul\":822:862   */\n  add\n    /* \"#utility.yul\":964:970   */\n  dup2\n    /* \"#utility.yul\":952:962   */\n  dup2\n    /* \"#utility.yul\":949:971   */\n  lt\n    /* \"#utility.yul\":928:946   */\n  0xffffffffffffffff\n    /* \"#utility.yul\":916:926   */\n  dup3\n    /* \"#utility.yul\":913:947   */\n  gt\n    /* \"#utility.yul\":910:972   */\n  or\n    /* \"#utility.yul\":907:995   */\n  iszero\n  tag_56\n  jumpi\n    /* \"#utility.yul\":975:993   */\n  tag_57\n  tag_28\n  jump\t// in\ntag_57:\n    /* \"#utility.yul\":907:995   */\ntag_56:\n    /* \"#utility.yul\":1015:1025   */\n  dup1\n    /* \"#utility.yul\":1011:1013   */\n  0x40\n    /* \"#utility.yul\":1004:1026   */\n  mstore\n    /* \"#utility.yul\":794:1032   */\n  pop\n    /* \"#utility.yul\":751:1032   */\n  pop\n  pop\n  jump\t// out\n    /* \"#utility.yul\":1038:1167   */\ntag_30:\n    /* \"#utility.yul\":1072:1078   */\n  0x00\n    /* \"#utility.yul\":1099:1119   */\n  tag_59\n  tag_23\n  jump\t// in\ntag_59:\n    /* \"#utility.yul\":1089:1119   */\n  swap1\n  pop\n    /* \"#utility.yul\":1128:1161   */\n  tag_60\n    /* \"#utility.yul\":1156:1160   */\n  dup3\n    /* \"#utility.yul\":1148:1154   */\n  dup3\n    /* \"#utility.yul\":1128:1161   */\n  tag_29\n  jump\t// in\ntag_60:\n    /* \"#utility.yul\":1038:1167   */\n  swap2\n  swap1\n  pop\n  jump\t// out\n    /* \"#utility.yul\":1173:1484   */\ntag_31:\n    /* \"#utility.yul\":1250:1254   */\n  0x00\n    /* \"#utility.yul\":1340:1358   */\n  0xffffffffffffffff\n    /* \"#utility.yul\":1332:1338   */\n  dup3\n    /* \"#utility.yul\":1329:1359   */\n  gt\n    /* \"#utility.yul\":1326:1382   */\n  iszero\n  tag_62\n  jumpi\n    /* \"#utility.yul\":1362:1380   */\n  tag_63\n  tag_28\n  jump\t// in\ntag_63:\n    /* \"#utility.yul\":1326:1382   */\ntag_62:\n    /* \"#utility.yul\":1412:1416   */\n  0x20\n    /* \"#utility.yul\":1404:1410   */\n  dup3\n    /* \"#utility.yul\":1400:1417   */\n  mul\n    /* \"#utility.yul\":1392:1417   */\n  swap1\n  pop\n    /* \"#utility.yul\":1472:1476   */\n  0x20\n    /* \"#utility.yul\":1466:1470   */\n  dup2\n    /* \"#utility.yul\":1462:1477   */\n  add\n    /* \"#utility.yul\":1454:1477   */\n  swap1\n  pop\n    /* \"#utility.yul\":1173:1484   */\n  swap2\n  swap1\n  pop\n  jump\t// out\n    /* \"#utility.yul\":1490:1607   */\ntag_32:\n    /* \"#utility.yul\":1599:1600   */\n  0x00\n    /* \"#utility.yul\":1596:1597   */\n  dup1\n    /* \"#utility.yul\":1589:1601   */\n  revert\n    /* \"#utility.yul\":1613:1739   */\ntag_33:\n    /* \"#utility.yul\":1650:1657   */\n  0x00\n    /* \"#utility.yul\":1690:1732   */\n  0xffffffffffffffffffffffffffffffffffffffff\n    /* \"#utility.yul\":1683:1688   */\n  dup3\n    /* \"#utility.yul\":1679:1733   */\n  and\n    /* \"#utility.yul\":1668:1733   */\n  swap1\n  pop\n    /* \"#utility.yul\":1613:1739   */\n  swap2\n  swap1\n  pop\n  jump\t// out\n    /* \"#utility.yul\":1745:1841   */\ntag_34:\n    /* \"#utility.yul\":1782:1789   */\n  0x00\n    /* \"#utility.yul\":1811:1835   */\n  tag_67\n    /* \"#utility.yul\":1829:1834   */\n  dup3\n    /* \"#utility.yul\":1811:1835   */\n  tag_33\n  jump\t// in\ntag_67:\n    /* \"#utility.yul\":1800:1835   */\n  swap1\n  pop\n    /* \"#utility.yul\":1745:1841   */\n  swap2\n  swap1\n  pop\n  jump\t// out\n    /* \"#utility.yul\":1847:1969   */\ntag_35:\n    /* \"#utility.yul\":1920:1944   */\n  tag_69\n    /* \"#utility.yul\":1938:1943   */\n  dup2\n    /* \"#utility.yul\":1920:1944   */\n  tag_34\n  jump\t// in\ntag_69:\n    /* \"#utility.yul\":1913:1918   */\n  dup2\n    /* \"#utility.yul\":1910:1945   */\n  eq\n    /* \"#utility.yul\":1900:1963   */\n  tag_70\n  jumpi\n    /* \"#utility.yul\":1959:1960   */\n  0x00\n    /* \"#utility.yul\":1956:1957   */\n  dup1\n    /* \"#utility.yul\":1949:1961   */\n  revert\n    /* \"#utility.yul\":1900:1963   */\ntag_70:\n    /* \"#utility.yul\":1847:1969   */\n  pop\n  jump\t// out\n    /* \"#utility.yul\":1975:2118   */\ntag_36:\n    /* \"#utility.yul\":2032:2037   */\n  0x00\n    /* \"#utility.yul\":2063:2069   */\n  dup2\n    /* \"#utility.yul\":2057:2070   */\n  mload\n    /* \"#utility.yul\":2048:2070   */\n  swap1\n  pop\n    /* \"#utility.yul\":2079:2112   */\n  tag_72\n    /* \"#utility.yul\":2106:2111   */\n  dup2\n    /* \"#utility.yul\":2079:2112   */\n  tag_35\n  jump\t// in\ntag_72:\n    /* \"#utility.yul\":1975:2118   */\n  swap3\n  swap2\n  pop\n  pop\n  jump\t// out\n    /* \"#utility.yul\":2141:2873   */\ntag_37:\n    /* \"#utility.yul\":2248:2253   */\n  0x00\n    /* \"#utility.yul\":2273:2354   */\n  tag_74\n    /* \"#utility.yul\":2289:2353   */\n  tag_75\n    /* \"#utility.yul\":2346:2352   */\n  dup5\n    /* \"#utility.yul\":2289:2353   */\n  tag_31\n  jump\t// in\ntag_75:\n    /* \"#utility.yul\":2273:2354   */\n  tag_30\n  jump\t// in\ntag_74:\n    /* \"#utility.yul\":2264:2354   */\n  swap1\n  pop\n    /* \"#utility.yul\":2374:2379   */\n  dup1\n    /* \"#utility.yul\":2403:2409   */\n  dup4\n    /* \"#utility.yul\":2396:2401   */\n  dup3\n    /* \"#utility.yul\":2389:2410   */\n  mstore\n    /* \"#utility.yul\":2437:2441   */\n  0x20\n    /* \"#utility.yul\":2430:2435   */\n  dup3\n    /* \"#utility.yul\":2426:2442   */\n  add\n    /* \"#utility.yul\":2419:2442   */\n  swap1\n  pop\n    /* \"#utility.yul\":2490:2494   */\n  0x20\n    /* \"#utility.yul\":2482:2488   */\n  dup5\n    /* \"#utility.yul\":2478:2495   */\n  mul\n    /* \"#utility.yul\":2470:2476   */\n  dup4\n    /* \"#utility.yul\":2466:2496   */\n  add\n    /* \"#utility.yul\":2519:2522   */\n  dup6\n    /* \"#utility.yul\":2511:2517   */\n  dup2\n    /* \"#utility.yul\":2508:2523   */\n  gt\n    /* \"#utility.yul\":2505:2627   */\n  iszero\n  tag_76\n  jumpi\n    /* \"#utility.yul\":2538:2617   */\n  tag_77\n  tag_32\n  jump\t// in\ntag_77:\n    /* \"#utility.yul\":2505:2627   */\ntag_76:\n    /* \"#utility.yul\":2653:2659   */\n  dup4\n    /* \"#utility.yul\":2636:2867   */\ntag_78:\n    /* \"#utility.yul\":2670:2676   */\n  dup2\n    /* \"#utility.yul\":2665:2668   */\n  dup2\n    /* \"#utility.yul\":2662:2677   */\n  lt\n    /* \"#utility.yul\":2636:2867   */\n  iszero\n  tag_80\n  jumpi\n    /* \"#utility.yul\":2745:2748   */\n  dup1\n    /* \"#utility.yul\":2774:2822   */\n  tag_81\n    /* \"#utility.yul\":2818:2821   */\n  dup9\n    /* \"#utility.yul\":2806:2816   */\n  dup3\n    /* \"#utility.yul\":2774:2822   */\n  tag_36\n  jump\t// in\ntag_81:\n    /* \"#utility.yul\":2769:2772   */\n  dup5\n    /* \"#utility.yul\":2762:2823   */\n  mstore\n    /* \"#utility.yul\":2852:2856   */\n  0x20\n    /* \"#utility.yul\":2847:2850   */\n  dup5\n    /* \"#utility.yul\":2843:2857   */\n  add\n    /* \"#utility.yul\":2836:2857   */\n  swap4\n  pop\n    /* \"#utility.yul\":2712:2867   */\n  pop\n    /* \"#utility.yul\":2696:2700   */\n  0x20\n    /* \"#utility.yul\":2691:2694   */\n  dup2\n    /* \"#utility.yul\":2687:2701   */\n  add\n    /* \"#utility.yul\":2680:2701   */\n  swap1\n  pop\n    /* \"#utility.yul\":2636:2867   */\n  jump(tag_78)\ntag_80:\n    /* \"#utility.yul\":2640:2661   */\n  pop\n    /* \"#utility.yul\":2254:2873   */\n  pop\n  pop\n    /* \"#utility.yul\":2141:2873   */\n  swap4\n  swap3\n  pop\n  pop\n  pop\n  jump\t// out\n    /* \"#utility.yul\":2896:3281   */\ntag_38:\n    /* \"#utility.yul\":2978:2983   */\n  0x00\n    /* \"#utility.yul\":3027:3030   */\n  dup3\n    /* \"#utility.yul\":3020:3024   */\n  0x1f\n    /* \"#utility.yul\":3012:3018   */\n  dup4\n    /* \"#utility.yul\":3008:3025   */\n  add\n    /* \"#utility.yul\":3004:3031   */\n  slt\n    /* \"#utility.yul\":2994:3116   */\n  tag_83\n  jumpi\n    /* \"#utility.yul\":3035:3114   */\n  tag_84\n  tag_26\n  jump\t// in\ntag_84:\n    /* \"#utility.yul\":2994:3116   */\ntag_83:\n    /* \"#utility.yul\":3145:3151   */\n  dup2\n    /* \"#utility.yul\":3139:3152   */\n  mload\n    /* \"#utility.yul\":3170:3275   */\n  tag_85\n    /* \"#utility.yul\":3271:3274   */\n  dup5\n    /* \"#utility.yul\":3263:3269   */\n  dup3\n    /* \"#utility.yul\":3256:3260   */\n  0x20\n    /* \"#utility.yul\":3248:3254   */\n  dup7\n    /* \"#utility.yul\":3244:3261   */\n  add\n    /* \"#utility.yul\":3170:3275   */\n  tag_37\n  jump\t// in\ntag_85:\n    /* \"#utility.yul\":3161:3275   */\n  swap2\n  pop\n    /* \"#utility.yul\":2984:3281   */\n  pop\n    /* \"#utility.yul\":2896:3281   */\n  swap3\n  swap2\n  pop\n  pop\n  jump\t// out\n    /* \"#utility.yul\":3287:3364   */\ntag_39:\n    /* \"#utility.yul\":3324:3331   */\n  0x00\n    /* \"#utility.yul\":3353:3358   */\n  dup2\n    /* \"#utility.yul\":3342:3358   */\n  swap1\n  pop\n    /* \"#utility.yul\":3287:3364   */\n  swap2\n  swap1\n  pop\n  jump\t// out\n    /* \"#utility.yul\":3370:3492   */\ntag_40:\n    /* \"#utility.yul\":3443:3467   */\n  tag_88\n    /* \"#utility.yul\":3461:3466   */\n  dup2\n    /* \"#utility.yul\":3443:3467   */\n  tag_39\n  jump\t// in\ntag_88:\n    /* \"#utility.yul\":3436:3441   */\n  dup2\n    /* \"#utility.yul\":3433:3468   */\n  eq\n    /* \"#utility.yul\":3423:3486   */\n  tag_89\n  jumpi\n    /* \"#utility.yul\":3482:3483   */\n  0x00\n    /* \"#utility.yul\":3479:3480   */\n  dup1\n    /* \"#utility.yul\":3472:3484   */\n  revert\n    /* \"#utility.yul\":3423:3486   */\ntag_89:\n    /* \"#utility.yul\":3370:3492   */\n  pop\n  jump\t// out\n    /* \"#utility.yul\":3498:3641   */\ntag_41:\n    /* \"#utility.yul\":3555:3560   */\n  0x00\n    /* \"#utility.yul\":3586:3592   */\n  dup2\n    /* \"#utility.yul\":3580:3593   */\n  mload\n    /* \"#utility.yul\":3571:3593   */\n  swap1\n  pop\n    /* \"#utility.yul\":3602:3635   */\n  tag_91\n    /* \"#utility.yul\":3629:3634   */\n  dup2\n    /* \"#utility.yul\":3602:3635   */\n  tag_40\n  jump\t// in\ntag_91:\n    /* \"#utility.yul\":3498:3641   */\n  swap3\n  swap2\n  pop\n  pop\n  jump\t// out\n    /* \"#utility.yul\":3647:4357   */\ntag_3:\n    /* \"#utility.yul\":3751:3757   */\n  0x00\n    /* \"#utility.yul\":3759:3765   */\n  dup1\n    /* \"#utility.yul\":3808:3810   */\n  0x40\n    /* \"#utility.yul\":3796:3805   */\n  dup4\n    /* \"#utility.yul\":3787:3794   */\n  dup6\n    /* \"#utility.yul\":3783:3806   */\n  sub\n    /* \"#utility.yul\":3779:3811   */\n  slt\n    /* \"#utility.yul\":3776:3895   */\n  iszero\n  tag_93\n  jumpi\n    /* \"#utility.yul\":3814:3893   */\n  tag_94\n  tag_24\n  jump\t// in\ntag_94:\n    /* \"#utility.yul\":3776:3895   */\ntag_93:\n    /* \"#utility.yul\":3955:3956   */\n  0x00\n    /* \"#utility.yul\":3944:3953   */\n  dup4\n    /* \"#utility.yul\":3940:3957   */\n  add\n    /* \"#utility.yul\":3934:3958   */\n  mload\n    /* \"#utility.yul\":3985:4003   */\n  0xffffffffffffffff\n    /* \"#utility.yul\":3977:3983   */\n  dup2\n    /* \"#utility.yul\":3974:4004   */\n  gt\n    /* \"#utility.yul\":3971:4088   */\n  iszero\n  tag_95\n  jumpi\n    /* \"#utility.yul\":4007:4086   */\n  tag_96\n  tag_25\n  jump\t// in\ntag_96:\n    /* \"#utility.yul\":3971:4088   */\ntag_95:\n    /* \"#utility.yul\":4112:4201   */\n  tag_97\n    /* \"#utility.yul\":4193:4200   */\n  dup6\n    /* \"#utility.yul\":4184:4190   */\n  dup3\n    /* \"#utility.yul\":4173:4182   */\n  dup7\n    /* \"#utility.yul\":4169:4191   */\n  add\n    /* \"#utility.yul\":4112:4201   */\n  tag_38\n  jump\t// in\ntag_97:\n    /* \"#utility.yul\":4102:4201   */\n  swap3\n  pop\n    /* \"#utility.yul\":3905:4211   */\n  pop\n    /* \"#utility.yul\":4250:4252   */\n  0x20\n    /* \"#utility.yul\":4276:4340   */\n  tag_98\n    /* \"#utility.yul\":4332:4339   */\n  dup6\n    /* \"#utility.yul\":4323:4329   */\n  dup3\n    /* \"#utility.yul\":4312:4321   */\n  dup7\n    /* \"#utility.yul\":4308:4330   */\n  add\n    /* \"#utility.yul\":4276:4340   */\n  tag_41\n  jump\t// in\ntag_98:\n    /* \"#utility.yul\":4266:4340   */\n  swap2\n  pop\n    /* \"#utility.yul\":4221:4350   */\n  pop\n    /* \"#utility.yul\":3647:4357   */\n  swap3\n  pop\n  swap3\n  swap1\n  pop\n  jump\t// out\n    /* \"#utility.yul\":4363:4532   */\ntag_42:\n    /* \"#utility.yul\":4447:4458   */\n  0x00\n    /* \"#utility.yul\":4481:4487   */\n  dup3\n    /* \"#utility.yul\":4476:4479   */\n  dup3\n    /* \"#utility.yul\":4469:4488   */\n  mstore\n    /* \"#utility.yul\":4521:4525   */\n  0x20\n    /* \"#utility.yul\":4516:4519   */\n  dup3\n    /* \"#utility.yul\":4512:4526   */\n  add\n    /* \"#utility.yul\":4497:4526   */\n  swap1\n  pop\n    /* \"#utility.yul\":4363:4532   */\n  swap3\n  swap2\n  pop\n  pop\n  jump\t// out\n    /* \"#utility.yul\":4538:4706   */\ntag_43:\n    /* \"#utility.yul\":4678:4698   */\n  0x496e76616c696420706172616d65746572730000000000000000000000000000\n    /* \"#utility.yul\":4674:4675   */\n  0x00\n    /* \"#utility.yul\":4666:4672   */\n  dup3\n    /* \"#utility.yul\":4662:4676   */\n  add\n    /* \"#utility.yul\":4655:4699   */\n  mstore\n    /* \"#utility.yul\":4538:4706   */\n  pop\n  jump\t// out\n    /* \"#utility.yul\":4712:5078   */\ntag_44:\n    /* \"#utility.yul\":4854:4857   */\n  0x00\n    /* \"#utility.yul\":4875:4942   */\n  tag_102\n    /* \"#utility.yul\":4939:4941   */\n  0x12\n    /* \"#utility.yul\":4934:4937   */\n  dup4\n    /* \"#utility.yul\":4875:4942   */\n  tag_42\n  jump\t// in\ntag_102:\n    /* \"#utility.yul\":4868:4942   */\n  swap2\n  pop\n    /* \"#utility.yul\":4951:5044   */\n  tag_103\n    /* \"#utility.yul\":5040:5043   */\n  dup3\n    /* \"#utility.yul\":4951:5044   */\n  tag_43\n  jump\t// in\ntag_103:\n    /* \"#utility.yul\":5069:5071   */\n  0x20\n    /* \"#utility.yul\":5064:5067   */\n  dup3\n    /* \"#utility.yul\":5060:5072   */\n  add\n    /* \"#utility.yul\":5053:5072   */\n  swap1\n  pop\n    /* \"#utility.yul\":4712:5078   */\n  swap2\n  swap1\n  pop\n  jump\t// out\n    /* \"#utility.yul\":5084:5503   */\ntag_10:\n    /* \"#utility.yul\":5250:5254   */\n  0x00\n    /* \"#utility.yul\":5288:5290   */\n  0x20\n    /* \"#utility.yul\":5277:5286   */\n  dup3\n    /* \"#utility.yul\":5273:5291   */\n  add\n    /* \"#utility.yul\":5265:5291   */\n  swap1\n  pop\n    /* \"#utility.yul\":5337:5346   */\n  dup2\n    /* \"#utility.yul\":5331:5335   */\n  dup2\n    /* \"#utility.yul\":5327:5347   */\n  sub\n    /* \"#utility.yul\":5323:5324   */\n  0x00\n    /* \"#utility.yul\":5312:5321   */\n  dup4\n    /* \"#utility.yul\":5308:5325   */\n  add\n    /* \"#utility.yul\":5301:5348   */\n  mstore\n    /* \"#utility.yul\":5365:5496   */\n  tag_105\n    /* \"#utility.yul\":5491:5495   */\n  dup2\n    /* \"#utility.yul\":5365:5496   */\n  tag_44\n  jump\t// in\ntag_105:\n    /* \"#utility.yul\":5357:5496   */\n  swap1\n  pop\n    /* \"#utility.yul\":5084:5503   */\n  swap2\n  swap1\n  pop\n  jump\t// out\n    /* \"#utility.yul\":5509:5689   */\ntag_16:\n    /* \"#utility.yul\":5557:5634   */\n  0x4e487b7100000000000000000000000000000000000000000000000000000000\n    /* \"#utility.yul\":5554:5555   */\n  0x00\n    /* \"#utility.yul\":5547:5635   */\n  mstore\n    /* \"#utility.yul\":5654:5658   */\n  0x32\n    /* \"#utility.yul\":5651:5652   */\n  0x04\n    /* \"#utility.yul\":5644:5659   */\n  mstore\n    /* \"#utility.yul\":5678:5682   */\n  0x24\n    /* \"#utility.yul\":5675:5676   */\n  0x00\n    /* \"#utility.yul\":5668:5683   */\n  revert\n    /* \"#utility.yul\":5695:5858   */\ntag_45:\n    /* \"#utility.yul\":5835:5850   */\n  0x496e76616c6964206f776e657200000000000000000000000000000000000000\n    /* \"#utility.yul\":5831:5832   */\n  0x00\n    /* \"#utility.yul\":5823:5829   */\n  dup3\n    /* \"#utility.yul\":5819:5833   */\n  add\n    /* \"#utility.yul\":5812:5851   */\n  mstore\n    /* \"#utility.yul\":5695:5858   */\n  pop\n  jump\t// out\n    /* \"#utility.yul\":5864:6230   */\ntag_46:\n    /* \"#utility.yul\":6006:6009   */\n  0x00\n    /* \"#utility.yul\":6027:6094   */\n  tag_109\n    /* \"#utility.yul\":6091:6093   */\n  0x0d\n    /* \"#utility.yul\":6086:6089   */\n  dup4\n    /* \"#utility.yul\":6027:6094   */\n  tag_42\n  jump\t// in\ntag_109:\n    /* \"#utility.yul\":6020:6094   */\n  swap2\n  pop\n    /* \"#utility.yul\":6103:6196   */\n  tag_110\n    /* \"#utility.yul\":6192:6195   */\n  dup3\n    /* \"#utility.yul\":6103:6196   */\n  tag_45\n  jump\t// in\ntag_110:\n    /* \"#utility.yul\":6221:6223   */\n  0x20\n    /* \"#utility.yul\":6216:6219   */\n  dup3\n    /* \"#utility.yul\":6212:6224   */\n  add\n    /* \"#utility.yul\":6205:6224   */\n  swap1\n  pop\n    /* \"#utility.yul\":5864:6230   */\n  swap2\n  swap1\n  pop\n  jump\t// out\n    /* \"#utility.yul\":6236:6655   */\ntag_20:\n    /* \"#utility.yul\":6402:6406   */\n  0x00\n    /* \"#utility.yul\":6440:6442   */\n  0x20\n    /* \"#utility.yul\":6429:6438   */\n  dup3\n    /* \"#utility.yul\":6425:6443   */\n  add\n    /* \"#utility.yul\":6417:6443   */\n  swap1\n  pop\n    /* \"#utility.yul\":6489:6498   */\n  dup2\n    /* \"#utility.yul\":6483:6487   */\n  dup2\n    /* \"#utility.yul\":6479:6499   */\n  sub\n    /* \"#utility.yul\":6475:6476   */\n  0x00\n    /* \"#utility.yul\":6464:6473   */\n  dup4\n    /* \"#utility.yul\":6460:6477   */\n  add\n    /* \"#utility.yul\":6453:6500   */\n  mstore\n    /* \"#utility.yul\":6517:6648   */\n  tag_112\n    /* \"#utility.yul\":6643:6647   */\n  dup2\n    /* \"#utility.yul\":6517:6648   */\n  tag_46\n  jump\t// in\ntag_112:\n    /* \"#utility.yul\":6509:6648   */\n  swap1\n  pop\n    /* \"#utility.yul\":6236:6655   */\n  swap2\n  swap1\n  pop\n  jump\t// out\n    /* \"contracts/wallet.sol\":57:4309  contract MultiSignatureWallet {... */\ntag_22:\n  dataSize(sub_0)\n  dup1\n  dataOffset(sub_0)\n  0x00\n  codecopy\n  0x00\n  return\nstop\n\nsub_0: assembly {\n        /* \"contracts/wallet.sol\":57:4309  contract MultiSignatureWallet {... */\n      mstore(0x40, 0x80)\n      callvalue\n      dup1\n      iszero\n      tag_1\n      jumpi\n      0x00\n      dup1\n      revert\n    tag_1:\n      pop\n      jumpi(tag_2, lt(calldatasize, 0x04))\n      shr(0xe0, calldataload(0x00))\n      dup1\n      0x3380c0d8\n      gt\n      tag_12\n      jumpi\n      dup1\n      0x3380c0d8\n      eq\n      tag_7\n      jumpi\n      dup1\n      0x42cde4e8\n      eq\n      tag_8\n      jumpi\n      dup1\n      0x7065cb48\n      eq\n      tag_9\n      jumpi\n      dup1\n      0x9ace38c2\n      eq\n      tag_10\n      jumpi\n      dup1\n      0xc6427474\n      eq\n      tag_11\n      jumpi\n      jump(tag_2)\n    tag_12:\n      dup1\n      0x025e7c27\n      eq\n      tag_3\n      jumpi\n      dup1\n      0x173825d9\n      eq\n      tag_4\n      jumpi\n      dup1\n      0x242232d1\n      eq\n      tag_5\n      jumpi\n      dup1\n      0x2f54bf6e\n      eq\n      tag_6\n      jumpi\n    tag_2:\n      0x00\n      dup1\n      revert\n        /* \"contracts/wallet.sol\":93:116  address[] public owners */\n    tag_3:\n      tag_13\n      0x04\n      dup1\n      calldatasize\n      sub\n      dup2\n      add\n      swap1\n      tag_14\n      swap2\n      swap1\n      tag_15\n      jump\t// in\n    tag_14:\n      tag_16\n      jump\t// in\n    tag_13:\n      mload(0x40)\n      tag_17\n      swap2\n      swap1\n      tag_18\n      jump\t// in\n    tag_17:\n      mload(0x40)\n      dup1\n      swap2\n      sub\n      swap1\n      return\n        /* \"contracts/wallet.sol\":2131:2653  function removeOwner(address ownerToRemove) external onlyOwner {... */\n    tag_4:\n      tag_19\n      0x04\n      dup1\n      calldatasize\n      sub\n      dup2\n      add\n      swap1\n      tag_20\n      swap2\n      swap1\n      tag_21\n      jump\t// in\n    tag_20:\n      tag_22\n      jump\t// in\n    tag_19:\n      stop\n        /* \"contracts/wallet.sol\":3142:3615  function approveTransaction(uint256 transactionId) external onlyOwner transactionExists(transactionId) notExecuted(transactionId) notApproved(transactionId) {... */\n    tag_5:\n      tag_23\n      0x04\n      dup1\n      calldatasize\n      sub\n      dup2\n      add\n      swap1\n      tag_24\n      swap2\n      swap1\n      tag_15\n      jump\t// in\n    tag_24:\n      tag_25\n      jump\t// in\n    tag_23:\n      stop\n        /* \"contracts/wallet.sol\":122:161  mapping(address => bool) public isOwner */\n    tag_6:\n      tag_26\n      0x04\n      dup1\n      calldatasize\n      sub\n      dup2\n      add\n      swap1\n      tag_27\n      swap2\n      swap1\n      tag_21\n      jump\t// in\n    tag_27:\n      tag_28\n      jump\t// in\n    tag_26:\n      mload(0x40)\n      tag_29\n      swap2\n      swap1\n      tag_30\n      jump\t// in\n    tag_29:\n      mload(0x40)\n      dup1\n      swap2\n      sub\n      swap1\n      return\n        /* \"contracts/wallet.sol\":3621:3860  function cancelTransaction(uint256 transactionId) external onlyOwner transactionExists(transactionId) notExecuted(transactionId) {... */\n    tag_7:\n      tag_31\n      0x04\n      dup1\n      calldatasize\n      sub\n      dup2\n      add\n      swap1\n      tag_32\n      swap2\n      swap1\n      tag_15\n      jump\t// in\n    tag_32:\n      tag_33\n      jump\t// in\n    tag_31:\n      stop\n        /* \"contracts/wallet.sol\":167:191  uint256 public threshold */\n    tag_8:\n      tag_34\n      tag_35\n      jump\t// in\n    tag_34:\n      mload(0x40)\n      tag_36\n      swap2\n      swap1\n      tag_37\n      jump\t// in\n    tag_36:\n      mload(0x40)\n      dup1\n      swap2\n      sub\n      swap1\n      return\n        /* \"contracts/wallet.sol\":1879:2125  function addOwner(address newOwner) external onlyOwner {... */\n    tag_9:\n      tag_38\n      0x04\n      dup1\n      calldatasize\n      sub\n      dup2\n      add\n      swap1\n      tag_39\n      swap2\n      swap1\n      tag_21\n      jump\t// in\n    tag_39:\n      tag_40\n      jump\t// in\n    tag_38:\n      stop\n        /* \"contracts/wallet.sol\":391:424  Transaction[] public transactions */\n    tag_10:\n      tag_41\n      0x04\n      dup1\n      calldatasize\n      sub\n      dup2\n      add\n      swap1\n      tag_42\n      swap2\n      swap1\n      tag_15\n      jump\t// in\n    tag_42:\n      tag_43\n      jump\t// in\n    tag_41:\n      mload(0x40)\n      tag_44\n      swap6\n      swap5\n      swap4\n      swap3\n      swap2\n      swap1\n      tag_45\n      jump\t// in\n    tag_44:\n      mload(0x40)\n      dup1\n      swap2\n      sub\n      swap1\n      return\n        /* \"contracts/wallet.sol\":2658:3135  function submitTransaction(address to, uint256 value, bytes memory data) external onlyOwner {... */\n    tag_11:\n      tag_46\n      0x04\n      dup1\n      calldatasize\n      sub\n      dup2\n      add\n      swap1\n      tag_47\n      swap2\n      swap1\n      tag_48\n      jump\t// in\n    tag_47:\n      tag_49\n      jump\t// in\n    tag_46:\n      stop\n        /* \"contracts/wallet.sol\":93:116  address[] public owners */\n    tag_16:\n      0x00\n      dup2\n      dup2\n      sload\n      dup2\n      lt\n      tag_50\n      jumpi\n      0x00\n      dup1\n      revert\n    tag_50:\n      swap1\n      0x00\n      mstore\n      keccak256(0x00, 0x20)\n      add\n      0x00\n      swap2\n      pop\n      sload\n      swap1\n      0x0100\n      exp\n      swap1\n      div\n      0xffffffffffffffffffffffffffffffffffffffff\n      and\n      dup2\n      jump\t// out\n        /* \"contracts/wallet.sol\":2131:2653  function removeOwner(address ownerToRemove) external onlyOwner {... */\n    tag_22:\n        /* \"contracts/wallet.sol\":858:865  isOwner */\n      0x01\n        /* \"contracts/wallet.sol\":858:877  isOwner[msg.sender] */\n      0x00\n        /* \"contracts/wallet.sol\":866:876  msg.sender */\n      caller\n        /* \"contracts/wallet.sol\":858:877  isOwner[msg.sender] */\n      0xffffffffffffffffffffffffffffffffffffffff\n      and\n      0xffffffffffffffffffffffffffffffffffffffff\n      and\n      dup2\n      mstore\n      0x20\n      add\n      swap1\n      dup2\n      mstore\n      0x20\n      add\n      0x00\n      keccak256\n      0x00\n      swap1\n      sload\n      swap1\n      0x0100\n      exp\n      swap1\n      div\n      0xff\n      and\n        /* \"contracts/wallet.sol\":850:894  require(isOwner[msg.sender], \"Not an owner\") */\n      tag_53\n      jumpi\n      mload(0x40)\n      0x08c379a000000000000000000000000000000000000000000000000000000000\n      dup2\n      mstore\n      0x04\n      add\n      tag_54\n      swap1\n      tag_55\n      jump\t// in\n    tag_54:\n      mload(0x40)\n      dup1\n      swap2\n      sub\n      swap1\n      revert\n    tag_53:\n        /* \"contracts/wallet.sol\":2212:2219  isOwner */\n      0x01\n        /* \"contracts/wallet.sol\":2212:2234  isOwner[ownerToRemove] */\n      0x00\n        /* \"contracts/wallet.sol\":2220:2233  ownerToRemove */\n      dup3\n        /* \"contracts/wallet.sol\":2212:2234  isOwner[ownerToRemove] */\n      0xffffffffffffffffffffffffffffffffffffffff\n      and\n      0xffffffffffffffffffffffffffffffffffffffff\n      and\n      dup2\n      mstore\n      0x20\n      add\n      swap1\n      dup2\n      mstore\n      0x20\n      add\n      0x00\n      keccak256\n      0x00\n      swap1\n      sload\n      swap1\n      0x0100\n      exp\n      swap1\n      div\n      0xff\n      and\n        /* \"contracts/wallet.sol\":2204:2251  require(isOwner[ownerToRemove], \"Not an owner\") */\n      tag_57\n      jumpi\n      mload(0x40)\n      0x08c379a000000000000000000000000000000000000000000000000000000000\n      dup2\n      mstore\n      0x04\n      add\n      tag_58\n      swap1\n      tag_55\n      jump\t// in\n    tag_58:\n      mload(0x40)\n      dup1\n      swap2\n      sub\n      swap1\n      revert\n    tag_57:\n        /* \"contracts/wallet.sol\":2285:2286  1 */\n      0x01\n        /* \"contracts/wallet.sol\":2269:2275  owners */\n      0x00\n        /* \"contracts/wallet.sol\":2269:2282  owners.length */\n      dup1\n      sload\n      swap1\n      pop\n        /* \"contracts/wallet.sol\":2269:2286  owners.length > 1 */\n      gt\n        /* \"contracts/wallet.sol\":2261:2319  require(owners.length > 1, \"Cannot remove the last owner\") */\n      tag_59\n      jumpi\n      mload(0x40)\n      0x08c379a000000000000000000000000000000000000000000000000000000000\n      dup2\n      mstore\n      0x04\n      add\n      tag_60\n      swap1\n      tag_61\n      jump\t// in\n    tag_60:\n      mload(0x40)\n      dup1\n      swap2\n      sub\n      swap1\n      revert\n    tag_59:\n        /* \"contracts/wallet.sol\":2354:2359  false */\n      0x00\n        /* \"contracts/wallet.sol\":2329:2336  isOwner */\n      0x01\n        /* \"contracts/wallet.sol\":2329:2351  isOwner[ownerToRemove] */\n      0x00\n        /* \"contracts/wallet.sol\":2337:2350  ownerToRemove */\n      dup4\n        /* \"contracts/wallet.sol\":2329:2351  isOwner[ownerToRemove] */\n      0xffffffffffffffffffffffffffffffffffffffff\n      and\n      0xffffffffffffffffffffffffffffffffffffffff\n      and\n      dup2\n      mstore\n      0x20\n      add\n      swap1\n      dup2\n      mstore\n      0x20\n      add\n      0x00\n      keccak256\n      0x00\n        /* \"contracts/wallet.sol\":2329:2359  isOwner[ownerToRemove] = false */\n      0x0100\n      exp\n      dup2\n      sload\n      dup2\n      0xff\n      mul\n      not\n      and\n      swap1\n      dup4\n      iszero\n      iszero\n      mul\n      or\n      swap1\n      sstore\n      pop\n        /* \"contracts/wallet.sol\":2375:2384  uint256 i */\n      0x00\n        /* \"contracts/wallet.sol\":2370:2647  for (uint256 i = 0; i < owners.length; i++) {... */\n    tag_62:\n        /* \"contracts/wallet.sol\":2394:2400  owners */\n      0x00\n        /* \"contracts/wallet.sol\":2394:2407  owners.length */\n      dup1\n      sload\n      swap1\n      pop\n        /* \"contracts/wallet.sol\":2390:2391  i */\n      dup2\n        /* \"contracts/wallet.sol\":2390:2407  i < owners.length */\n      lt\n        /* \"contracts/wallet.sol\":2370:2647  for (uint256 i = 0; i < owners.length; i++) {... */\n      iszero\n      tag_63\n      jumpi\n        /* \"contracts/wallet.sol\":2445:2458  ownerToRemove */\n      dup2\n        /* \"contracts/wallet.sol\":2432:2458  owners[i] == ownerToRemove */\n      0xffffffffffffffffffffffffffffffffffffffff\n      and\n        /* \"contracts/wallet.sol\":2432:2438  owners */\n      0x00\n        /* \"contracts/wallet.sol\":2439:2440  i */\n      dup3\n        /* \"contracts/wallet.sol\":2432:2441  owners[i] */\n      dup2\n      sload\n      dup2\n      lt\n      tag_65\n      jumpi\n      tag_66\n      tag_67\n      jump\t// in\n    tag_66:\n    tag_65:\n      swap1\n      0x00\n      mstore\n      keccak256(0x00, 0x20)\n      add\n      0x00\n      swap1\n      sload\n      swap1\n      0x0100\n      exp\n      swap1\n      div\n      0xffffffffffffffffffffffffffffffffffffffff\n      and\n        /* \"contracts/wallet.sol\":2432:2458  owners[i] == ownerToRemove */\n      0xffffffffffffffffffffffffffffffffffffffff\n      and\n      sub\n        /* \"contracts/wallet.sol\":2428:2637  if (owners[i] == ownerToRemove) {... */\n      tag_69\n      jumpi\n        /* \"contracts/wallet.sol\":2490:2496  owners */\n      0x00\n        /* \"contracts/wallet.sol\":2513:2514  1 */\n      0x01\n        /* \"contracts/wallet.sol\":2497:2503  owners */\n      0x00\n        /* \"contracts/wallet.sol\":2497:2510  owners.length */\n      dup1\n      sload\n      swap1\n      pop\n        /* \"contracts/wallet.sol\":2497:2514  owners.length - 1 */\n      tag_70\n      swap2\n      swap1\n      tag_71\n      jump\t// in\n    tag_70:\n        /* \"contracts/wallet.sol\":2490:2515  owners[owners.length - 1] */\n      dup2\n      sload\n      dup2\n      lt\n      tag_72\n      jumpi\n      tag_73\n      tag_67\n      jump\t// in\n    tag_73:\n    tag_72:\n      swap1\n      0x00\n      mstore\n      keccak256(0x00, 0x20)\n      add\n      0x00\n      swap1\n      sload\n      swap1\n      0x0100\n      exp\n      swap1\n      div\n      0xffffffffffffffffffffffffffffffffffffffff\n      and\n        /* \"contracts/wallet.sol\":2478:2484  owners */\n      0x00\n        /* \"contracts/wallet.sol\":2485:2486  i */\n      dup3\n        /* \"contracts/wallet.sol\":2478:2487  owners[i] */\n      dup2\n      sload\n      dup2\n      lt\n      tag_75\n      jumpi\n      tag_76\n      tag_67\n      jump\t// in\n    tag_76:\n    tag_75:\n      swap1\n      0x00\n      mstore\n      keccak256(0x00, 0x20)\n      add\n      0x00\n        /* \"contracts/wallet.sol\":2478:2515  owners[i] = owners[owners.length - 1] */\n      0x0100\n      exp\n      dup2\n      sload\n      dup2\n      0xffffffffffffffffffffffffffffffffffffffff\n      mul\n      not\n      and\n      swap1\n      dup4\n      0xffffffffffffffffffffffffffffffffffffffff\n      and\n      mul\n      or\n      swap1\n      sstore\n      pop\n        /* \"contracts/wallet.sol\":2533:2539  owners */\n      0x00\n        /* \"contracts/wallet.sol\":2533:2545  owners.pop() */\n      dup1\n      sload\n      dup1\n      tag_78\n      jumpi\n      tag_79\n      tag_80\n      jump\t// in\n    tag_79:\n    tag_78:\n      0x01\n      swap1\n      sub\n      dup2\n      dup2\n      swap1\n      0x00\n      mstore\n      keccak256(0x00, 0x20)\n      add\n      exp(0x0100, 0x00)\n      dup2\n      sload\n      swap1\n      0xffffffffffffffffffffffffffffffffffffffff\n      mul\n      not\n      and\n      swap1\n      sstore\n      swap1\n      sstore\n        /* \"contracts/wallet.sol\":2568:2599  OwnershipRemoved(ownerToRemove) */\n      0x86d076ecf250a6d90a67a7c75317f44709d5001395ecf1df6d9dad5278f1e681\n        /* \"contracts/wallet.sol\":2585:2598  ownerToRemove */\n      dup3\n        /* \"contracts/wallet.sol\":2568:2599  OwnershipRemoved(ownerToRemove) */\n      mload(0x40)\n      tag_82\n      swap2\n      swap1\n      tag_18\n      jump\t// in\n    tag_82:\n      mload(0x40)\n      dup1\n      swap2\n      sub\n      swap1\n      log1\n        /* \"contracts/wallet.sol\":2617:2622  break */\n      jump(tag_63)\n        /* \"contracts/wallet.sol\":2428:2637  if (owners[i] == ownerToRemove) {... */\n    tag_69:\n        /* \"contracts/wallet.sol\":2409:2412  i++ */\n      dup1\n      dup1\n      0x01\n      add\n      swap2\n      pop\n      pop\n        /* \"contracts/wallet.sol\":2370:2647  for (uint256 i = 0; i < owners.length; i++) {... */\n      jump(tag_62)\n    tag_63:\n      pop\n        /* \"contracts/wallet.sol\":2131:2653  function removeOwner(address ownerToRemove) external onlyOwner {... */\n      pop\n      jump\t// out\n        /* \"contracts/wallet.sol\":3142:3615  function approveTransaction(uint256 transactionId) external onlyOwner transactionExists(transactionId) notExecuted(transactionId) notApproved(transactionId) {... */\n    tag_25:\n        /* \"contracts/wallet.sol\":858:865  isOwner */\n      0x01\n        /* \"contracts/wallet.sol\":858:877  isOwner[msg.sender] */\n      0x00\n        /* \"contracts/wallet.sol\":866:876  msg.sender */\n      caller\n        /* \"contracts/wallet.sol\":858:877  isOwner[msg.sender] */\n      0xffffffffffffffffffffffffffffffffffffffff\n      and\n      0xffffffffffffffffffffffffffffffffffffffff\n      and\n      dup2\n      mstore\n      0x20\n      add\n      swap1\n      dup2\n      mstore\n      0x20\n      add\n      0x00\n      keccak256\n      0x00\n      swap1\n      sload\n      swap1\n      0x0100\n      exp\n      swap1\n      div\n      0xff\n      and\n        /* \"contracts/wallet.sol\":850:894  require(isOwner[msg.sender], \"Not an owner\") */\n      tag_84\n      jumpi\n      mload(0x40)\n      0x08c379a000000000000000000000000000000000000000000000000000000000\n      dup2\n      mstore\n      0x04\n      add\n      tag_85\n      swap1\n      tag_55\n      jump\t// in\n    tag_85:\n      mload(0x40)\n      dup1\n      swap2\n      sub\n      swap1\n      revert\n    tag_84:\n        /* \"contracts/wallet.sol\":3230:3243  transactionId */\n      dup1\n        /* \"contracts/wallet.sol\":1002:1014  transactions */\n      0x03\n        /* \"contracts/wallet.sol\":1002:1021  transactions.length */\n      dup1\n      sload\n      swap1\n      pop\n        /* \"contracts/wallet.sol\":986:999  transactionId */\n      dup2\n        /* \"contracts/wallet.sol\":986:1021  transactionId < transactions.length */\n      lt\n        /* \"contracts/wallet.sol\":978:1052  require(transactionId < transactions.length, \"Transaction does not exist\") */\n      tag_87\n      jumpi\n      mload(0x40)\n      0x08c379a000000000000000000000000000000000000000000000000000000000\n      dup2\n      mstore\n      0x04\n      add\n      tag_88\n      swap1\n      tag_89\n      jump\t// in\n    tag_88:\n      mload(0x40)\n      dup1\n      swap2\n      sub\n      swap1\n      revert\n    tag_87:\n        /* \"contracts/wallet.sol\":3257:3270  transactionId */\n      dup2\n        /* \"contracts/wallet.sol\":1139:1151  transactions */\n      0x03\n        /* \"contracts/wallet.sol\":1152:1165  transactionId */\n      dup2\n        /* \"contracts/wallet.sol\":1139:1166  transactions[transactionId] */\n      dup2\n      sload\n      dup2\n      lt\n      tag_91\n      jumpi\n      tag_92\n      tag_67\n      jump\t// in\n    tag_92:\n    tag_91:\n      swap1\n      0x00\n      mstore\n      keccak256(0x00, 0x20)\n      swap1\n      0x06\n      mul\n      add\n        /* \"contracts/wallet.sol\":1139:1175  transactions[transactionId].executed */\n      0x03\n      add\n      0x00\n      swap1\n      sload\n      swap1\n      0x0100\n      exp\n      swap1\n      div\n      0xff\n      and\n        /* \"contracts/wallet.sol\":1138:1175  !transactions[transactionId].executed */\n      iszero\n        /* \"contracts/wallet.sol\":1130:1208  require(!transactions[transactionId].executed, \"Transaction already executed\") */\n      tag_94\n      jumpi\n      mload(0x40)\n      0x08c379a000000000000000000000000000000000000000000000000000000000\n      dup2\n      mstore\n      0x04\n      add\n      tag_95\n      swap1\n      tag_96\n      jump\t// in\n    tag_95:\n      mload(0x40)\n      dup1\n      swap2\n      sub\n      swap1\n      revert\n    tag_94:\n        /* \"contracts/wallet.sol\":3284:3297  transactionId */\n      dup3\n        /* \"contracts/wallet.sol\":1295:1307  transactions */\n      0x03\n        /* \"contracts/wallet.sol\":1308:1321  transactionId */\n      dup2\n        /* \"contracts/wallet.sol\":1295:1322  transactions[transactionId] */\n      dup2\n      sload\n      dup2\n      lt\n      tag_98\n      jumpi\n      tag_99\n      tag_67\n      jump\t// in\n    tag_99:\n    tag_98:\n      swap1\n      0x00\n      mstore\n      keccak256(0x00, 0x20)\n      swap1\n      0x06\n      mul\n      add\n        /* \"contracts/wallet.sol\":1295:1332  transactions[transactionId].approvals */\n      0x04\n      add\n        /* \"contracts/wallet.sol\":1295:1344  transactions[transactionId].approvals[msg.sender] */\n      0x00\n        /* \"contracts/wallet.sol\":1333:1343  msg.sender */\n      caller\n        /* \"contracts/wallet.sol\":1295:1344  transactions[transactionId].approvals[msg.sender] */\n      0xffffffffffffffffffffffffffffffffffffffff\n      and\n      0xffffffffffffffffffffffffffffffffffffffff\n      and\n      dup2\n      mstore\n      0x20\n      add\n      swap1\n      dup2\n      mstore\n      0x20\n      add\n      0x00\n      keccak256\n      0x00\n      swap1\n      sload\n      swap1\n      0x0100\n      exp\n      swap1\n      div\n      0xff\n      and\n        /* \"contracts/wallet.sol\":1294:1344  !transactions[transactionId].approvals[msg.sender] */\n      iszero\n        /* \"contracts/wallet.sol\":1286:1391  require(!transactions[transactionId].approvals[msg.sender], \"Transaction already approved by this owner\") */\n      tag_101\n      jumpi\n      mload(0x40)\n      0x08c379a000000000000000000000000000000000000000000000000000000000\n      dup2\n      mstore\n      0x04\n      add\n      tag_102\n      swap1\n      tag_103\n      jump\t// in\n    tag_102:\n      mload(0x40)\n      dup1\n      swap2\n      sub\n      swap1\n      revert\n    tag_101:\n        /* \"contracts/wallet.sol\":3361:3365  true */\n      0x01\n        /* \"contracts/wallet.sol\":3309:3321  transactions */\n      0x03\n        /* \"contracts/wallet.sol\":3322:3335  transactionId */\n      dup6\n        /* \"contracts/wallet.sol\":3309:3336  transactions[transactionId] */\n      dup2\n      sload\n      dup2\n      lt\n      tag_105\n      jumpi\n      tag_106\n      tag_67\n      jump\t// in\n    tag_106:\n    tag_105:\n      swap1\n      0x00\n      mstore\n      keccak256(0x00, 0x20)\n      swap1\n      0x06\n      mul\n      add\n        /* \"contracts/wallet.sol\":3309:3346  transactions[transactionId].approvals */\n      0x04\n      add\n        /* \"contracts/wallet.sol\":3309:3358  transactions[transactionId].approvals[msg.sender] */\n      0x00\n        /* \"contracts/wallet.sol\":3347:3357  msg.sender */\n      caller\n        /* \"contracts/wallet.sol\":3309:3358  transactions[transactionId].approvals[msg.sender] */\n      0xffffffffffffffffffffffffffffffffffffffff\n      and\n      0xffffffffffffffffffffffffffffffffffffffff\n      and\n      dup2\n      mstore\n      0x20\n      add\n      swap1\n      dup2\n      mstore\n      0x20\n      add\n      0x00\n      keccak256\n      0x00\n        /* \"contracts/wallet.sol\":3309:3365  transactions[transactionId].approvals[msg.sender] = true */\n      0x0100\n      exp\n      dup2\n      sload\n      dup2\n      0xff\n      mul\n      not\n      and\n      swap1\n      dup4\n      iszero\n      iszero\n      mul\n      or\n      swap1\n      sstore\n      pop\n        /* \"contracts/wallet.sol\":3375:3387  transactions */\n      0x03\n        /* \"contracts/wallet.sol\":3388:3401  transactionId */\n      dup5\n        /* \"contracts/wallet.sol\":3375:3402  transactions[transactionId] */\n      dup2\n      sload\n      dup2\n      lt\n      tag_108\n      jumpi\n      tag_109\n      tag_67\n      jump\t// in\n    tag_109:\n    tag_108:\n      swap1\n      0x00\n      mstore\n      keccak256(0x00, 0x20)\n      swap1\n      0x06\n      mul\n      add\n        /* \"contracts/wallet.sol\":3375:3416  transactions[transactionId].approvalCount */\n      0x05\n      add\n      0x00\n        /* \"contracts/wallet.sol\":3375:3418  transactions[transactionId].approvalCount++ */\n      dup2\n      sload\n      dup1\n      swap3\n      swap2\n      swap1\n      tag_111\n      swap1\n      tag_112\n      jump\t// in\n    tag_111:\n      swap2\n      swap1\n      pop\n      sstore\n      pop\n        /* \"contracts/wallet.sol\":3434:3480  TransactionApproved(transactionId, msg.sender) */\n      0x924813d717e221b5f46dcd8a56da1679e4612584ab3237d55e5faabf6f6a3079\n        /* \"contracts/wallet.sol\":3454:3467  transactionId */\n      dup5\n        /* \"contracts/wallet.sol\":3469:3479  msg.sender */\n      caller\n        /* \"contracts/wallet.sol\":3434:3480  TransactionApproved(transactionId, msg.sender) */\n      mload(0x40)\n      tag_113\n      swap3\n      swap2\n      swap1\n      tag_114\n      jump\t// in\n    tag_113:\n      mload(0x40)\n      dup1\n      swap2\n      sub\n      swap1\n      log1\n        /* \"contracts/wallet.sol\":3540:3549  threshold */\n      sload(0x02)\n        /* \"contracts/wallet.sol\":3495:3507  transactions */\n      0x03\n        /* \"contracts/wallet.sol\":3508:3521  transactionId */\n      dup6\n        /* \"contracts/wallet.sol\":3495:3522  transactions[transactionId] */\n      dup2\n      sload\n      dup2\n      lt\n      tag_115\n      jumpi\n      tag_116\n      tag_67\n      jump\t// in\n    tag_116:\n    tag_115:\n      swap1\n      0x00\n      mstore\n      keccak256(0x00, 0x20)\n      swap1\n      0x06\n      mul\n      add\n        /* \"contracts/wallet.sol\":3495:3536  transactions[transactionId].approvalCount */\n      0x05\n      add\n      sload\n        /* \"contracts/wallet.sol\":3495:3549  transactions[transactionId].approvalCount >= threshold */\n      lt\n        /* \"contracts/wallet.sol\":3491:3609  if (transactions[transactionId].approvalCount >= threshold) {... */\n      tag_118\n      jumpi\n        /* \"contracts/wallet.sol\":3565:3598  executeTransaction(transactionId) */\n      tag_119\n        /* \"contracts/wallet.sol\":3584:3597  transactionId */\n      dup5\n        /* \"contracts/wallet.sol\":3565:3583  executeTransaction */\n      tag_120\n        /* \"contracts/wallet.sol\":3565:3598  executeTransaction(transactionId) */\n      jump\t// in\n    tag_119:\n        /* \"contracts/wallet.sol\":3491:3609  if (transactions[transactionId].approvalCount >= threshold) {... */\n    tag_118:\n        /* \"contracts/wallet.sol\":1218:1219  _ */\n      pop\n        /* \"contracts/wallet.sol\":1062:1063  _ */\n      pop\n        /* \"contracts/wallet.sol\":904:905  _ */\n      pop\n        /* \"contracts/wallet.sol\":3142:3615  function approveTransaction(uint256 transactionId) external onlyOwner transactionExists(transactionId) notExecuted(transactionId) notApproved(transactionId) {... */\n      pop\n      jump\t// out\n        /* \"contracts/wallet.sol\":122:161  mapping(address => bool) public isOwner */\n    tag_28:\n      mstore(0x20, 0x01)\n      dup1\n      0x00\n      mstore\n      keccak256(0x00, 0x40)\n      0x00\n      swap2\n      pop\n      sload\n      swap1\n      0x0100\n      exp\n      swap1\n      div\n      0xff\n      and\n      dup2\n      jump\t// out\n        /* \"contracts/wallet.sol\":3621:3860  function cancelTransaction(uint256 transactionId) external onlyOwner transactionExists(transactionId) notExecuted(transactionId) {... */\n    tag_33:\n        /* \"contracts/wallet.sol\":858:865  isOwner */\n      0x01\n        /* \"contracts/wallet.sol\":858:877  isOwner[msg.sender] */\n      0x00\n        /* \"contracts/wallet.sol\":866:876  msg.sender */\n      caller\n        /* \"contracts/wallet.sol\":858:877  isOwner[msg.sender] */\n      0xffffffffffffffffffffffffffffffffffffffff\n      and\n      0xffffffffffffffffffffffffffffffffffffffff\n      and\n      dup2\n      mstore\n      0x20\n      add\n      swap1\n      dup2\n      mstore\n      0x20\n      add\n      0x00\n      keccak256\n      0x00\n      swap1\n      sload\n      swap1\n      0x0100\n      exp\n      swap1\n      div\n      0xff\n      and\n        /* \"contracts/wallet.sol\":850:894  require(isOwner[msg.sender], \"Not an owner\") */\n      tag_122\n      jumpi\n      mload(0x40)\n      0x08c379a000000000000000000000000000000000000000000000000000000000\n      dup2\n      mstore\n      0x04\n      add\n      tag_123\n      swap1\n      tag_55\n      jump\t// in\n    tag_123:\n      mload(0x40)\n      dup1\n      swap2\n      sub\n      swap1\n      revert\n    tag_122:\n        /* \"contracts/wallet.sol\":3708:3721  transactionId */\n      dup1\n        /* \"contracts/wallet.sol\":1002:1014  transactions */\n      0x03\n        /* \"contracts/wallet.sol\":1002:1021  transactions.length */\n      dup1\n      sload\n      swap1\n      pop\n        /* \"contracts/wallet.sol\":986:999  transactionId */\n      dup2\n        /* \"contracts/wallet.sol\":986:1021  transactionId < transactions.length */\n      lt\n        /* \"contracts/wallet.sol\":978:1052  require(transactionId < transactions.length, \"Transaction does not exist\") */\n      tag_125\n      jumpi\n      mload(0x40)\n      0x08c379a000000000000000000000000000000000000000000000000000000000\n      dup2\n      mstore\n      0x04\n      add\n      tag_126\n      swap1\n      tag_89\n      jump\t// in\n    tag_126:\n      mload(0x40)\n      dup1\n      swap2\n      sub\n      swap1\n      revert\n    tag_125:\n        /* \"contracts/wallet.sol\":3735:3748  transactionId */\n      dup2\n        /* \"contracts/wallet.sol\":1139:1151  transactions */\n      0x03\n        /* \"contracts/wallet.sol\":1152:1165  transactionId */\n      dup2\n        /* \"contracts/wallet.sol\":1139:1166  transactions[transactionId] */\n      dup2\n      sload\n      dup2\n      lt\n      tag_128\n      jumpi\n      tag_129\n      tag_67\n      jump\t// in\n    tag_129:\n    tag_128:\n      swap1\n      0x00\n      mstore\n      keccak256(0x00, 0x20)\n      swap1\n      0x06\n      mul\n      add\n        /* \"contracts/wallet.sol\":1139:1175  transactions[transactionId].executed */\n      0x03\n      add\n      0x00\n      swap1\n      sload\n      swap1\n      0x0100\n      exp\n      swap1\n      div\n      0xff\n      and\n        /* \"contracts/wallet.sol\":1138:1175  !transactions[transactionId].executed */\n      iszero\n        /* \"contracts/wallet.sol\":1130:1208  require(!transactions[transactionId].executed, \"Transaction already executed\") */\n      tag_131\n      jumpi\n      mload(0x40)\n      0x08c379a000000000000000000000000000000000000000000000000000000000\n      dup2\n      mstore\n      0x04\n      add\n      tag_132\n      swap1\n      tag_96\n      jump\t// in\n    tag_132:\n      mload(0x40)\n      dup1\n      swap2\n      sub\n      swap1\n      revert\n    tag_131:\n        /* \"contracts/wallet.sol\":3799:3803  true */\n      0x01\n        /* \"contracts/wallet.sol\":3760:3772  transactions */\n      0x03\n        /* \"contracts/wallet.sol\":3773:3786  transactionId */\n      dup5\n        /* \"contracts/wallet.sol\":3760:3787  transactions[transactionId] */\n      dup2\n      sload\n      dup2\n      lt\n      tag_134\n      jumpi\n      tag_135\n      tag_67\n      jump\t// in\n    tag_135:\n    tag_134:\n      swap1\n      0x00\n      mstore\n      keccak256(0x00, 0x20)\n      swap1\n      0x06\n      mul\n      add\n        /* \"contracts/wallet.sol\":3760:3796  transactions[transactionId].executed */\n      0x03\n      add\n      0x00\n        /* \"contracts/wallet.sol\":3760:3803  transactions[transactionId].executed = true */\n      0x0100\n      exp\n      dup2\n      sload\n      dup2\n      0xff\n      mul\n      not\n      and\n      swap1\n      dup4\n      iszero\n      iszero\n      mul\n      or\n      swap1\n      sstore\n      pop\n        /* \"contracts/wallet.sol\":3818:3853  TransactionCancelled(transactionId) */\n      0x956fb32199d8b882b2039a14e1be35ab14f7a80b9089fc223f14b43937173e60\n        /* \"contracts/wallet.sol\":3839:3852  transactionId */\n      dup4\n        /* \"contracts/wallet.sol\":3818:3853  TransactionCancelled(transactionId) */\n      mload(0x40)\n      tag_137\n      swap2\n      swap1\n      tag_37\n      jump\t// in\n    tag_137:\n      mload(0x40)\n      dup1\n      swap2\n      sub\n      swap1\n      log1\n        /* \"contracts/wallet.sol\":1062:1063  _ */\n      pop\n        /* \"contracts/wallet.sol\":904:905  _ */\n      pop\n        /* \"contracts/wallet.sol\":3621:3860  function cancelTransaction(uint256 transactionId) external onlyOwner transactionExists(transactionId) notExecuted(transactionId) {... */\n      pop\n      jump\t// out\n        /* \"contracts/wallet.sol\":167:191  uint256 public threshold */\n    tag_35:\n      sload(0x02)\n      dup2\n      jump\t// out\n        /* \"contracts/wallet.sol\":1879:2125  function addOwner(address newOwner) external onlyOwner {... */\n    tag_40:\n        /* \"contracts/wallet.sol\":858:865  isOwner */\n      0x01\n        /* \"contracts/wallet.sol\":858:877  isOwner[msg.sender] */\n      0x00\n        /* \"contracts/wallet.sol\":866:876  msg.sender */\n      caller\n        /* \"contracts/wallet.sol\":858:877  isOwner[msg.sender] */\n      0xffffffffffffffffffffffffffffffffffffffff\n      and\n      0xffffffffffffffffffffffffffffffffffffffff\n      and\n      dup2\n      mstore\n      0x20\n      add\n      swap1\n      dup2\n      mstore\n      0x20\n      add\n      0x00\n      keccak256\n      0x00\n      swap1\n      sload\n      swap1\n      0x0100\n      exp\n      swap1\n      div\n      0xff\n      and\n        /* \"contracts/wallet.sol\":850:894  require(isOwner[msg.sender], \"Not an owner\") */\n      tag_139\n      jumpi\n      mload(0x40)\n      0x08c379a000000000000000000000000000000000000000000000000000000000\n      dup2\n      mstore\n      0x04\n      add\n      tag_140\n      swap1\n      tag_55\n      jump\t// in\n    tag_140:\n      mload(0x40)\n      dup1\n      swap2\n      sub\n      swap1\n      revert\n    tag_139:\n        /* \"contracts/wallet.sol\":1972:1973  0 */\n      0x00\n        /* \"contracts/wallet.sol\":1952:1974  newOwner != address(0) */\n      0xffffffffffffffffffffffffffffffffffffffff\n      and\n        /* \"contracts/wallet.sol\":1952:1960  newOwner */\n      dup2\n        /* \"contracts/wallet.sol\":1952:1974  newOwner != address(0) */\n      0xffffffffffffffffffffffffffffffffffffffff\n      and\n      eq\n      iszero\n        /* \"contracts/wallet.sol\":1952:1996  newOwner != address(0) && !isOwner[newOwner] */\n      dup1\n      iszero\n      tag_142\n      jumpi\n      pop\n        /* \"contracts/wallet.sol\":1979:1986  isOwner */\n      0x01\n        /* \"contracts/wallet.sol\":1979:1996  isOwner[newOwner] */\n      0x00\n        /* \"contracts/wallet.sol\":1987:1995  newOwner */\n      dup3\n        /* \"contracts/wallet.sol\":1979:1996  isOwner[newOwner] */\n      0xffffffffffffffffffffffffffffffffffffffff\n      and\n      0xffffffffffffffffffffffffffffffffffffffff\n      and\n      dup2\n      mstore\n      0x20\n      add\n      swap1\n      dup2\n      mstore\n      0x20\n      add\n      0x00\n      keccak256\n      0x00\n      swap1\n      sload\n      swap1\n      0x0100\n      exp\n      swap1\n      div\n      0xff\n      and\n        /* \"contracts/wallet.sol\":1978:1996  !isOwner[newOwner] */\n      iszero\n        /* \"contracts/wallet.sol\":1952:1996  newOwner != address(0) && !isOwner[newOwner] */\n    tag_142:\n        /* \"contracts/wallet.sol\":1944:2014  require(newOwner != address(0) && !isOwner[newOwner], \"Invalid owner\") */\n      tag_143\n      jumpi\n      mload(0x40)\n      0x08c379a000000000000000000000000000000000000000000000000000000000\n      dup2\n      mstore\n      0x04\n      add\n      tag_144\n      swap1\n      tag_145\n      jump\t// in\n    tag_144:\n      mload(0x40)\n      dup1\n      swap2\n      sub\n      swap1\n      revert\n    tag_143:\n        /* \"contracts/wallet.sol\":2044:2048  true */\n      0x01\n        /* \"contracts/wallet.sol\":2024:2031  isOwner */\n      dup1\n        /* \"contracts/wallet.sol\":2024:2041  isOwner[newOwner] */\n      0x00\n        /* \"contracts/wallet.sol\":2032:2040  newOwner */\n      dup4\n        /* \"contracts/wallet.sol\":2024:2041  isOwner[newOwner] */\n      0xffffffffffffffffffffffffffffffffffffffff\n      and\n      0xffffffffffffffffffffffffffffffffffffffff\n      and\n      dup2\n      mstore\n      0x20\n      add\n      swap1\n      dup2\n      mstore\n      0x20\n      add\n      0x00\n      keccak256\n      0x00\n        /* \"contracts/wallet.sol\":2024:2048  isOwner[newOwner] = true */\n      0x0100\n      exp\n      dup2\n      sload\n      dup2\n      0xff\n      mul\n      not\n      and\n      swap1\n      dup4\n      iszero\n      iszero\n      mul\n      or\n      swap1\n      sstore\n      pop\n        /* \"contracts/wallet.sol\":2058:2064  owners */\n      0x00\n        /* \"contracts/wallet.sol\":2070:2078  newOwner */\n      dup2\n        /* \"contracts/wallet.sol\":2058:2079  owners.push(newOwner) */\n      swap1\n      dup1\n      0x01\n      dup2\n      sload\n      add\n      dup1\n      dup3\n      sstore\n      dup1\n      swap2\n      pop\n      pop\n      0x01\n      swap1\n      sub\n      swap1\n      0x00\n      mstore\n      keccak256(0x00, 0x20)\n      add\n      0x00\n      swap1\n      swap2\n      swap1\n      swap2\n      swap1\n      swap2\n      0x0100\n      exp\n      dup2\n      sload\n      dup2\n      0xffffffffffffffffffffffffffffffffffffffff\n      mul\n      not\n      and\n      swap1\n      dup4\n      0xffffffffffffffffffffffffffffffffffffffff\n      and\n      mul\n      or\n      swap1\n      sstore\n      pop\n        /* \"contracts/wallet.sol\":2094:2118  OwnershipAdded(newOwner) */\n      0xb4cd6c6140e1db788f68710738b06ef4d0df6a884a06a088433a4c2f5e036e7c\n        /* \"contracts/wallet.sol\":2109:2117  newOwner */\n      dup2\n        /* \"contracts/wallet.sol\":2094:2118  OwnershipAdded(newOwner) */\n      mload(0x40)\n      tag_147\n      swap2\n      swap1\n      tag_18\n      jump\t// in\n    tag_147:\n      mload(0x40)\n      dup1\n      swap2\n      sub\n      swap1\n      log1\n        /* \"contracts/wallet.sol\":1879:2125  function addOwner(address newOwner) external onlyOwner {... */\n      pop\n      jump\t// out\n        /* \"contracts/wallet.sol\":391:424  Transaction[] public transactions */\n    tag_43:\n      0x03\n      dup2\n      dup2\n      sload\n      dup2\n      lt\n      tag_148\n      jumpi\n      0x00\n      dup1\n      revert\n    tag_148:\n      swap1\n      0x00\n      mstore\n      keccak256(0x00, 0x20)\n      swap1\n      0x06\n      mul\n      add\n      0x00\n      swap2\n      pop\n      swap1\n      pop\n      dup1\n      0x00\n      add\n      0x00\n      swap1\n      sload\n      swap1\n      0x0100\n      exp\n      swap1\n      div\n      0xffffffffffffffffffffffffffffffffffffffff\n      and\n      swap1\n      dup1\n      0x01\n      add\n      sload\n      swap1\n      dup1\n      0x02\n      add\n      dup1\n      sload\n      tag_150\n      swap1\n      tag_151\n      jump\t// in\n    tag_150:\n      dup1\n      0x1f\n      add\n      0x20\n      dup1\n      swap2\n      div\n      mul\n      0x20\n      add\n      mload(0x40)\n      swap1\n      dup2\n      add\n      0x40\n      mstore\n      dup1\n      swap3\n      swap2\n      swap1\n      dup2\n      dup2\n      mstore\n      0x20\n      add\n      dup3\n      dup1\n      sload\n      tag_152\n      swap1\n      tag_151\n      jump\t// in\n    tag_152:\n      dup1\n      iszero\n      tag_153\n      jumpi\n      dup1\n      0x1f\n      lt\n      tag_154\n      jumpi\n      0x0100\n      dup1\n      dup4\n      sload\n      div\n      mul\n      dup4\n      mstore\n      swap2\n      0x20\n      add\n      swap2\n      jump(tag_153)\n    tag_154:\n      dup3\n      add\n      swap2\n      swap1\n      0x00\n      mstore\n      keccak256(0x00, 0x20)\n      swap1\n    tag_155:\n      dup2\n      sload\n      dup2\n      mstore\n      swap1\n      0x01\n      add\n      swap1\n      0x20\n      add\n      dup1\n      dup4\n      gt\n      tag_155\n      jumpi\n      dup3\n      swap1\n      sub\n      0x1f\n      and\n      dup3\n      add\n      swap2\n    tag_153:\n      pop\n      pop\n      pop\n      pop\n      pop\n      swap1\n      dup1\n      0x03\n      add\n      0x00\n      swap1\n      sload\n      swap1\n      0x0100\n      exp\n      swap1\n      div\n      0xff\n      and\n      swap1\n      dup1\n      0x05\n      add\n      sload\n      swap1\n      pop\n      dup6\n      jump\t// out\n        /* \"contracts/wallet.sol\":2658:3135  function submitTransaction(address to, uint256 value, bytes memory data) external onlyOwner {... */\n    tag_49:\n        /* \"contracts/wallet.sol\":858:865  isOwner */\n      0x01\n        /* \"contracts/wallet.sol\":858:877  isOwner[msg.sender] */\n      0x00\n        /* \"contracts/wallet.sol\":866:876  msg.sender */\n      caller\n        /* \"contracts/wallet.sol\":858:877  isOwner[msg.sender] */\n      0xffffffffffffffffffffffffffffffffffffffff\n      and\n      0xffffffffffffffffffffffffffffffffffffffff\n      and\n      dup2\n      mstore\n      0x20\n      add\n      swap1\n      dup2\n      mstore\n      0x20\n      add\n      0x00\n      keccak256\n      0x00\n      swap1\n      sload\n      swap1\n      0x0100\n      exp\n      swap1\n      div\n      0xff\n      and\n        /* \"contracts/wallet.sol\":850:894  require(isOwner[msg.sender], \"Not an owner\") */\n      tag_157\n      jumpi\n      mload(0x40)\n      0x08c379a000000000000000000000000000000000000000000000000000000000\n      dup2\n      mstore\n      0x04\n      add\n      tag_158\n      swap1\n      tag_55\n      jump\t// in\n    tag_158:\n      mload(0x40)\n      dup1\n      swap2\n      sub\n      swap1\n      revert\n    tag_157:\n        /* \"contracts/wallet.sol\":2756:2777  uint256 transactionId */\n      0x00\n        /* \"contracts/wallet.sol\":2780:2792  transactions */\n      0x03\n        /* \"contracts/wallet.sol\":2780:2799  transactions.length */\n      dup1\n      sload\n      swap1\n      pop\n        /* \"contracts/wallet.sol\":2756:2799  uint256 transactionId = transactions.length */\n      swap1\n      pop\n        /* \"contracts/wallet.sol\":2805:2817  transactions */\n      0x03\n        /* \"contracts/wallet.sol\":2805:2824  transactions.push() */\n      0x01\n      dup2\n      0x01\n      dup2\n      sload\n      add\n      dup1\n      dup3\n      sstore\n      dup1\n      swap2\n      pop\n      pop\n      sub\n      swap1\n      0x00\n      mstore\n      keccak256(0x00, 0x20)\n      swap1\n      pop\n      pop\n        /* \"contracts/wallet.sol\":2830:2864  Transaction storage newTransaction */\n      0x00\n        /* \"contracts/wallet.sol\":2867:2879  transactions */\n      0x03\n        /* \"contracts/wallet.sol\":2880:2893  transactionId */\n      dup3\n        /* \"contracts/wallet.sol\":2867:2894  transactions[transactionId] */\n      dup2\n      sload\n      dup2\n      lt\n      tag_161\n      jumpi\n      tag_162\n      tag_67\n      jump\t// in\n    tag_162:\n    tag_161:\n      swap1\n      0x00\n      mstore\n      keccak256(0x00, 0x20)\n      swap1\n      0x06\n      mul\n      add\n        /* \"contracts/wallet.sol\":2830:2894  Transaction storage newTransaction = transactions[transactionId] */\n      swap1\n      pop\n        /* \"contracts/wallet.sol\":2925:2927  to */\n      dup5\n        /* \"contracts/wallet.sol\":2905:2919  newTransaction */\n      dup2\n        /* \"contracts/wallet.sol\":2905:2922  newTransaction.to */\n      0x00\n      add\n      0x00\n        /* \"contracts/wallet.sol\":2905:2927  newTransaction.to = to */\n      0x0100\n      exp\n      dup2\n      sload\n      dup2\n      0xffffffffffffffffffffffffffffffffffffffff\n      mul\n      not\n      and\n      swap1\n      dup4\n      0xffffffffffffffffffffffffffffffffffffffff\n      and\n      mul\n      or\n      swap1\n      sstore\n      pop\n        /* \"contracts/wallet.sol\":2956:2961  value */\n      dup4\n        /* \"contracts/wallet.sol\":2933:2947  newTransaction */\n      dup2\n        /* \"contracts/wallet.sol\":2933:2953  newTransaction.value */\n      0x01\n      add\n        /* \"contracts/wallet.sol\":2933:2961  newTransaction.value = value */\n      dup2\n      swap1\n      sstore\n      pop\n        /* \"contracts/wallet.sol\":2989:2993  data */\n      dup3\n        /* \"contracts/wallet.sol\":2967:2981  newTransaction */\n      dup2\n        /* \"contracts/wallet.sol\":2967:2986  newTransaction.data */\n      0x02\n      add\n        /* \"contracts/wallet.sol\":2967:2993  newTransaction.data = data */\n      swap1\n      dup2\n      tag_164\n      swap2\n      swap1\n      tag_165\n      jump\t// in\n    tag_164:\n      pop\n        /* \"contracts/wallet.sol\":3025:3030  false */\n      0x00\n        /* \"contracts/wallet.sol\":2999:3013  newTransaction */\n      dup2\n        /* \"contracts/wallet.sol\":2999:3022  newTransaction.executed */\n      0x03\n      add\n      0x00\n        /* \"contracts/wallet.sol\":2999:3030  newTransaction.executed = false */\n      0x0100\n      exp\n      dup2\n      sload\n      dup2\n      0xff\n      mul\n      not\n      and\n      swap1\n      dup4\n      iszero\n      iszero\n      mul\n      or\n      swap1\n      sstore\n      pop\n        /* \"contracts/wallet.sol\":3067:3068  0 */\n      0x00\n        /* \"contracts/wallet.sol\":3036:3050  newTransaction */\n      dup2\n        /* \"contracts/wallet.sol\":3036:3064  newTransaction.approvalCount */\n      0x05\n      add\n        /* \"contracts/wallet.sol\":3036:3068  newTransaction.approvalCount = 0 */\n      dup2\n      swap1\n      sstore\n      pop\n        /* \"contracts/wallet.sol\":3080:3132  TransactionSubmitted(transactionId, to, value, data) */\n      0x3f6db45da5513bd4fe9f8a31e60ea668bdd4bca57e30a85a9a26f90c9fbcb56c\n        /* \"contracts/wallet.sol\":3101:3114  transactionId */\n      dup3\n        /* \"contracts/wallet.sol\":3116:3118  to */\n      dup7\n        /* \"contracts/wallet.sol\":3120:3125  value */\n      dup7\n        /* \"contracts/wallet.sol\":3127:3131  data */\n      dup7\n        /* \"contracts/wallet.sol\":3080:3132  TransactionSubmitted(transactionId, to, value, data) */\n      mload(0x40)\n      tag_166\n      swap5\n      swap4\n      swap3\n      swap2\n      swap1\n      tag_167\n      jump\t// in\n    tag_166:\n      mload(0x40)\n      dup1\n      swap2\n      sub\n      swap1\n      log1\n        /* \"contracts/wallet.sol\":2750:3135  {... */\n      pop\n      pop\n        /* \"contracts/wallet.sol\":2658:3135  function submitTransaction(address to, uint256 value, bytes memory data) external onlyOwner {... */\n      pop\n      pop\n      pop\n      jump\t// out\n        /* \"contracts/wallet.sol\":3866:4307  function executeTransaction(uint256 transactionId) internal transactionExists(transactionId) notExecuted(transactionId) {... */\n    tag_120:\n        /* \"contracts/wallet.sol\":3944:3957  transactionId */\n      dup1\n        /* \"contracts/wallet.sol\":1002:1014  transactions */\n      0x03\n        /* \"contracts/wallet.sol\":1002:1021  transactions.length */\n      dup1\n      sload\n      swap1\n      pop\n        /* \"contracts/wallet.sol\":986:999  transactionId */\n      dup2\n        /* \"contracts/wallet.sol\":986:1021  transactionId < transactions.length */\n      lt\n        /* \"contracts/wallet.sol\":978:1052  require(transactionId < transactions.length, \"Transaction does not exist\") */\n      tag_169\n      jumpi\n      mload(0x40)\n      0x08c379a000000000000000000000000000000000000000000000000000000000\n      dup2\n      mstore\n      0x04\n      add\n      tag_170\n      swap1\n      tag_89\n      jump\t// in\n    tag_170:\n      mload(0x40)\n      dup1\n      swap2\n      sub\n      swap1\n      revert\n    tag_169:\n        /* \"contracts/wallet.sol\":3971:3984  transactionId */\n      dup2\n        /* \"contracts/wallet.sol\":1139:1151  transactions */\n      0x03\n        /* \"contracts/wallet.sol\":1152:1165  transactionId */\n      dup2\n        /* \"contracts/wallet.sol\":1139:1166  transactions[transactionId] */\n      dup2\n      sload\n      dup2\n      lt\n      tag_172\n      jumpi\n      tag_173\n      tag_67\n      jump\t// in\n    tag_173:\n    tag_172:\n      swap1\n      0x00\n      mstore\n      keccak256(0x00, 0x20)\n      swap1\n      0x06\n      mul\n      add\n        /* \"contracts/wallet.sol\":1139:1175  transactions[transactionId].executed */\n      0x03\n      add\n      0x00\n      swap1\n      sload\n      swap1\n      0x0100\n      exp\n      swap1\n      div\n      0xff\n      and\n        /* \"contracts/wallet.sol\":1138:1175  !transactions[transactionId].executed */\n      iszero\n        /* \"contracts/wallet.sol\":1130:1208  require(!transactions[transactionId].executed, \"Transaction already executed\") */\n      tag_175\n      jumpi\n      mload(0x40)\n      0x08c379a000000000000000000000000000000000000000000000000000000000\n      dup2\n      mstore\n      0x04\n      add\n      tag_176\n      swap1\n      tag_96\n      jump\t// in\n    tag_176:\n      mload(0x40)\n      dup1\n      swap2\n      sub\n      swap1\n      revert\n    tag_175:\n        /* \"contracts/wallet.sol\":4035:4039  true */\n      0x01\n        /* \"contracts/wallet.sol\":3996:4008  transactions */\n      0x03\n        /* \"contracts/wallet.sol\":4009:4022  transactionId */\n      dup5\n        /* \"contracts/wallet.sol\":3996:4023  transactions[transactionId] */\n      dup2\n      sload\n      dup2\n      lt\n      tag_178\n      jumpi\n      tag_179\n      tag_67\n      jump\t// in\n    tag_179:\n    tag_178:\n      swap1\n      0x00\n      mstore\n      keccak256(0x00, 0x20)\n      swap1\n      0x06\n      mul\n      add\n        /* \"contracts/wallet.sol\":3996:4032  transactions[transactionId].executed */\n      0x03\n      add\n      0x00\n        /* \"contracts/wallet.sol\":3996:4039  transactions[transactionId].executed = true */\n      0x0100\n      exp\n      dup2\n      sload\n      dup2\n      0xff\n      mul\n      not\n      and\n      swap1\n      dup4\n      iszero\n      iszero\n      mul\n      or\n      swap1\n      sstore\n      pop\n        /* \"contracts/wallet.sol\":4051:4063  bool success */\n      0x00\n        /* \"contracts/wallet.sol\":4069:4081  transactions */\n      0x03\n        /* \"contracts/wallet.sol\":4082:4095  transactionId */\n      dup5\n        /* \"contracts/wallet.sol\":4069:4096  transactions[transactionId] */\n      dup2\n      sload\n      dup2\n      lt\n      tag_181\n      jumpi\n      tag_182\n      tag_67\n      jump\t// in\n    tag_182:\n    tag_181:\n      swap1\n      0x00\n      mstore\n      keccak256(0x00, 0x20)\n      swap1\n      0x06\n      mul\n      add\n        /* \"contracts/wallet.sol\":4069:4099  transactions[transactionId].to */\n      0x00\n      add\n      0x00\n      swap1\n      sload\n      swap1\n      0x0100\n      exp\n      swap1\n      div\n      0xffffffffffffffffffffffffffffffffffffffff\n      and\n        /* \"contracts/wallet.sol\":4069:4104  transactions[transactionId].to.call */\n      0xffffffffffffffffffffffffffffffffffffffff\n      and\n        /* \"contracts/wallet.sol\":4112:4124  transactions */\n      0x03\n        /* \"contracts/wallet.sol\":4125:4138  transactionId */\n      dup6\n        /* \"contracts/wallet.sol\":4112:4139  transactions[transactionId] */\n      dup2\n      sload\n      dup2\n      lt\n      tag_184\n      jumpi\n      tag_185\n      tag_67\n      jump\t// in\n    tag_185:\n    tag_184:\n      swap1\n      0x00\n      mstore\n      keccak256(0x00, 0x20)\n      swap1\n      0x06\n      mul\n      add\n        /* \"contracts/wallet.sol\":4112:4145  transactions[transactionId].value */\n      0x01\n      add\n      sload\n        /* \"contracts/wallet.sol\":4147:4159  transactions */\n      0x03\n        /* \"contracts/wallet.sol\":4160:4173  transactionId */\n      dup7\n        /* \"contracts/wallet.sol\":4147:4174  transactions[transactionId] */\n      dup2\n      sload\n      dup2\n      lt\n      tag_187\n      jumpi\n      tag_188\n      tag_67\n      jump\t// in\n    tag_188:\n    tag_187:\n      swap1\n      0x00\n      mstore\n      keccak256(0x00, 0x20)\n      swap1\n      0x06\n      mul\n      add\n        /* \"contracts/wallet.sol\":4147:4179  transactions[transactionId].data */\n      0x02\n      add\n        /* \"contracts/wallet.sol\":4069:4180  transactions[transactionId].to.call{value: transactions[transactionId].value}(transactions[transactionId].data) */\n      mload(0x40)\n      tag_190\n      swap2\n      swap1\n      tag_191\n      jump\t// in\n    tag_190:\n      0x00\n      mload(0x40)\n      dup1\n      dup4\n      sub\n      dup2\n      dup6\n      dup8\n      gas\n      call\n      swap3\n      pop\n      pop\n      pop\n      returndatasize\n      dup1\n      0x00\n      dup2\n      eq\n      tag_194\n      jumpi\n      mload(0x40)\n      swap2\n      pop\n      and(add(returndatasize, 0x3f), not(0x1f))\n      dup3\n      add\n      0x40\n      mstore\n      returndatasize\n      dup3\n      mstore\n      returndatasize\n      0x00\n      0x20\n      dup5\n      add\n      returndatacopy\n      jump(tag_193)\n    tag_194:\n      0x60\n      swap2\n      pop\n    tag_193:\n      pop\n        /* \"contracts/wallet.sol\":4050:4180  (bool success, ) = transactions[transactionId].to.call{value: transactions[transactionId].value}(transactions[transactionId].data) */\n      pop\n      swap1\n      pop\n        /* \"contracts/wallet.sol\":4198:4205  success */\n      dup1\n        /* \"contracts/wallet.sol\":4190:4238  require(success, \"Transaction execution failed\") */\n      tag_195\n      jumpi\n      mload(0x40)\n      0x08c379a000000000000000000000000000000000000000000000000000000000\n      dup2\n      mstore\n      0x04\n      add\n      tag_196\n      swap1\n      tag_197\n      jump\t// in\n    tag_196:\n      mload(0x40)\n      dup1\n      swap2\n      sub\n      swap1\n      revert\n    tag_195:\n        /* \"contracts/wallet.sol\":4254:4300  TransactionExecuted(transactionId, msg.sender) */\n      0xefc13bdcf58f184ea7cae26b499fb33b539e01d0197cea456f3ada289b8cf19b\n        /* \"contracts/wallet.sol\":4274:4287  transactionId */\n      dup5\n        /* \"contracts/wallet.sol\":4289:4299  msg.sender */\n      caller\n        /* \"contracts/wallet.sol\":4254:4300  TransactionExecuted(transactionId, msg.sender) */\n      mload(0x40)\n      tag_198\n      swap3\n      swap2\n      swap1\n      tag_114\n      jump\t// in\n    tag_198:\n      mload(0x40)\n      dup1\n      swap2\n      sub\n      swap1\n      log1\n        /* \"contracts/wallet.sol\":3986:4307  {... */\n      pop\n        /* \"contracts/wallet.sol\":1062:1063  _ */\n      pop\n        /* \"contracts/wallet.sol\":3866:4307  function executeTransaction(uint256 transactionId) internal transactionExists(transactionId) notExecuted(transactionId) {... */\n      pop\n      pop\n      jump\t// out\n        /* \"#utility.yul\":7:82   */\n    tag_199:\n        /* \"#utility.yul\":40:46   */\n      0x00\n        /* \"#utility.yul\":73:75   */\n      0x40\n        /* \"#utility.yul\":67:76   */\n      mload\n        /* \"#utility.yul\":57:76   */\n      swap1\n      pop\n        /* \"#utility.yul\":7:82   */\n      swap1\n      jump\t// out\n        /* \"#utility.yul\":88:205   */\n    tag_200:\n        /* \"#utility.yul\":197:198   */\n      0x00\n        /* \"#utility.yul\":194:195   */\n      dup1\n        /* \"#utility.yul\":187:199   */\n      revert\n        /* \"#utility.yul\":211:328   */\n    tag_201:\n        /* \"#utility.yul\":320:321   */\n      0x00\n        /* \"#utility.yul\":317:318   */\n      dup1\n        /* \"#utility.yul\":310:322   */\n      revert\n        /* \"#utility.yul\":334:411   */\n    tag_202:\n        /* \"#utility.yul\":371:378   */\n      0x00\n        /* \"#utility.yul\":400:405   */\n      dup2\n        /* \"#utility.yul\":389:405   */\n      swap1\n      pop\n        /* \"#utility.yul\":334:411   */\n      swap2\n      swap1\n      pop\n      jump\t// out\n        /* \"#utility.yul\":417:539   */\n    tag_203:\n        /* \"#utility.yul\":490:514   */\n      tag_267\n        /* \"#utility.yul\":508:513   */\n      dup2\n        /* \"#utility.yul\":490:514   */\n      tag_202\n      jump\t// in\n    tag_267:\n        /* \"#utility.yul\":483:488   */\n      dup2\n        /* \"#utility.yul\":480:515   */\n      eq\n        /* \"#utility.yul\":470:533   */\n      tag_268\n      jumpi\n        /* \"#utility.yul\":529:530   */\n      0x00\n        /* \"#utility.yul\":526:527   */\n      dup1\n        /* \"#utility.yul\":519:531   */\n      revert\n        /* \"#utility.yul\":470:533   */\n    tag_268:\n        /* \"#utility.yul\":417:539   */\n      pop\n      jump\t// out\n        /* \"#utility.yul\":545:684   */\n    tag_204:\n        /* \"#utility.yul\":591:596   */\n      0x00\n        /* \"#utility.yul\":629:635   */\n      dup2\n        /* \"#utility.yul\":616:636   */\n      calldataload\n        /* \"#utility.yul\":607:636   */\n      swap1\n      pop\n        /* \"#utility.yul\":645:678   */\n      tag_270\n        /* \"#utility.yul\":672:677   */\n      dup2\n        /* \"#utility.yul\":645:678   */\n      tag_203\n      jump\t// in\n    tag_270:\n        /* \"#utility.yul\":545:684   */\n      swap3\n      swap2\n      pop\n      pop\n      jump\t// out\n        /* \"#utility.yul\":690:1019   */\n    tag_15:\n        /* \"#utility.yul\":749:755   */\n      0x00\n        /* \"#utility.yul\":798:800   */\n      0x20\n        /* \"#utility.yul\":786:795   */\n      dup3\n        /* \"#utility.yul\":777:784   */\n      dup5\n        /* \"#utility.yul\":773:796   */\n      sub\n        /* \"#utility.yul\":769:801   */\n      slt\n        /* \"#utility.yul\":766:885   */\n      iszero\n      tag_272\n      jumpi\n        /* \"#utility.yul\":804:883   */\n      tag_273\n      tag_200\n      jump\t// in\n    tag_273:\n        /* \"#utility.yul\":766:885   */\n    tag_272:\n        /* \"#utility.yul\":924:925   */\n      0x00\n        /* \"#utility.yul\":949:1002   */\n      tag_274\n        /* \"#utility.yul\":994:1001   */\n      dup5\n        /* \"#utility.yul\":985:991   */\n      dup3\n        /* \"#utility.yul\":974:983   */\n      dup6\n        /* \"#utility.yul\":970:992   */\n      add\n        /* \"#utility.yul\":949:1002   */\n      tag_204\n      jump\t// in\n    tag_274:\n        /* \"#utility.yul\":939:1002   */\n      swap2\n      pop\n        /* \"#utility.yul\":895:1012   */\n      pop\n        /* \"#utility.yul\":690:1019   */\n      swap3\n      swap2\n      pop\n      pop\n      jump\t// out\n        /* \"#utility.yul\":1025:1151   */\n    tag_205:\n        /* \"#utility.yul\":1062:1069   */\n      0x00\n        /* \"#utility.yul\":1102:1144   */\n      0xffffffffffffffffffffffffffffffffffffffff\n        /* \"#utility.yul\":1095:1100   */\n      dup3\n        /* \"#utility.yul\":1091:1145   */\n      and\n        /* \"#utility.yul\":1080:1145   */\n      swap1\n      pop\n        /* \"#utility.yul\":1025:1151   */\n      swap2\n      swap1\n      pop\n      jump\t// out\n        /* \"#utility.yul\":1157:1253   */\n    tag_206:\n        /* \"#utility.yul\":1194:1201   */\n      0x00\n        /* \"#utility.yul\":1223:1247   */\n      tag_277\n        /* \"#utility.yul\":1241:1246   */\n      dup3\n        /* \"#utility.yul\":1223:1247   */\n      tag_205\n      jump\t// in\n    tag_277:\n        /* \"#utility.yul\":1212:1247   */\n      swap1\n      pop\n        /* \"#utility.yul\":1157:1253   */\n      swap2\n      swap1\n      pop\n      jump\t// out\n        /* \"#utility.yul\":1259:1377   */\n    tag_207:\n        /* \"#utility.yul\":1346:1370   */\n      tag_279\n        /* \"#utility.yul\":1364:1369   */\n      dup2\n        /* \"#utility.yul\":1346:1370   */\n      tag_206\n      jump\t// in\n    tag_279:\n        /* \"#utility.yul\":1341:1344   */\n      dup3\n        /* \"#utility.yul\":1334:1371   */\n      mstore\n        /* \"#utility.yul\":1259:1377   */\n      pop\n      pop\n      jump\t// out\n        /* \"#utility.yul\":1383:1605   */\n    tag_18:\n        /* \"#utility.yul\":1476:1480   */\n      0x00\n        /* \"#utility.yul\":1514:1516   */\n      0x20\n        /* \"#utility.yul\":1503:1512   */\n      dup3\n        /* \"#utility.yul\":1499:1517   */\n      add\n        /* \"#utility.yul\":1491:1517   */\n      swap1\n      pop\n        /* \"#utility.yul\":1527:1598   */\n      tag_281\n        /* \"#utility.yul\":1595:1596   */\n      0x00\n        /* \"#utility.yul\":1584:1593   */\n      dup4\n        /* \"#utility.yul\":1580:1597   */\n      add\n        /* \"#utility.yul\":1571:1577   */\n      dup5\n        /* \"#utility.yul\":1527:1598   */\n      tag_207\n      jump\t// in\n    tag_281:\n        /* \"#utility.yul\":1383:1605   */\n      swap3\n      swap2\n      pop\n      pop\n      jump\t// out\n        /* \"#utility.yul\":1611:1733   */\n    tag_208:\n        /* \"#utility.yul\":1684:1708   */\n      tag_283\n        /* \"#utility.yul\":1702:1707   */\n      dup2\n        /* \"#utility.yul\":1684:1708   */\n      tag_206\n      jump\t// in\n    tag_283:\n        /* \"#utility.yul\":1677:1682   */\n      dup2\n        /* \"#utility.yul\":1674:1709   */\n      eq\n        /* \"#utility.yul\":1664:1727   */\n      tag_284\n      jumpi\n        /* \"#utility.yul\":1723:1724   */\n      0x00\n        /* \"#utility.yul\":1720:1721   */\n      dup1\n        /* \"#utility.yul\":1713:1725   */\n      revert\n        /* \"#utility.yul\":1664:1727   */\n    tag_284:\n        /* \"#utility.yul\":1611:1733   */\n      pop\n      jump\t// out\n        /* \"#utility.yul\":1739:1878   */\n    tag_209:\n        /* \"#utility.yul\":1785:1790   */\n      0x00\n        /* \"#utility.yul\":1823:1829   */\n      dup2\n        /* \"#utility.yul\":1810:1830   */\n      calldataload\n        /* \"#utility.yul\":1801:1830   */\n      swap1\n      pop\n        /* \"#utility.yul\":1839:1872   */\n      tag_286\n        /* \"#utility.yul\":1866:1871   */\n      dup2\n        /* \"#utility.yul\":1839:1872   */\n      tag_208\n      jump\t// in\n    tag_286:\n        /* \"#utility.yul\":1739:1878   */\n      swap3\n      swap2\n      pop\n      pop\n      jump\t// out\n        /* \"#utility.yul\":1884:2213   */\n    tag_21:\n        /* \"#utility.yul\":1943:1949   */\n      0x00\n        /* \"#utility.yul\":1992:1994   */\n      0x20\n        /* \"#utility.yul\":1980:1989   */\n      dup3\n        /* \"#utility.yul\":1971:1978   */\n      dup5\n        /* \"#utility.yul\":1967:1990   */\n      sub\n        /* \"#utility.yul\":1963:1995   */\n      slt\n        /* \"#utility.yul\":1960:2079   */\n      iszero\n      tag_288\n      jumpi\n        /* \"#utility.yul\":1998:2077   */\n      tag_289\n      tag_200\n      jump\t// in\n    tag_289:\n        /* \"#utility.yul\":1960:2079   */\n    tag_288:\n        /* \"#utility.yul\":2118:2119   */\n      0x00\n        /* \"#utility.yul\":2143:2196   */\n      tag_290\n        /* \"#utility.yul\":2188:2195   */\n      dup5\n        /* \"#utility.yul\":2179:2185   */\n      dup3\n        /* \"#utility.yul\":2168:2177   */\n      dup6\n        /* \"#utility.yul\":2164:2186   */\n      add\n        /* \"#utility.yul\":2143:2196   */\n      tag_209\n      jump\t// in\n    tag_290:\n        /* \"#utility.yul\":2133:2196   */\n      swap2\n      pop\n        /* \"#utility.yul\":2089:2206   */\n      pop\n        /* \"#utility.yul\":1884:2213   */\n      swap3\n      swap2\n      pop\n      pop\n      jump\t// out\n        /* \"#utility.yul\":2219:2309   */\n    tag_210:\n        /* \"#utility.yul\":2253:2260   */\n      0x00\n        /* \"#utility.yul\":2296:2301   */\n      dup2\n        /* \"#utility.yul\":2289:2302   */\n      iszero\n        /* \"#utility.yul\":2282:2303   */\n      iszero\n        /* \"#utility.yul\":2271:2303   */\n      swap1\n      pop\n        /* \"#utility.yul\":2219:2309   */\n      swap2\n      swap1\n      pop\n      jump\t// out\n        /* \"#utility.yul\":2315:2424   */\n    tag_211:\n        /* \"#utility.yul\":2396:2417   */\n      tag_293\n        /* \"#utility.yul\":2411:2416   */\n      dup2\n        /* \"#utility.yul\":2396:2417   */\n      tag_210\n      jump\t// in\n    tag_293:\n        /* \"#utility.yul\":2391:2394   */\n      dup3\n        /* \"#utility.yul\":2384:2418   */\n      mstore\n        /* \"#utility.yul\":2315:2424   */\n      pop\n      pop\n      jump\t// out\n        /* \"#utility.yul\":2430:2640   */\n    tag_30:\n        /* \"#utility.yul\":2517:2521   */\n      0x00\n        /* \"#utility.yul\":2555:2557   */\n      0x20\n        /* \"#utility.yul\":2544:2553   */\n      dup3\n        /* \"#utility.yul\":2540:2558   */\n      add\n        /* \"#utility.yul\":2532:2558   */\n      swap1\n      pop\n        /* \"#utility.yul\":2568:2633   */\n      tag_295\n        /* \"#utility.yul\":2630:2631   */\n      0x00\n        /* \"#utility.yul\":2619:2628   */\n      dup4\n        /* \"#utility.yul\":2615:2632   */\n      add\n        /* \"#utility.yul\":2606:2612   */\n      dup5\n        /* \"#utility.yul\":2568:2633   */\n      tag_211\n      jump\t// in\n    tag_295:\n        /* \"#utility.yul\":2430:2640   */\n      swap3\n      swap2\n      pop\n      pop\n      jump\t// out\n        /* \"#utility.yul\":2646:2764   */\n    tag_212:\n        /* \"#utility.yul\":2733:2757   */\n      tag_297\n        /* \"#utility.yul\":2751:2756   */\n      dup2\n        /* \"#utility.yul\":2733:2757   */\n      tag_202\n      jump\t// in\n    tag_297:\n        /* \"#utility.yul\":2728:2731   */\n      dup3\n        /* \"#utility.yul\":2721:2758   */\n      mstore\n        /* \"#utility.yul\":2646:2764   */\n      pop\n      pop\n      jump\t// out\n        /* \"#utility.yul\":2770:2992   */\n    tag_37:\n        /* \"#utility.yul\":2863:2867   */\n      0x00\n        /* \"#utility.yul\":2901:2903   */\n      0x20\n        /* \"#utility.yul\":2890:2899   */\n      dup3\n        /* \"#utility.yul\":2886:2904   */\n      add\n        /* \"#utility.yul\":2878:2904   */\n      swap1\n      pop\n        /* \"#utility.yul\":2914:2985   */\n      tag_299\n        /* \"#utility.yul\":2982:2983   */\n      0x00\n        /* \"#utility.yul\":2971:2980   */\n      dup4\n        /* \"#utility.yul\":2967:2984   */\n      add\n        /* \"#utility.yul\":2958:2964   */\n      dup5\n        /* \"#utility.yul\":2914:2985   */\n      tag_212\n      jump\t// in\n    tag_299:\n        /* \"#utility.yul\":2770:2992   */\n      swap3\n      swap2\n      pop\n      pop\n      jump\t// out\n        /* \"#utility.yul\":2998:3096   */\n    tag_213:\n        /* \"#utility.yul\":3049:3055   */\n      0x00\n        /* \"#utility.yul\":3083:3088   */\n      dup2\n        /* \"#utility.yul\":3077:3089   */\n      mload\n        /* \"#utility.yul\":3067:3089   */\n      swap1\n      pop\n        /* \"#utility.yul\":2998:3096   */\n      swap2\n      swap1\n      pop\n      jump\t// out\n        /* \"#utility.yul\":3102:3270   */\n    tag_214:\n        /* \"#utility.yul\":3185:3196   */\n      0x00\n        /* \"#utility.yul\":3219:3225   */\n      dup3\n        /* \"#utility.yul\":3214:3217   */\n      dup3\n        /* \"#utility.yul\":3207:3226   */\n      mstore\n        /* \"#utility.yul\":3259:3263   */\n      0x20\n        /* \"#utility.yul\":3254:3257   */\n      dup3\n        /* \"#utility.yul\":3250:3264   */\n      add\n        /* \"#utility.yul\":3235:3264   */\n      swap1\n      pop\n        /* \"#utility.yul\":3102:3270   */\n      swap3\n      swap2\n      pop\n      pop\n      jump\t// out\n        /* \"#utility.yul\":3276:3522   */\n    tag_215:\n        /* \"#utility.yul\":3357:3358   */\n      0x00\n        /* \"#utility.yul\":3367:3480   */\n    tag_303:\n        /* \"#utility.yul\":3381:3387   */\n      dup4\n        /* \"#utility.yul\":3378:3379   */\n      dup2\n        /* \"#utility.yul\":3375:3388   */\n      lt\n        /* \"#utility.yul\":3367:3480   */\n      iszero\n      tag_305\n      jumpi\n        /* \"#utility.yul\":3466:3467   */\n      dup1\n        /* \"#utility.yul\":3461:3464   */\n      dup3\n        /* \"#utility.yul\":3457:3468   */\n      add\n        /* \"#utility.yul\":3451:3469   */\n      mload\n        /* \"#utility.yul\":3447:3448   */\n      dup2\n        /* \"#utility.yul\":3442:3445   */\n      dup5\n        /* \"#utility.yul\":3438:3449   */\n      add\n        /* \"#utility.yul\":3431:3470   */\n      mstore\n        /* \"#utility.yul\":3403:3405   */\n      0x20\n        /* \"#utility.yul\":3400:3401   */\n      dup2\n        /* \"#utility.yul\":3396:3406   */\n      add\n        /* \"#utility.yul\":3391:3406   */\n      swap1\n      pop\n        /* \"#utility.yul\":3367:3480   */\n      jump(tag_303)\n    tag_305:\n        /* \"#utility.yul\":3514:3515   */\n      0x00\n        /* \"#utility.yul\":3505:3511   */\n      dup5\n        /* \"#utility.yul\":3500:3503   */\n      dup5\n        /* \"#utility.yul\":3496:3512   */\n      add\n        /* \"#utility.yul\":3489:3516   */\n      mstore\n        /* \"#utility.yul\":3338:3522   */\n      pop\n        /* \"#utility.yul\":3276:3522   */\n      pop\n      pop\n      pop\n      jump\t// out\n        /* \"#utility.yul\":3528:3630   */\n    tag_216:\n        /* \"#utility.yul\":3569:3575   */\n      0x00\n        /* \"#utility.yul\":3620:3622   */\n      0x1f\n        /* \"#utility.yul\":3616:3623   */\n      not\n        /* \"#utility.yul\":3611:3613   */\n      0x1f\n        /* \"#utility.yul\":3604:3609   */\n      dup4\n        /* \"#utility.yul\":3600:3614   */\n      add\n        /* \"#utility.yul\":3596:3624   */\n      and\n        /* \"#utility.yul\":3586:3624   */\n      swap1\n      pop\n        /* \"#utility.yul\":3528:3630   */\n      swap2\n      swap1\n      pop\n      jump\t// out\n        /* \"#utility.yul\":3636:4009   */\n    tag_217:\n        /* \"#utility.yul\":3722:3725   */\n      0x00\n        /* \"#utility.yul\":3750:3788   */\n      tag_308\n        /* \"#utility.yul\":3782:3787   */\n      dup3\n        /* \"#utility.yul\":3750:3788   */\n      tag_213\n      jump\t// in\n    tag_308:\n        /* \"#utility.yul\":3804:3874   */\n      tag_309\n        /* \"#utility.yul\":3867:3873   */\n      dup2\n        /* \"#utility.yul\":3862:3865   */\n      dup6\n        /* \"#utility.yul\":3804:3874   */\n      tag_214\n      jump\t// in\n    tag_309:\n        /* \"#utility.yul\":3797:3874   */\n      swap4\n      pop\n        /* \"#utility.yul\":3883:3948   */\n      tag_310\n        /* \"#utility.yul\":3941:3947   */\n      dup2\n        /* \"#utility.yul\":3936:3939   */\n      dup6\n        /* \"#utility.yul\":3929:3933   */\n      0x20\n        /* \"#utility.yul\":3922:3927   */\n      dup7\n        /* \"#utility.yul\":3918:3934   */\n      add\n        /* \"#utility.yul\":3883:3948   */\n      tag_215\n      jump\t// in\n    tag_310:\n        /* \"#utility.yul\":3973:4002   */\n      tag_311\n        /* \"#utility.yul\":3995:4001   */\n      dup2\n        /* \"#utility.yul\":3973:4002   */\n      tag_216\n      jump\t// in\n    tag_311:\n        /* \"#utility.yul\":3968:3971   */\n      dup5\n        /* \"#utility.yul\":3964:4003   */\n      add\n        /* \"#utility.yul\":3957:4003   */\n      swap2\n      pop\n        /* \"#utility.yul\":3726:4009   */\n      pop\n        /* \"#utility.yul\":3636:4009   */\n      swap3\n      swap2\n      pop\n      pop\n      jump\t// out\n        /* \"#utility.yul\":4015:4754   */\n    tag_45:\n        /* \"#utility.yul\":4232:4236   */\n      0x00\n        /* \"#utility.yul\":4270:4273   */\n      0xa0\n        /* \"#utility.yul\":4259:4268   */\n      dup3\n        /* \"#utility.yul\":4255:4274   */\n      add\n        /* \"#utility.yul\":4247:4274   */\n      swap1\n      pop\n        /* \"#utility.yul\":4284:4355   */\n      tag_313\n        /* \"#utility.yul\":4352:4353   */\n      0x00\n        /* \"#utility.yul\":4341:4350   */\n      dup4\n        /* \"#utility.yul\":4337:4354   */\n      add\n        /* \"#utility.yul\":4328:4334   */\n      dup9\n        /* \"#utility.yul\":4284:4355   */\n      tag_207\n      jump\t// in\n    tag_313:\n        /* \"#utility.yul\":4365:4437   */\n      tag_314\n        /* \"#utility.yul\":4433:4435   */\n      0x20\n        /* \"#utility.yul\":4422:4431   */\n      dup4\n        /* \"#utility.yul\":4418:4436   */\n      add\n        /* \"#utility.yul\":4409:4415   */\n      dup8\n        /* \"#utility.yul\":4365:4437   */\n      tag_212\n      jump\t// in\n    tag_314:\n        /* \"#utility.yul\":4484:4493   */\n      dup2\n        /* \"#utility.yul\":4478:4482   */\n      dup2\n        /* \"#utility.yul\":4474:4494   */\n      sub\n        /* \"#utility.yul\":4469:4471   */\n      0x40\n        /* \"#utility.yul\":4458:4467   */\n      dup4\n        /* \"#utility.yul\":4454:4472   */\n      add\n        /* \"#utility.yul\":4447:4495   */\n      mstore\n        /* \"#utility.yul\":4512:4588   */\n      tag_315\n        /* \"#utility.yul\":4583:4587   */\n      dup2\n        /* \"#utility.yul\":4574:4580   */\n      dup7\n        /* \"#utility.yul\":4512:4588   */\n      tag_217\n      jump\t// in\n    tag_315:\n        /* \"#utility.yul\":4504:4588   */\n      swap1\n      pop\n        /* \"#utility.yul\":4598:4664   */\n      tag_316\n        /* \"#utility.yul\":4660:4662   */\n      0x60\n        /* \"#utility.yul\":4649:4658   */\n      dup4\n        /* \"#utility.yul\":4645:4663   */\n      add\n        /* \"#utility.yul\":4636:4642   */\n      dup6\n        /* \"#utility.yul\":4598:4664   */\n      tag_211\n      jump\t// in\n    tag_316:\n        /* \"#utility.yul\":4674:4747   */\n      tag_317\n        /* \"#utility.yul\":4742:4745   */\n      0x80\n        /* \"#utility.yul\":4731:4740   */\n      dup4\n        /* \"#utility.yul\":4727:4746   */\n      add\n        /* \"#utility.yul\":4718:4724   */\n      dup5\n        /* \"#utility.yul\":4674:4747   */\n      tag_212\n      jump\t// in\n    tag_317:\n        /* \"#utility.yul\":4015:4754   */\n      swap7\n      swap6\n      pop\n      pop\n      pop\n      pop\n      pop\n      pop\n      jump\t// out\n        /* \"#utility.yul\":4760:4877   */\n    tag_218:\n        /* \"#utility.yul\":4869:4870   */\n      0x00\n        /* \"#utility.yul\":4866:4867   */\n      dup1\n        /* \"#utility.yul\":4859:4871   */\n      revert\n        /* \"#utility.yul\":4883:5000   */\n    tag_219:\n        /* \"#utility.yul\":4992:4993   */\n      0x00\n        /* \"#utility.yul\":4989:4990   */\n      dup1\n        /* \"#utility.yul\":4982:4994   */\n      revert\n        /* \"#utility.yul\":5006:5186   */\n    tag_220:\n        /* \"#utility.yul\":5054:5131   */\n      0x4e487b7100000000000000000000000000000000000000000000000000000000\n        /* \"#utility.yul\":5051:5052   */\n      0x00\n        /* \"#utility.yul\":5044:5132   */\n      mstore\n        /* \"#utility.yul\":5151:5155   */\n      0x41\n        /* \"#utility.yul\":5148:5149   */\n      0x04\n        /* \"#utility.yul\":5141:5156   */\n      mstore\n        /* \"#utility.yul\":5175:5179   */\n      0x24\n        /* \"#utility.yul\":5172:5173   */\n      0x00\n        /* \"#utility.yul\":5165:5180   */\n      revert\n        /* \"#utility.yul\":5192:5473   */\n    tag_221:\n        /* \"#utility.yul\":5275:5302   */\n      tag_322\n        /* \"#utility.yul\":5297:5301   */\n      dup3\n        /* \"#utility.yul\":5275:5302   */\n      tag_216\n      jump\t// in\n    tag_322:\n        /* \"#utility.yul\":5267:5273   */\n      dup2\n        /* \"#utility.yul\":5263:5303   */\n      add\n        /* \"#utility.yul\":5405:5411   */\n      dup2\n        /* \"#utility.yul\":5393:5403   */\n      dup2\n        /* \"#utility.yul\":5390:5412   */\n      lt\n        /* \"#utility.yul\":5369:5387   */\n      0xffffffffffffffff\n        /* \"#utility.yul\":5357:5367   */\n      dup3\n        /* \"#utility.yul\":5354:5388   */\n      gt\n        /* \"#utility.yul\":5351:5413   */\n      or\n        /* \"#utility.yul\":5348:5436   */\n      iszero\n      tag_323\n      jumpi\n        /* \"#utility.yul\":5416:5434   */\n      tag_324\n      tag_220\n      jump\t// in\n    tag_324:\n        /* \"#utility.yul\":5348:5436   */\n    tag_323:\n        /* \"#utility.yul\":5456:5466   */\n      dup1\n        /* \"#utility.yul\":5452:5454   */\n      0x40\n        /* \"#utility.yul\":5445:5467   */\n      mstore\n        /* \"#utility.yul\":5235:5473   */\n      pop\n        /* \"#utility.yul\":5192:5473   */\n      pop\n      pop\n      jump\t// out\n        /* \"#utility.yul\":5479:5608   */\n    tag_222:\n        /* \"#utility.yul\":5513:5519   */\n      0x00\n        /* \"#utility.yul\":5540:5560   */\n      tag_326\n      tag_199\n      jump\t// in\n    tag_326:\n        /* \"#utility.yul\":5530:5560   */\n      swap1\n      pop\n        /* \"#utility.yul\":5569:5602   */\n      tag_327\n        /* \"#utility.yul\":5597:5601   */\n      dup3\n        /* \"#utility.yul\":5589:5595   */\n      dup3\n        /* \"#utility.yul\":5569:5602   */\n      tag_221\n      jump\t// in\n    tag_327:\n        /* \"#utility.yul\":5479:5608   */\n      swap2\n      swap1\n      pop\n      jump\t// out\n        /* \"#utility.yul\":5614:5921   */\n    tag_223:\n        /* \"#utility.yul\":5675:5679   */\n      0x00\n        /* \"#utility.yul\":5765:5783   */\n      0xffffffffffffffff\n        /* \"#utility.yul\":5757:5763   */\n      dup3\n        /* \"#utility.yul\":5754:5784   */\n      gt\n        /* \"#utility.yul\":5751:5807   */\n      iszero\n      tag_329\n      jumpi\n        /* \"#utility.yul\":5787:5805   */\n      tag_330\n      tag_220\n      jump\t// in\n    tag_330:\n        /* \"#utility.yul\":5751:5807   */\n    tag_329:\n        /* \"#utility.yul\":5825:5854   */\n      tag_331\n        /* \"#utility.yul\":5847:5853   */\n      dup3\n        /* \"#utility.yul\":5825:5854   */\n      tag_216\n      jump\t// in\n    tag_331:\n        /* \"#utility.yul\":5817:5854   */\n      swap1\n      pop\n        /* \"#utility.yul\":5909:5913   */\n      0x20\n        /* \"#utility.yul\":5903:5907   */\n      dup2\n        /* \"#utility.yul\":5899:5914   */\n      add\n        /* \"#utility.yul\":5891:5914   */\n      swap1\n      pop\n        /* \"#utility.yul\":5614:5921   */\n      swap2\n      swap1\n      pop\n      jump\t// out\n        /* \"#utility.yul\":5927:6073   */\n    tag_224:\n        /* \"#utility.yul\":6024:6030   */\n      dup3\n        /* \"#utility.yul\":6019:6022   */\n      dup2\n        /* \"#utility.yul\":6014:6017   */\n      dup4\n        /* \"#utility.yul\":6001:6031   */\n      calldatacopy\n        /* \"#utility.yul\":6065:6066   */\n      0x00\n        /* \"#utility.yul\":6056:6062   */\n      dup4\n        /* \"#utility.yul\":6051:6054   */\n      dup4\n        /* \"#utility.yul\":6047:6063   */\n      add\n        /* \"#utility.yul\":6040:6067   */\n      mstore\n        /* \"#utility.yul\":5927:6073   */\n      pop\n      pop\n      pop\n      jump\t// out\n        /* \"#utility.yul\":6079:6502   */\n    tag_225:\n        /* \"#utility.yul\":6156:6161   */\n      0x00\n        /* \"#utility.yul\":6181:6246   */\n      tag_334\n        /* \"#utility.yul\":6197:6245   */\n      tag_335\n        /* \"#utility.yul\":6238:6244   */\n      dup5\n        /* \"#utility.yul\":6197:6245   */\n      tag_223\n      jump\t// in\n    tag_335:\n        /* \"#utility.yul\":6181:6246   */\n      tag_222\n      jump\t// in\n    tag_334:\n        /* \"#utility.yul\":6172:6246   */\n      swap1\n      pop\n        /* \"#utility.yul\":6269:6275   */\n      dup3\n        /* \"#utility.yul\":6262:6267   */\n      dup2\n        /* \"#utility.yul\":6255:6276   */\n      mstore\n        /* \"#utility.yul\":6307:6311   */\n      0x20\n        /* \"#utility.yul\":6300:6305   */\n      dup2\n        /* \"#utility.yul\":6296:6312   */\n      add\n        /* \"#utility.yul\":6345:6348   */\n      dup5\n        /* \"#utility.yul\":6336:6342   */\n      dup5\n        /* \"#utility.yul\":6331:6334   */\n      dup5\n        /* \"#utility.yul\":6327:6343   */\n      add\n        /* \"#utility.yul\":6324:6349   */\n      gt\n        /* \"#utility.yul\":6321:6433   */\n      iszero\n      tag_336\n      jumpi\n        /* \"#utility.yul\":6352:6431   */\n      tag_337\n      tag_219\n      jump\t// in\n    tag_337:\n        /* \"#utility.yul\":6321:6433   */\n    tag_336:\n        /* \"#utility.yul\":6442:6496   */\n      tag_338\n        /* \"#utility.yul\":6489:6495   */\n      dup5\n        /* \"#utility.yul\":6484:6487   */\n      dup3\n        /* \"#utility.yul\":6479:6482   */\n      dup6\n        /* \"#utility.yul\":6442:6496   */\n      tag_224\n      jump\t// in\n    tag_338:\n        /* \"#utility.yul\":6162:6502   */\n      pop\n        /* \"#utility.yul\":6079:6502   */\n      swap4\n      swap3\n      pop\n      pop\n      pop\n      jump\t// out\n        /* \"#utility.yul\":6521:6859   */\n    tag_226:\n        /* \"#utility.yul\":6576:6581   */\n      0x00\n        /* \"#utility.yul\":6625:6628   */\n      dup3\n        /* \"#utility.yul\":6618:6622   */\n      0x1f\n        /* \"#utility.yul\":6610:6616   */\n      dup4\n        /* \"#utility.yul\":6606:6623   */\n      add\n        /* \"#utility.yul\":6602:6629   */\n      slt\n        /* \"#utility.yul\":6592:6714   */\n      tag_340\n      jumpi\n        /* \"#utility.yul\":6633:6712   */\n      tag_341\n      tag_218\n      jump\t// in\n    tag_341:\n        /* \"#utility.yul\":6592:6714   */\n    tag_340:\n        /* \"#utility.yul\":6750:6756   */\n      dup2\n        /* \"#utility.yul\":6737:6757   */\n      calldataload\n        /* \"#utility.yul\":6775:6853   */\n      tag_342\n        /* \"#utility.yul\":6849:6852   */\n      dup5\n        /* \"#utility.yul\":6841:6847   */\n      dup3\n        /* \"#utility.yul\":6834:6838   */\n      0x20\n        /* \"#utility.yul\":6826:6832   */\n      dup7\n        /* \"#utility.yul\":6822:6839   */\n      add\n        /* \"#utility.yul\":6775:6853   */\n      tag_225\n      jump\t// in\n    tag_342:\n        /* \"#utility.yul\":6766:6853   */\n      swap2\n      pop\n        /* \"#utility.yul\":6582:6859   */\n      pop\n        /* \"#utility.yul\":6521:6859   */\n      swap3\n      swap2\n      pop\n      pop\n      jump\t// out\n        /* \"#utility.yul\":6865:7662   */\n    tag_48:\n        /* \"#utility.yul\":6951:6957   */\n      0x00\n        /* \"#utility.yul\":6959:6965   */\n      dup1\n        /* \"#utility.yul\":6967:6973   */\n      0x00\n        /* \"#utility.yul\":7016:7018   */\n      0x60\n        /* \"#utility.yul\":7004:7013   */\n      dup5\n        /* \"#utility.yul\":6995:7002   */\n      dup7\n        /* \"#utility.yul\":6991:7014   */\n      sub\n        /* \"#utility.yul\":6987:7019   */\n      slt\n        /* \"#utility.yul\":6984:7103   */\n      iszero\n      tag_344\n      jumpi\n        /* \"#utility.yul\":7022:7101   */\n      tag_345\n      tag_200\n      jump\t// in\n    tag_345:\n        /* \"#utility.yul\":6984:7103   */\n    tag_344:\n        /* \"#utility.yul\":7142:7143   */\n      0x00\n        /* \"#utility.yul\":7167:7220   */\n      tag_346\n        /* \"#utility.yul\":7212:7219   */\n      dup7\n        /* \"#utility.yul\":7203:7209   */\n      dup3\n        /* \"#utility.yul\":7192:7201   */\n      dup8\n        /* \"#utility.yul\":7188:7210   */\n      add\n        /* \"#utility.yul\":7167:7220   */\n      tag_209\n      jump\t// in\n    tag_346:\n        /* \"#utility.yul\":7157:7220   */\n      swap4\n      pop\n        /* \"#utility.yul\":7113:7230   */\n      pop\n        /* \"#utility.yul\":7269:7271   */\n      0x20\n        /* \"#utility.yul\":7295:7348   */\n      tag_347\n        /* \"#utility.yul\":7340:7347   */\n      dup7\n        /* \"#utility.yul\":7331:7337   */\n      dup3\n        /* \"#utility.yul\":7320:7329   */\n      dup8\n        /* \"#utility.yul\":7316:7338   */\n      add\n        /* \"#utility.yul\":7295:7348   */\n      tag_204\n      jump\t// in\n    tag_347:\n        /* \"#utility.yul\":7285:7348   */\n      swap3\n      pop\n        /* \"#utility.yul\":7240:7358   */\n      pop\n        /* \"#utility.yul\":7425:7427   */\n      0x40\n        /* \"#utility.yul\":7414:7423   */\n      dup5\n        /* \"#utility.yul\":7410:7428   */\n      add\n        /* \"#utility.yul\":7397:7429   */\n      calldataload\n        /* \"#utility.yul\":7456:7474   */\n      0xffffffffffffffff\n        /* \"#utility.yul\":7448:7454   */\n      dup2\n        /* \"#utility.yul\":7445:7475   */\n      gt\n        /* \"#utility.yul\":7442:7559   */\n      iszero\n      tag_348\n      jumpi\n        /* \"#utility.yul\":7478:7557   */\n      tag_349\n      tag_201\n      jump\t// in\n    tag_349:\n        /* \"#utility.yul\":7442:7559   */\n    tag_348:\n        /* \"#utility.yul\":7583:7645   */\n      tag_350\n        /* \"#utility.yul\":7637:7644   */\n      dup7\n        /* \"#utility.yul\":7628:7634   */\n      dup3\n        /* \"#utility.yul\":7617:7626   */\n      dup8\n        /* \"#utility.yul\":7613:7635   */\n      add\n        /* \"#utility.yul\":7583:7645   */\n      tag_226\n      jump\t// in\n    tag_350:\n        /* \"#utility.yul\":7573:7645   */\n      swap2\n      pop\n        /* \"#utility.yul\":7368:7655   */\n      pop\n        /* \"#utility.yul\":6865:7662   */\n      swap3\n      pop\n      swap3\n      pop\n      swap3\n      jump\t// out\n        /* \"#utility.yul\":7668:7837   */\n    tag_227:\n        /* \"#utility.yul\":7752:7763   */\n      0x00\n        /* \"#utility.yul\":7786:7792   */\n      dup3\n        /* \"#utility.yul\":7781:7784   */\n      dup3\n        /* \"#utility.yul\":7774:7793   */\n      mstore\n        /* \"#utility.yul\":7826:7830   */\n      0x20\n        /* \"#utility.yul\":7821:7824   */\n      dup3\n        /* \"#utility.yul\":7817:7831   */\n      add\n        /* \"#utility.yul\":7802:7831   */\n      swap1\n      pop\n        /* \"#utility.yul\":7668:7837   */\n      swap3\n      swap2\n      pop\n      pop\n      jump\t// out\n        /* \"#utility.yul\":7843:8005   */\n    tag_228:\n        /* \"#utility.yul\":7983:7997   */\n      0x4e6f7420616e206f776e65720000000000000000000000000000000000000000\n        /* \"#utility.yul\":7979:7980   */\n      0x00\n        /* \"#utility.yul\":7971:7977   */\n      dup3\n        /* \"#utility.yul\":7967:7981   */\n      add\n        /* \"#utility.yul\":7960:7998   */\n      mstore\n        /* \"#utility.yul\":7843:8005   */\n      pop\n      jump\t// out\n        /* \"#utility.yul\":8011:8377   */\n    tag_229:\n        /* \"#utility.yul\":8153:8156   */\n      0x00\n        /* \"#utility.yul\":8174:8241   */\n      tag_354\n        /* \"#utility.yul\":8238:8240   */\n      0x0c\n        /* \"#utility.yul\":8233:8236   */\n      dup4\n        /* \"#utility.yul\":8174:8241   */\n      tag_227\n      jump\t// in\n    tag_354:\n        /* \"#utility.yul\":8167:8241   */\n      swap2\n      pop\n        /* \"#utility.yul\":8250:8343   */\n      tag_355\n        /* \"#utility.yul\":8339:8342   */\n      dup3\n        /* \"#utility.yul\":8250:8343   */\n      tag_228\n      jump\t// in\n    tag_355:\n        /* \"#utility.yul\":8368:8370   */\n      0x20\n        /* \"#utility.yul\":8363:8366   */\n      dup3\n        /* \"#utility.yul\":8359:8371   */\n      add\n        /* \"#utility.yul\":8352:8371   */\n      swap1\n      pop\n        /* \"#utility.yul\":8011:8377   */\n      swap2\n      swap1\n      pop\n      jump\t// out\n        /* \"#utility.yul\":8383:8802   */\n    tag_55:\n        /* \"#utility.yul\":8549:8553   */\n      0x00\n        /* \"#utility.yul\":8587:8589   */\n      0x20\n        /* \"#utility.yul\":8576:8585   */\n      dup3\n        /* \"#utility.yul\":8572:8590   */\n      add\n        /* \"#utility.yul\":8564:8590   */\n      swap1\n      pop\n        /* \"#utility.yul\":8636:8645   */\n      dup2\n        /* \"#utility.yul\":8630:8634   */\n      dup2\n        /* \"#utility.yul\":8626:8646   */\n      sub\n        /* \"#utility.yul\":8622:8623   */\n      0x00\n        /* \"#utility.yul\":8611:8620   */\n      dup4\n        /* \"#utility.yul\":8607:8624   */\n      add\n        /* \"#utility.yul\":8600:8647   */\n      mstore\n        /* \"#utility.yul\":8664:8795   */\n      tag_357\n        /* \"#utility.yul\":8790:8794   */\n      dup2\n        /* \"#utility.yul\":8664:8795   */\n      tag_229\n      jump\t// in\n    tag_357:\n        /* \"#utility.yul\":8656:8795   */\n      swap1\n      pop\n        /* \"#utility.yul\":8383:8802   */\n      swap2\n      swap1\n      pop\n      jump\t// out\n        /* \"#utility.yul\":8808:8986   */\n    tag_230:\n        /* \"#utility.yul\":8948:8978   */\n      0x43616e6e6f742072656d6f766520746865206c617374206f776e657200000000\n        /* \"#utility.yul\":8944:8945   */\n      0x00\n        /* \"#utility.yul\":8936:8942   */\n      dup3\n        /* \"#utility.yul\":8932:8946   */\n      add\n        /* \"#utility.yul\":8925:8979   */\n      mstore\n        /* \"#utility.yul\":8808:8986   */\n      pop\n      jump\t// out\n        /* \"#utility.yul\":8992:9358   */\n    tag_231:\n        /* \"#utility.yul\":9134:9137   */\n      0x00\n        /* \"#utility.yul\":9155:9222   */\n      tag_360\n        /* \"#utility.yul\":9219:9221   */\n      0x1c\n        /* \"#utility.yul\":9214:9217   */\n      dup4\n        /* \"#utility.yul\":9155:9222   */\n      tag_227\n      jump\t// in\n    tag_360:\n        /* \"#utility.yul\":9148:9222   */\n      swap2\n      pop\n        /* \"#utility.yul\":9231:9324   */\n      tag_361\n        /* \"#utility.yul\":9320:9323   */\n      dup3\n        /* \"#utility.yul\":9231:9324   */\n      tag_230\n      jump\t// in\n    tag_361:\n        /* \"#utility.yul\":9349:9351   */\n      0x20\n        /* \"#utility.yul\":9344:9347   */\n      dup3\n        /* \"#utility.yul\":9340:9352   */\n      add\n        /* \"#utility.yul\":9333:9352   */\n      swap1\n      pop\n        /* \"#utility.yul\":8992:9358   */\n      swap2\n      swap1\n      pop\n      jump\t// out\n        /* \"#utility.yul\":9364:9783   */\n    tag_61:\n        /* \"#utility.yul\":9530:9534   */\n      0x00\n        /* \"#utility.yul\":9568:9570   */\n      0x20\n        /* \"#utility.yul\":9557:9566   */\n      dup3\n        /* \"#utility.yul\":9553:9571   */\n      add\n        /* \"#utility.yul\":9545:9571   */\n      swap1\n      pop\n        /* \"#utility.yul\":9617:9626   */\n      dup2\n        /* \"#utility.yul\":9611:9615   */\n      dup2\n        /* \"#utility.yul\":9607:9627   */\n      sub\n        /* \"#utility.yul\":9603:9604   */\n      0x00\n        /* \"#utility.yul\":9592:9601   */\n      dup4\n        /* \"#utility.yul\":9588:9605   */\n      add\n        /* \"#utility.yul\":9581:9628   */\n      mstore\n        /* \"#utility.yul\":9645:9776   */\n      tag_363\n        /* \"#utility.yul\":9771:9775   */\n      dup2\n        /* \"#utility.yul\":9645:9776   */\n      tag_231\n      jump\t// in\n    tag_363:\n        /* \"#utility.yul\":9637:9776   */\n      swap1\n      pop\n        /* \"#utility.yul\":9364:9783   */\n      swap2\n      swap1\n      pop\n      jump\t// out\n        /* \"#utility.yul\":9789:9969   */\n    tag_67:\n        /* \"#utility.yul\":9837:9914   */\n      0x4e487b7100000000000000000000000000000000000000000000000000000000\n        /* \"#utility.yul\":9834:9835   */\n      0x00\n        /* \"#utility.yul\":9827:9915   */\n      mstore\n        /* \"#utility.yul\":9934:9938   */\n      0x32\n        /* \"#utility.yul\":9931:9932   */\n      0x04\n        /* \"#utility.yul\":9924:9939   */\n      mstore\n        /* \"#utility.yul\":9958:9962   */\n      0x24\n        /* \"#utility.yul\":9955:9956   */\n      0x00\n        /* \"#utility.yul\":9948:9963   */\n      revert\n        /* \"#utility.yul\":9975:10155   */\n    tag_232:\n        /* \"#utility.yul\":10023:10100   */\n      0x4e487b7100000000000000000000000000000000000000000000000000000000\n        /* \"#utility.yul\":10020:10021   */\n      0x00\n        /* \"#utility.yul\":10013:10101   */\n      mstore\n        /* \"#utility.yul\":10120:10124   */\n      0x11\n        /* \"#utility.yul\":10117:10118   */\n      0x04\n        /* \"#utility.yul\":10110:10125   */\n      mstore\n        /* \"#utility.yul\":10144:10148   */\n      0x24\n        /* \"#utility.yul\":10141:10142   */\n      0x00\n        /* \"#utility.yul\":10134:10149   */\n      revert\n        /* \"#utility.yul\":10161:10355   */\n    tag_71:\n        /* \"#utility.yul\":10201:10205   */\n      0x00\n        /* \"#utility.yul\":10221:10241   */\n      tag_367\n        /* \"#utility.yul\":10239:10240   */\n      dup3\n        /* \"#utility.yul\":10221:10241   */\n      tag_202\n      jump\t// in\n    tag_367:\n        /* \"#utility.yul\":10216:10241   */\n      swap2\n      pop\n        /* \"#utility.yul\":10255:10275   */\n      tag_368\n        /* \"#utility.yul\":10273:10274   */\n      dup4\n        /* \"#utility.yul\":10255:10275   */\n      tag_202\n      jump\t// in\n    tag_368:\n        /* \"#utility.yul\":10250:10275   */\n      swap3\n      pop\n        /* \"#utility.yul\":10299:10300   */\n      dup3\n        /* \"#utility.yul\":10296:10297   */\n      dup3\n        /* \"#utility.yul\":10292:10301   */\n      sub\n        /* \"#utility.yul\":10284:10301   */\n      swap1\n      pop\n        /* \"#utility.yul\":10323:10324   */\n      dup2\n        /* \"#utility.yul\":10317:10321   */\n      dup2\n        /* \"#utility.yul\":10314:10325   */\n      gt\n        /* \"#utility.yul\":10311:10348   */\n      iszero\n      tag_369\n      jumpi\n        /* \"#utility.yul\":10328:10346   */\n      tag_370\n      tag_232\n      jump\t// in\n    tag_370:\n        /* \"#utility.yul\":10311:10348   */\n    tag_369:\n        /* \"#utility.yul\":10161:10355   */\n      swap3\n      swap2\n      pop\n      pop\n      jump\t// out\n        /* \"#utility.yul\":10361:10541   */\n    tag_80:\n        /* \"#utility.yul\":10409:10486   */\n      0x4e487b7100000000000000000000000000000000000000000000000000000000\n        /* \"#utility.yul\":10406:10407   */\n      0x00\n        /* \"#utility.yul\":10399:10487   */\n      mstore\n        /* \"#utility.yul\":10506:10510   */\n      0x31\n        /* \"#utility.yul\":10503:10504   */\n      0x04\n        /* \"#utility.yul\":10496:10511   */\n      mstore\n        /* \"#utility.yul\":10530:10534   */\n      0x24\n        /* \"#utility.yul\":10527:10528   */\n      0x00\n        /* \"#utility.yul\":10520:10535   */\n      revert\n        /* \"#utility.yul\":10547:10723   */\n    tag_233:\n        /* \"#utility.yul\":10687:10715   */\n      0x5472616e73616374696f6e20646f6573206e6f74206578697374000000000000\n        /* \"#utility.yul\":10683:10684   */\n      0x00\n        /* \"#utility.yul\":10675:10681   */\n      dup3\n        /* \"#utility.yul\":10671:10685   */\n      add\n        /* \"#utility.yul\":10664:10716   */\n      mstore\n        /* \"#utility.yul\":10547:10723   */\n      pop\n      jump\t// out\n        /* \"#utility.yul\":10729:11095   */\n    tag_234:\n        /* \"#utility.yul\":10871:10874   */\n      0x00\n        /* \"#utility.yul\":10892:10959   */\n      tag_374\n        /* \"#utility.yul\":10956:10958   */\n      0x1a\n        /* \"#utility.yul\":10951:10954   */\n      dup4\n        /* \"#utility.yul\":10892:10959   */\n      tag_227\n      jump\t// in\n    tag_374:\n        /* \"#utility.yul\":10885:10959   */\n      swap2\n      pop\n        /* \"#utility.yul\":10968:11061   */\n      tag_375\n        /* \"#utility.yul\":11057:11060   */\n      dup3\n        /* \"#utility.yul\":10968:11061   */\n      tag_233\n      jump\t// in\n    tag_375:\n        /* \"#utility.yul\":11086:11088   */\n      0x20\n        /* \"#utility.yul\":11081:11084   */\n      dup3\n        /* \"#utility.yul\":11077:11089   */\n      add\n        /* \"#utility.yul\":11070:11089   */\n      swap1\n      pop\n        /* \"#utility.yul\":10729:11095   */\n      swap2\n      swap1\n      pop\n      jump\t// out\n        /* \"#utility.yul\":11101:11520   */\n    tag_89:\n        /* \"#utility.yul\":11267:11271   */\n      0x00\n        /* \"#utility.yul\":11305:11307   */\n      0x20\n        /* \"#utility.yul\":11294:11303   */\n      dup3\n        /* \"#utility.yul\":11290:11308   */\n      add\n        /* \"#utility.yul\":11282:11308   */\n      swap1\n      pop\n        /* \"#utility.yul\":11354:11363   */\n      dup2\n        /* \"#utility.yul\":11348:11352   */\n      dup2\n        /* \"#utility.yul\":11344:11364   */\n      sub\n        /* \"#utility.yul\":11340:11341   */\n      0x00\n        /* \"#utility.yul\":11329:11338   */\n      dup4\n        /* \"#utility.yul\":11325:11342   */\n      add\n        /* \"#utility.yul\":11318:11365   */\n      mstore\n        /* \"#utility.yul\":11382:11513   */\n      tag_377\n        /* \"#utility.yul\":11508:11512   */\n      dup2\n        /* \"#utility.yul\":11382:11513   */\n      tag_234\n      jump\t// in\n    tag_377:\n        /* \"#utility.yul\":11374:11513   */\n      swap1\n      pop\n        /* \"#utility.yul\":11101:11520   */\n      swap2\n      swap1\n      pop\n      jump\t// out\n        /* \"#utility.yul\":11526:11704   */\n    tag_235:\n        /* \"#utility.yul\":11666:11696   */\n      0x5472616e73616374696f6e20616c726561647920657865637574656400000000\n        /* \"#utility.yul\":11662:11663   */\n      0x00\n        /* \"#utility.yul\":11654:11660   */\n      dup3\n        /* \"#utility.yul\":11650:11664   */\n      add\n        /* \"#utility.yul\":11643:11697   */\n      mstore\n        /* \"#utility.yul\":11526:11704   */\n      pop\n      jump\t// out\n        /* \"#utility.yul\":11710:12076   */\n    tag_236:\n        /* \"#utility.yul\":11852:11855   */\n      0x00\n        /* \"#utility.yul\":11873:11940   */\n      tag_380\n        /* \"#utility.yul\":11937:11939   */\n      0x1c\n        /* \"#utility.yul\":11932:11935   */\n      dup4\n        /* \"#utility.yul\":11873:11940   */\n      tag_227\n      jump\t// in\n    tag_380:\n        /* \"#utility.yul\":11866:11940   */\n      swap2\n      pop\n        /* \"#utility.yul\":11949:12042   */\n      tag_381\n        /* \"#utility.yul\":12038:12041   */\n      dup3\n        /* \"#utility.yul\":11949:12042   */\n      tag_235\n      jump\t// in\n    tag_381:\n        /* \"#utility.yul\":12067:12069   */\n      0x20\n        /* \"#utility.yul\":12062:12065   */\n      dup3\n        /* \"#utility.yul\":12058:12070   */\n      add\n        /* \"#utility.yul\":12051:12070   */\n      swap1\n      pop\n        /* \"#utility.yul\":11710:12076   */\n      swap2\n      swap1\n      pop\n      jump\t// out\n        /* \"#utility.yul\":12082:12501   */\n    tag_96:\n        /* \"#utility.yul\":12248:12252   */\n      0x00\n        /* \"#utility.yul\":12286:12288   */\n      0x20\n        /* \"#utility.yul\":12275:12284   */\n      dup3\n        /* \"#utility.yul\":12271:12289   */\n      add\n        /* \"#utility.yul\":12263:12289   */\n      swap1\n      pop\n        /* \"#utility.yul\":12335:12344   */\n      dup2\n        /* \"#utility.yul\":12329:12333   */\n      dup2\n        /* \"#utility.yul\":12325:12345   */\n      sub\n        /* \"#utility.yul\":12321:12322   */\n      0x00\n        /* \"#utility.yul\":12310:12319   */\n      dup4\n        /* \"#utility.yul\":12306:12323   */\n      add\n        /* \"#utility.yul\":12299:12346   */\n      mstore\n        /* \"#utility.yul\":12363:12494   */\n      tag_383\n        /* \"#utility.yul\":12489:12493   */\n      dup2\n        /* \"#utility.yul\":12363:12494   */\n      tag_236\n      jump\t// in\n    tag_383:\n        /* \"#utility.yul\":12355:12494   */\n      swap1\n      pop\n        /* \"#utility.yul\":12082:12501   */\n      swap2\n      swap1\n      pop\n      jump\t// out\n        /* \"#utility.yul\":12507:12736   */\n    tag_237:\n        /* \"#utility.yul\":12647:12681   */\n      0x5472616e73616374696f6e20616c726561647920617070726f76656420627920\n        /* \"#utility.yul\":12643:12644   */\n      0x00\n        /* \"#utility.yul\":12635:12641   */\n      dup3\n        /* \"#utility.yul\":12631:12645   */\n      add\n        /* \"#utility.yul\":12624:12682   */\n      mstore\n        /* \"#utility.yul\":12716:12728   */\n      0x74686973206f776e657200000000000000000000000000000000000000000000\n        /* \"#utility.yul\":12711:12713   */\n      0x20\n        /* \"#utility.yul\":12703:12709   */\n      dup3\n        /* \"#utility.yul\":12699:12714   */\n      add\n        /* \"#utility.yul\":12692:12729   */\n      mstore\n        /* \"#utility.yul\":12507:12736   */\n      pop\n      jump\t// out\n        /* \"#utility.yul\":12742:13108   */\n    tag_238:\n        /* \"#utility.yul\":12884:12887   */\n      0x00\n        /* \"#utility.yul\":12905:12972   */\n      tag_386\n        /* \"#utility.yul\":12969:12971   */\n      0x2a\n        /* \"#utility.yul\":12964:12967   */\n      dup4\n        /* \"#utility.yul\":12905:12972   */\n      tag_227\n      jump\t// in\n    tag_386:\n        /* \"#utility.yul\":12898:12972   */\n      swap2\n      pop\n        /* \"#utility.yul\":12981:13074   */\n      tag_387\n        /* \"#utility.yul\":13070:13073   */\n      dup3\n        /* \"#utility.yul\":12981:13074   */\n      tag_237\n      jump\t// in\n    tag_387:\n        /* \"#utility.yul\":13099:13101   */\n      0x40\n        /* \"#utility.yul\":13094:13097   */\n      dup3\n        /* \"#utility.yul\":13090:13102   */\n      add\n        /* \"#utility.yul\":13083:13102   */\n      swap1\n      pop\n        /* \"#utility.yul\":12742:13108   */\n      swap2\n      swap1\n      pop\n      jump\t// out\n        /* \"#utility.yul\":13114:13533   */\n    tag_103:\n        /* \"#utility.yul\":13280:13284   */\n      0x00\n        /* \"#utility.yul\":13318:13320   */\n      0x20\n        /* \"#utility.yul\":13307:13316   */\n      dup3\n        /* \"#utility.yul\":13303:13321   */\n      add\n        /* \"#utility.yul\":13295:13321   */\n      swap1\n      pop\n        /* \"#utility.yul\":13367:13376   */\n      dup2\n        /* \"#utility.yul\":13361:13365   */\n      dup2\n        /* \"#utility.yul\":13357:13377   */\n      sub\n        /* \"#utility.yul\":13353:13354   */\n      0x00\n        /* \"#utility.yul\":13342:13351   */\n      dup4\n        /* \"#utility.yul\":13338:13355   */\n      add\n        /* \"#utility.yul\":13331:13378   */\n      mstore\n        /* \"#utility.yul\":13395:13526   */\n      tag_389\n        /* \"#utility.yul\":13521:13525   */\n      dup2\n        /* \"#utility.yul\":13395:13526   */\n      tag_238\n      jump\t// in\n    tag_389:\n        /* \"#utility.yul\":13387:13526   */\n      swap1\n      pop\n        /* \"#utility.yul\":13114:13533   */\n      swap2\n      swap1\n      pop\n      jump\t// out\n        /* \"#utility.yul\":13539:13772   */\n    tag_112:\n        /* \"#utility.yul\":13578:13581   */\n      0x00\n        /* \"#utility.yul\":13601:13625   */\n      tag_391\n        /* \"#utility.yul\":13619:13624   */\n      dup3\n        /* \"#utility.yul\":13601:13625   */\n      tag_202\n      jump\t// in\n    tag_391:\n        /* \"#utility.yul\":13592:13625   */\n      swap2\n      pop\n        /* \"#utility.yul\":13647:13713   */\n      0xffffffffffffffffffffffffffffffffffffffffffffffffffffffffffffffff\n        /* \"#utility.yul\":13640:13645   */\n      dup3\n        /* \"#utility.yul\":13637:13714   */\n      sub\n        /* \"#utility.yul\":13634:13737   */\n      tag_392\n      jumpi\n        /* \"#utility.yul\":13717:13735   */\n      tag_393\n      tag_232\n      jump\t// in\n    tag_393:\n        /* \"#utility.yul\":13634:13737   */\n    tag_392:\n        /* \"#utility.yul\":13764:13765   */\n      0x01\n        /* \"#utility.yul\":13757:13762   */\n      dup3\n        /* \"#utility.yul\":13753:13766   */\n      add\n        /* \"#utility.yul\":13746:13766   */\n      swap1\n      pop\n        /* \"#utility.yul\":13539:13772   */\n      swap2\n      swap1\n      pop\n      jump\t// out\n        /* \"#utility.yul\":13778:14110   */\n    tag_114:\n        /* \"#utility.yul\":13899:13903   */\n      0x00\n        /* \"#utility.yul\":13937:13939   */\n      0x40\n        /* \"#utility.yul\":13926:13935   */\n      dup3\n        /* \"#utility.yul\":13922:13940   */\n      add\n        /* \"#utility.yul\":13914:13940   */\n      swap1\n      pop\n        /* \"#utility.yul\":13950:14021   */\n      tag_395\n        /* \"#utility.yul\":14018:14019   */\n      0x00\n        /* \"#utility.yul\":14007:14016   */\n      dup4\n        /* \"#utility.yul\":14003:14020   */\n      add\n        /* \"#utility.yul\":13994:14000   */\n      dup6\n        /* \"#utility.yul\":13950:14021   */\n      tag_212\n      jump\t// in\n    tag_395:\n        /* \"#utility.yul\":14031:14103   */\n      tag_396\n        /* \"#utility.yul\":14099:14101   */\n      0x20\n        /* \"#utility.yul\":14088:14097   */\n      dup4\n        /* \"#utility.yul\":14084:14102   */\n      add\n        /* \"#utility.yul\":14075:14081   */\n      dup5\n        /* \"#utility.yul\":14031:14103   */\n      tag_207\n      jump\t// in\n    tag_396:\n        /* \"#utility.yul\":13778:14110   */\n      swap4\n      swap3\n      pop\n      pop\n      pop\n      jump\t// out\n        /* \"#utility.yul\":14116:14279   */\n    tag_239:\n        /* \"#utility.yul\":14256:14271   */\n      0x496e76616c6964206f776e657200000000000000000000000000000000000000\n        /* \"#utility.yul\":14252:14253   */\n      0x00\n        /* \"#utility.yul\":14244:14250   */\n      dup3\n        /* \"#utility.yul\":14240:14254   */\n      add\n        /* \"#utility.yul\":14233:14272   */\n      mstore\n        /* \"#utility.yul\":14116:14279   */\n      pop\n      jump\t// out\n        /* \"#utility.yul\":14285:14651   */\n    tag_240:\n        /* \"#utility.yul\":14427:14430   */\n      0x00\n        /* \"#utility.yul\":14448:14515   */\n      tag_399\n        /* \"#utility.yul\":14512:14514   */\n      0x0d\n        /* \"#utility.yul\":14507:14510   */\n      dup4\n        /* \"#utility.yul\":14448:14515   */\n      tag_227\n      jump\t// in\n    tag_399:\n        /* \"#utility.yul\":14441:14515   */\n      swap2\n      pop\n        /* \"#utility.yul\":14524:14617   */\n      tag_400\n        /* \"#utility.yul\":14613:14616   */\n      dup3\n        /* \"#utility.yul\":14524:14617   */\n      tag_239\n      jump\t// in\n    tag_400:\n        /* \"#utility.yul\":14642:14644   */\n      0x20\n        /* \"#utility.yul\":14637:14640   */\n      dup3\n        /* \"#utility.yul\":14633:14645   */\n      add\n        /* \"#utility.yul\":14626:14645   */\n      swap1\n      pop\n        /* \"#utility.yul\":14285:14651   */\n      swap2\n      swap1\n      pop\n      jump\t// out\n        /* \"#utility.yul\":14657:15076   */\n    tag_145:\n        /* \"#utility.yul\":14823:14827   */\n      0x00\n        /* \"#utility.yul\":14861:14863   */\n      0x20\n        /* \"#utility.yul\":14850:14859   */\n      dup3\n        /* \"#utility.yul\":14846:14864   */\n      add\n        /* \"#utility.yul\":14838:14864   */\n      swap1\n      pop\n        /* \"#utility.yul\":14910:14919   */\n      dup2\n        /* \"#utility.yul\":14904:14908   */\n      dup2\n        /* \"#utility.yul\":14900:14920   */\n      sub\n        /* \"#utility.yul\":14896:14897   */\n      0x00\n        /* \"#utility.yul\":14885:14894   */\n      dup4\n        /* \"#utility.yul\":14881:14898   */\n      add\n        /* \"#utility.yul\":14874:14921   */\n      mstore\n        /* \"#utility.yul\":14938:15069   */\n      tag_402\n        /* \"#utility.yul\":15064:15068   */\n      dup2\n        /* \"#utility.yul\":14938:15069   */\n      tag_240\n      jump\t// in\n    tag_402:\n        /* \"#utility.yul\":14930:15069   */\n      swap1\n      pop\n        /* \"#utility.yul\":14657:15076   */\n      swap2\n      swap1\n      pop\n      jump\t// out\n        /* \"#utility.yul\":15082:15262   */\n    tag_241:\n        /* \"#utility.yul\":15130:15207   */\n      0x4e487b7100000000000000000000000000000000000000000000000000000000\n        /* \"#utility.yul\":15127:15128   */\n      0x00\n        /* \"#utility.yul\":15120:15208   */\n      mstore\n        /* \"#utility.yul\":15227:15231   */\n      0x22\n        /* \"#utility.yul\":15224:15225   */\n      0x04\n        /* \"#utility.yul\":15217:15232   */\n      mstore\n        /* \"#utility.yul\":15251:15255   */\n      0x24\n        /* \"#utility.yul\":15248:15249   */\n      0x00\n        /* \"#utility.yul\":15241:15256   */\n      revert\n        /* \"#utility.yul\":15268:15588   */\n    tag_151:\n        /* \"#utility.yul\":15312:15318   */\n      0x00\n        /* \"#utility.yul\":15349:15350   */\n      0x02\n        /* \"#utility.yul\":15343:15347   */\n      dup3\n        /* \"#utility.yul\":15339:15351   */\n      div\n        /* \"#utility.yul\":15329:15351   */\n      swap1\n      pop\n        /* \"#utility.yul\":15396:15397   */\n      0x01\n        /* \"#utility.yul\":15390:15394   */\n      dup3\n        /* \"#utility.yul\":15386:15398   */\n      and\n        /* \"#utility.yul\":15417:15435   */\n      dup1\n        /* \"#utility.yul\":15407:15488   */\n      tag_405\n      jumpi\n        /* \"#utility.yul\":15473:15477   */\n      0x7f\n        /* \"#utility.yul\":15465:15471   */\n      dup3\n        /* \"#utility.yul\":15461:15478   */\n      and\n        /* \"#utility.yul\":15451:15478   */\n      swap2\n      pop\n        /* \"#utility.yul\":15407:15488   */\n    tag_405:\n        /* \"#utility.yul\":15535:15537   */\n      0x20\n        /* \"#utility.yul\":15527:15533   */\n      dup3\n        /* \"#utility.yul\":15524:15538   */\n      lt\n        /* \"#utility.yul\":15504:15522   */\n      dup2\n        /* \"#utility.yul\":15501:15539   */\n      sub\n        /* \"#utility.yul\":15498:15582   */\n      tag_406\n      jumpi\n        /* \"#utility.yul\":15554:15572   */\n      tag_407\n      tag_241\n      jump\t// in\n    tag_407:\n        /* \"#utility.yul\":15498:15582   */\n    tag_406:\n        /* \"#utility.yul\":15319:15588   */\n      pop\n        /* \"#utility.yul\":15268:15588   */\n      swap2\n      swap1\n      pop\n      jump\t// out\n        /* \"#utility.yul\":15594:15734   */\n    tag_242:\n        /* \"#utility.yul\":15642:15646   */\n      0x00\n        /* \"#utility.yul\":15665:15668   */\n      dup2\n        /* \"#utility.yul\":15657:15668   */\n      swap1\n      pop\n        /* \"#utility.yul\":15688:15691   */\n      dup2\n        /* \"#utility.yul\":15685:15686   */\n      0x00\n        /* \"#utility.yul\":15678:15692   */\n      mstore\n        /* \"#utility.yul\":15722:15726   */\n      0x20\n        /* \"#utility.yul\":15719:15720   */\n      0x00\n        /* \"#utility.yul\":15709:15727   */\n      keccak256\n        /* \"#utility.yul\":15701:15727   */\n      swap1\n      pop\n        /* \"#utility.yul\":15594:15734   */\n      swap2\n      swap1\n      pop\n      jump\t// out\n        /* \"#utility.yul\":15740:15833   */\n    tag_243:\n        /* \"#utility.yul\":15777:15783   */\n      0x00\n        /* \"#utility.yul\":15824:15826   */\n      0x20\n        /* \"#utility.yul\":15819:15821   */\n      0x1f\n        /* \"#utility.yul\":15812:15817   */\n      dup4\n        /* \"#utility.yul\":15808:15822   */\n      add\n        /* \"#utility.yul\":15804:15827   */\n      div\n        /* \"#utility.yul\":15794:15827   */\n      swap1\n      pop\n        /* \"#utility.yul\":15740:15833   */\n      swap2\n      swap1\n      pop\n      jump\t// out\n        /* \"#utility.yul\":15839:15946   */\n    tag_244:\n        /* \"#utility.yul\":15883:15891   */\n      0x00\n        /* \"#utility.yul\":15933:15938   */\n      dup3\n        /* \"#utility.yul\":15927:15931   */\n      dup3\n        /* \"#utility.yul\":15923:15939   */\n      shl\n        /* \"#utility.yul\":15902:15939   */\n      swap1\n      pop\n        /* \"#utility.yul\":15839:15946   */\n      swap3\n      swap2\n      pop\n      pop\n      jump\t// out\n        /* \"#utility.yul\":15952:16345   */\n    tag_245:\n        /* \"#utility.yul\":16021:16027   */\n      0x00\n        /* \"#utility.yul\":16071:16072   */\n      0x08\n        /* \"#utility.yul\":16059:16069   */\n      dup4\n        /* \"#utility.yul\":16055:16073   */\n      mul\n        /* \"#utility.yul\":16094:16191   */\n      tag_412\n        /* \"#utility.yul\":16124:16190   */\n      0xffffffffffffffffffffffffffffffffffffffffffffffffffffffffffffffff\n        /* \"#utility.yul\":16113:16122   */\n      dup3\n        /* \"#utility.yul\":16094:16191   */\n      tag_244\n      jump\t// in\n    tag_412:\n        /* \"#utility.yul\":16212:16251   */\n      tag_413\n        /* \"#utility.yul\":16242:16250   */\n      dup7\n        /* \"#utility.yul\":16231:16240   */\n      dup4\n        /* \"#utility.yul\":16212:16251   */\n      tag_244\n      jump\t// in\n    tag_413:\n        /* \"#utility.yul\":16200:16251   */\n      swap6\n      pop\n        /* \"#utility.yul\":16284:16288   */\n      dup1\n        /* \"#utility.yul\":16280:16289   */\n      not\n        /* \"#utility.yul\":16273:16278   */\n      dup5\n        /* \"#utility.yul\":16269:16290   */\n      and\n        /* \"#utility.yul\":16260:16290   */\n      swap4\n      pop\n        /* \"#utility.yul\":16333:16337   */\n      dup1\n        /* \"#utility.yul\":16323:16331   */\n      dup7\n        /* \"#utility.yul\":16319:16338   */\n      and\n        /* \"#utility.yul\":16312:16317   */\n      dup5\n        /* \"#utility.yul\":16309:16339   */\n      or\n        /* \"#utility.yul\":16299:16339   */\n      swap3\n      pop\n        /* \"#utility.yul\":16028:16345   */\n      pop\n      pop\n        /* \"#utility.yul\":15952:16345   */\n      swap4\n      swap3\n      pop\n      pop\n      pop\n      jump\t// out\n        /* \"#utility.yul\":16351:16411   */\n    tag_246:\n        /* \"#utility.yul\":16379:16382   */\n      0x00\n        /* \"#utility.yul\":16400:16405   */\n      dup2\n        /* \"#utility.yul\":16393:16405   */\n      swap1\n      pop\n        /* \"#utility.yul\":16351:16411   */\n      swap2\n      swap1\n      pop\n      jump\t// out\n        /* \"#utility.yul\":16417:16559   */\n    tag_247:\n        /* \"#utility.yul\":16467:16476   */\n      0x00\n        /* \"#utility.yul\":16500:16553   */\n      tag_416\n        /* \"#utility.yul\":16518:16552   */\n      tag_417\n        /* \"#utility.yul\":16527:16551   */\n      tag_418\n        /* \"#utility.yul\":16545:16550   */\n      dup5\n        /* \"#utility.yul\":16527:16551   */\n      tag_202\n      jump\t// in\n    tag_418:\n        /* \"#utility.yul\":16518:16552   */\n      tag_246\n      jump\t// in\n    tag_417:\n        /* \"#utility.yul\":16500:16553   */\n      tag_202\n      jump\t// in\n    tag_416:\n        /* \"#utility.yul\":16487:16553   */\n      swap1\n      pop\n        /* \"#utility.yul\":16417:16559   */\n      swap2\n      swap1\n      pop\n      jump\t// out\n        /* \"#utility.yul\":16565:16640   */\n    tag_248:\n        /* \"#utility.yul\":16608:16611   */\n      0x00\n        /* \"#utility.yul\":16629:16634   */\n      dup2\n        /* \"#utility.yul\":16622:16634   */\n      swap1\n      pop\n        /* \"#utility.yul\":16565:16640   */\n      swap2\n      swap1\n      pop\n      jump\t// out\n        /* \"#utility.yul\":16646:16915   */\n    tag_249:\n        /* \"#utility.yul\":16756:16795   */\n      tag_421\n        /* \"#utility.yul\":16787:16794   */\n      dup4\n        /* \"#utility.yul\":16756:16795   */\n      tag_247\n      jump\t// in\n    tag_421:\n        /* \"#utility.yul\":16817:16908   */\n      tag_422\n        /* \"#utility.yul\":16866:16907   */\n      tag_423\n        /* \"#utility.yul\":16890:16906   */\n      dup3\n        /* \"#utility.yul\":16866:16907   */\n      tag_248\n      jump\t// in\n    tag_423:\n        /* \"#utility.yul\":16858:16864   */\n      dup5\n        /* \"#utility.yul\":16851:16855   */\n      dup5\n        /* \"#utility.yul\":16845:16856   */\n      sload\n        /* \"#utility.yul\":16817:16908   */\n      tag_245\n      jump\t// in\n    tag_422:\n        /* \"#utility.yul\":16811:16815   */\n      dup3\n        /* \"#utility.yul\":16804:16909   */\n      sstore\n        /* \"#utility.yul\":16722:16915   */\n      pop\n        /* \"#utility.yul\":16646:16915   */\n      pop\n      pop\n      pop\n      jump\t// out\n        /* \"#utility.yul\":16921:16994   */\n    tag_250:\n        /* \"#utility.yul\":16966:16969   */\n      0x00\n        /* \"#utility.yul\":16921:16994   */\n      swap1\n      jump\t// out\n        /* \"#utility.yul\":17000:17189   */\n    tag_251:\n        /* \"#utility.yul\":17077:17109   */\n      tag_426\n      tag_250\n      jump\t// in\n    tag_426:\n        /* \"#utility.yul\":17118:17183   */\n      tag_427\n        /* \"#utility.yul\":17176:17182   */\n      dup2\n        /* \"#utility.yul\":17168:17174   */\n      dup5\n        /* \"#utility.yul\":17162:17166   */\n      dup5\n        /* \"#utility.yul\":17118:17183   */\n      tag_249\n      jump\t// in\n    tag_427:\n        /* \"#utility.yul\":17053:17189   */\n      pop\n        /* \"#utility.yul\":17000:17189   */\n      pop\n      pop\n      jump\t// out\n        /* \"#utility.yul\":17195:17381   */\n    tag_252:\n        /* \"#utility.yul\":17255:17375   */\n    tag_429:\n        /* \"#utility.yul\":17272:17275   */\n      dup2\n        /* \"#utility.yul\":17265:17270   */\n      dup2\n        /* \"#utility.yul\":17262:17276   */\n      lt\n        /* \"#utility.yul\":17255:17375   */\n      iszero\n      tag_431\n      jumpi\n        /* \"#utility.yul\":17326:17365   */\n      tag_432\n        /* \"#utility.yul\":17363:17364   */\n      0x00\n        /* \"#utility.yul\":17356:17361   */\n      dup3\n        /* \"#utility.yul\":17326:17365   */\n      tag_251\n      jump\t// in\n    tag_432:\n        /* \"#utility.yul\":17299:17300   */\n      0x01\n        /* \"#utility.yul\":17292:17297   */\n      dup2\n        /* \"#utility.yul\":17288:17301   */\n      add\n        /* \"#utility.yul\":17279:17301   */\n      swap1\n      pop\n        /* \"#utility.yul\":17255:17375   */\n      jump(tag_429)\n    tag_431:\n        /* \"#utility.yul\":17195:17381   */\n      pop\n      pop\n      jump\t// out\n        /* \"#utility.yul\":17387:17928   */\n    tag_253:\n        /* \"#utility.yul\":17487:17489   */\n      0x1f\n        /* \"#utility.yul\":17482:17485   */\n      dup3\n        /* \"#utility.yul\":17479:17490   */\n      gt\n        /* \"#utility.yul\":17476:17921   */\n      iszero\n      tag_434\n      jumpi\n        /* \"#utility.yul\":17521:17558   */\n      tag_435\n        /* \"#utility.yul\":17552:17557   */\n      dup2\n        /* \"#utility.yul\":17521:17558   */\n      tag_242\n      jump\t// in\n    tag_435:\n        /* \"#utility.yul\":17604:17633   */\n      tag_436\n        /* \"#utility.yul\":17622:17632   */\n      dup5\n        /* \"#utility.yul\":17604:17633   */\n      tag_243\n      jump\t// in\n    tag_436:\n        /* \"#utility.yul\":17594:17602   */\n      dup2\n        /* \"#utility.yul\":17590:17634   */\n      add\n        /* \"#utility.yul\":17787:17789   */\n      0x20\n        /* \"#utility.yul\":17775:17785   */\n      dup6\n        /* \"#utility.yul\":17772:17790   */\n      lt\n        /* \"#utility.yul\":17769:17818   */\n      iszero\n      tag_437\n      jumpi\n        /* \"#utility.yul\":17808:17816   */\n      dup2\n        /* \"#utility.yul\":17793:17816   */\n      swap1\n      pop\n        /* \"#utility.yul\":17769:17818   */\n    tag_437:\n        /* \"#utility.yul\":17831:17911   */\n      tag_438\n        /* \"#utility.yul\":17887:17909   */\n      tag_439\n        /* \"#utility.yul\":17905:17908   */\n      dup6\n        /* \"#utility.yul\":17887:17909   */\n      tag_243\n      jump\t// in\n    tag_439:\n        /* \"#utility.yul\":17877:17885   */\n      dup4\n        /* \"#utility.yul\":17873:17910   */\n      add\n        /* \"#utility.yul\":17860:17871   */\n      dup3\n        /* \"#utility.yul\":17831:17911   */\n      tag_252\n      jump\t// in\n    tag_438:\n        /* \"#utility.yul\":17491:17921   */\n      pop\n      pop\n        /* \"#utility.yul\":17476:17921   */\n    tag_434:\n        /* \"#utility.yul\":17387:17928   */\n      pop\n      pop\n      pop\n      jump\t// out\n        /* \"#utility.yul\":17934:18051   */\n    tag_254:\n        /* \"#utility.yul\":17988:17996   */\n      0x00\n        /* \"#utility.yul\":18038:18043   */\n      dup3\n        /* \"#utility.yul\":18032:18036   */\n      dup3\n        /* \"#utility.yul\":18028:18044   */\n      shr\n        /* \"#utility.yul\":18007:18044   */\n      swap1\n      pop\n        /* \"#utility.yul\":17934:18051   */\n      swap3\n      swap2\n      pop\n      pop\n      jump\t// out\n        /* \"#utility.yul\":18057:18226   */\n    tag_255:\n        /* \"#utility.yul\":18101:18107   */\n      0x00\n        /* \"#utility.yul\":18134:18185   */\n      tag_442\n        /* \"#utility.yul\":18182:18183   */\n      0x00\n        /* \"#utility.yul\":18178:18184   */\n      not\n        /* \"#utility.yul\":18170:18175   */\n      dup5\n        /* \"#utility.yul\":18167:18168   */\n      0x08\n        /* \"#utility.yul\":18163:18176   */\n      mul\n        /* \"#utility.yul\":18134:18185   */\n      tag_254\n      jump\t// in\n    tag_442:\n        /* \"#utility.yul\":18130:18186   */\n      not\n        /* \"#utility.yul\":18215:18219   */\n      dup1\n        /* \"#utility.yul\":18209:18213   */\n      dup4\n        /* \"#utility.yul\":18205:18220   */\n      and\n        /* \"#utility.yul\":18195:18220   */\n      swap2\n      pop\n        /* \"#utility.yul\":18108:18226   */\n      pop\n        /* \"#utility.yul\":18057:18226   */\n      swap3\n      swap2\n      pop\n      pop\n      jump\t// out\n        /* \"#utility.yul\":18231:18526   */\n    tag_256:\n        /* \"#utility.yul\":18307:18311   */\n      0x00\n        /* \"#utility.yul\":18453:18482   */\n      tag_444\n        /* \"#utility.yul\":18478:18481   */\n      dup4\n        /* \"#utility.yul\":18472:18476   */\n      dup4\n        /* \"#utility.yul\":18453:18482   */\n      tag_255\n      jump\t// in\n    tag_444:\n        /* \"#utility.yul\":18445:18482   */\n      swap2\n      pop\n        /* \"#utility.yul\":18515:18518   */\n      dup3\n        /* \"#utility.yul\":18512:18513   */\n      0x02\n        /* \"#utility.yul\":18508:18519   */\n      mul\n        /* \"#utility.yul\":18502:18506   */\n      dup3\n        /* \"#utility.yul\":18499:18520   */\n      or\n        /* \"#utility.yul\":18491:18520   */\n      swap1\n      pop\n        /* \"#utility.yul\":18231:18526   */\n      swap3\n      swap2\n      pop\n      pop\n      jump\t// out\n        /* \"#utility.yul\":18531:19921   */\n    tag_165:\n        /* \"#utility.yul\":18646:18682   */\n      tag_446\n        /* \"#utility.yul\":18678:18681   */\n      dup3\n        /* \"#utility.yul\":18646:18682   */\n      tag_213\n      jump\t// in\n    tag_446:\n        /* \"#utility.yul\":18747:18765   */\n      0xffffffffffffffff\n        /* \"#utility.yul\":18739:18745   */\n      dup2\n        /* \"#utility.yul\":18736:18766   */\n      gt\n        /* \"#utility.yul\":18733:18789   */\n      iszero\n      tag_447\n      jumpi\n        /* \"#utility.yul\":18769:18787   */\n      tag_448\n      tag_220\n      jump\t// in\n    tag_448:\n        /* \"#utility.yul\":18733:18789   */\n    tag_447:\n        /* \"#utility.yul\":18813:18851   */\n      tag_449\n        /* \"#utility.yul\":18845:18849   */\n      dup3\n        /* \"#utility.yul\":18839:18850   */\n      sload\n        /* \"#utility.yul\":18813:18851   */\n      tag_151\n      jump\t// in\n    tag_449:\n        /* \"#utility.yul\":18898:18964   */\n      tag_450\n        /* \"#utility.yul\":18957:18963   */\n      dup3\n        /* \"#utility.yul\":18949:18955   */\n      dup3\n        /* \"#utility.yul\":18943:18947   */\n      dup6\n        /* \"#utility.yul\":18898:18964   */\n      tag_253\n      jump\t// in\n    tag_450:\n        /* \"#utility.yul\":18991:18992   */\n      0x00\n        /* \"#utility.yul\":19015:19019   */\n      0x20\n        /* \"#utility.yul\":19002:19019   */\n      swap1\n      pop\n        /* \"#utility.yul\":19047:19049   */\n      0x1f\n        /* \"#utility.yul\":19039:19045   */\n      dup4\n        /* \"#utility.yul\":19036:19050   */\n      gt\n        /* \"#utility.yul\":19064:19065   */\n      0x01\n        /* \"#utility.yul\":19059:19676   */\n      dup2\n      eq\n      tag_452\n      jumpi\n        /* \"#utility.yul\":19720:19721   */\n      0x00\n        /* \"#utility.yul\":19737:19743   */\n      dup5\n        /* \"#utility.yul\":19734:19811   */\n      iszero\n      tag_453\n      jumpi\n        /* \"#utility.yul\":19786:19795   */\n      dup3\n        /* \"#utility.yul\":19781:19784   */\n      dup8\n        /* \"#utility.yul\":19777:19796   */\n      add\n        /* \"#utility.yul\":19771:19797   */\n      mload\n        /* \"#utility.yul\":19762:19797   */\n      swap1\n      pop\n        /* \"#utility.yul\":19734:19811   */\n    tag_453:\n        /* \"#utility.yul\":19837:19904   */\n      tag_454\n        /* \"#utility.yul\":19897:19903   */\n      dup6\n        /* \"#utility.yul\":19890:19895   */\n      dup3\n        /* \"#utility.yul\":19837:19904   */\n      tag_256\n      jump\t// in\n    tag_454:\n        /* \"#utility.yul\":19831:19835   */\n      dup7\n        /* \"#utility.yul\":19824:19905   */\n      sstore\n        /* \"#utility.yul\":19693:19915   */\n      pop\n        /* \"#utility.yul\":19029:19915   */\n      jump(tag_451)\n        /* \"#utility.yul\":19059:19676   */\n    tag_452:\n        /* \"#utility.yul\":19111:19115   */\n      0x1f\n        /* \"#utility.yul\":19107:19116   */\n      not\n        /* \"#utility.yul\":19099:19105   */\n      dup5\n        /* \"#utility.yul\":19095:19117   */\n      and\n        /* \"#utility.yul\":19145:19181   */\n      tag_455\n        /* \"#utility.yul\":19176:19180   */\n      dup7\n        /* \"#utility.yul\":19145:19181   */\n      tag_242\n      jump\t// in\n    tag_455:\n        /* \"#utility.yul\":19203:19204   */\n      0x00\n        /* \"#utility.yul\":19217:19425   */\n    tag_456:\n        /* \"#utility.yul\":19231:19238   */\n      dup3\n        /* \"#utility.yul\":19228:19229   */\n      dup2\n        /* \"#utility.yul\":19225:19239   */\n      lt\n        /* \"#utility.yul\":19217:19425   */\n      iszero\n      tag_458\n      jumpi\n        /* \"#utility.yul\":19310:19319   */\n      dup5\n        /* \"#utility.yul\":19305:19308   */\n      dup10\n        /* \"#utility.yul\":19301:19320   */\n      add\n        /* \"#utility.yul\":19295:19321   */\n      mload\n        /* \"#utility.yul\":19287:19293   */\n      dup3\n        /* \"#utility.yul\":19280:19322   */\n      sstore\n        /* \"#utility.yul\":19361:19362   */\n      0x01\n        /* \"#utility.yul\":19353:19359   */\n      dup3\n        /* \"#utility.yul\":19349:19363   */\n      add\n        /* \"#utility.yul\":19339:19363   */\n      swap2\n      pop\n        /* \"#utility.yul\":19408:19410   */\n      0x20\n        /* \"#utility.yul\":19397:19406   */\n      dup6\n        /* \"#utility.yul\":19393:19411   */\n      add\n        /* \"#utility.yul\":19380:19411   */\n      swap5\n      pop\n        /* \"#utility.yul\":19254:19258   */\n      0x20\n        /* \"#utility.yul\":19251:19252   */\n      dup2\n        /* \"#utility.yul\":19247:19259   */\n      add\n        /* \"#utility.yul\":19242:19259   */\n      swap1\n      pop\n        /* \"#utility.yul\":19217:19425   */\n      jump(tag_456)\n    tag_458:\n        /* \"#utility.yul\":19453:19459   */\n      dup7\n        /* \"#utility.yul\":19444:19451   */\n      dup4\n        /* \"#utility.yul\":19441:19460   */\n      lt\n        /* \"#utility.yul\":19438:19617   */\n      iszero\n      tag_459\n      jumpi\n        /* \"#utility.yul\":19511:19520   */\n      dup5\n        /* \"#utility.yul\":19506:19509   */\n      dup10\n        /* \"#utility.yul\":19502:19521   */\n      add\n        /* \"#utility.yul\":19496:19522   */\n      mload\n        /* \"#utility.yul\":19554:19602   */\n      tag_460\n        /* \"#utility.yul\":19596:19600   */\n      0x1f\n        /* \"#utility.yul\":19588:19594   */\n      dup10\n        /* \"#utility.yul\":19584:19601   */\n      and\n        /* \"#utility.yul\":19573:19582   */\n      dup3\n        /* \"#utility.yul\":19554:19602   */\n      tag_255\n      jump\t// in\n    tag_460:\n        /* \"#utility.yul\":19546:19552   */\n      dup4\n        /* \"#utility.yul\":19539:19603   */\n      sstore\n        /* \"#utility.yul\":19461:19617   */\n      pop\n        /* \"#utility.yul\":19438:19617   */\n    tag_459:\n        /* \"#utility.yul\":19663:19664   */\n      0x01\n        /* \"#utility.yul\":19659:19660   */\n      0x02\n        /* \"#utility.yul\":19651:19657   */\n      dup9\n        /* \"#utility.yul\":19647:19661   */\n      mul\n        /* \"#utility.yul\":19643:19665   */\n      add\n        /* \"#utility.yul\":19637:19641   */\n      dup9\n        /* \"#utility.yul\":19630:19666   */\n      sstore\n        /* \"#utility.yul\":19066:19676   */\n      pop\n      pop\n      pop\n        /* \"#utility.yul\":19029:19915   */\n    tag_451:\n      pop\n        /* \"#utility.yul\":18621:19921   */\n      pop\n      pop\n      pop\n        /* \"#utility.yul\":18531:19921   */\n      pop\n      pop\n      jump\t// out\n        /* \"#utility.yul\":19927:20567   */\n    tag_167:\n        /* \"#utility.yul\":20122:20126   */\n      0x00\n        /* \"#utility.yul\":20160:20163   */\n      0x80\n        /* \"#utility.yul\":20149:20158   */\n      dup3\n        /* \"#utility.yul\":20145:20164   */\n      add\n        /* \"#utility.yul\":20137:20164   */\n      swap1\n      pop\n        /* \"#utility.yul\":20174:20245   */\n      tag_462\n        /* \"#utility.yul\":20242:20243   */\n      0x00\n        /* \"#utility.yul\":20231:20240   */\n      dup4\n        /* \"#utility.yul\":20227:20244   */\n      add\n        /* \"#utility.yul\":20218:20224   */\n      dup8\n        /* \"#utility.yul\":20174:20245   */\n      tag_212\n      jump\t// in\n    tag_462:\n        /* \"#utility.yul\":20255:20327   */\n      tag_463\n        /* \"#utility.yul\":20323:20325   */\n      0x20\n        /* \"#utility.yul\":20312:20321   */\n      dup4\n        /* \"#utility.yul\":20308:20326   */\n      add\n        /* \"#utility.yul\":20299:20305   */\n      dup7\n        /* \"#utility.yul\":20255:20327   */\n      tag_207\n      jump\t// in\n    tag_463:\n        /* \"#utility.yul\":20337:20409   */\n      tag_464\n        /* \"#utility.yul\":20405:20407   */\n      0x40\n        /* \"#utility.yul\":20394:20403   */\n      dup4\n        /* \"#utility.yul\":20390:20408   */\n      add\n        /* \"#utility.yul\":20381:20387   */\n      dup6\n        /* \"#utility.yul\":20337:20409   */\n      tag_212\n      jump\t// in\n    tag_464:\n        /* \"#utility.yul\":20456:20465   */\n      dup2\n        /* \"#utility.yul\":20450:20454   */\n      dup2\n        /* \"#utility.yul\":20446:20466   */\n      sub\n        /* \"#utility.yul\":20441:20443   */\n      0x60\n        /* \"#utility.yul\":20430:20439   */\n      dup4\n        /* \"#utility.yul\":20426:20444   */\n      add\n        /* \"#utility.yul\":20419:20467   */\n      mstore\n        /* \"#utility.yul\":20484:20560   */\n      tag_465\n        /* \"#utility.yul\":20555:20559   */\n      dup2\n        /* \"#utility.yul\":20546:20552   */\n      dup5\n        /* \"#utility.yul\":20484:20560   */\n      tag_217\n      jump\t// in\n    tag_465:\n        /* \"#utility.yul\":20476:20560   */\n      swap1\n      pop\n        /* \"#utility.yul\":19927:20567   */\n      swap6\n      swap5\n      pop\n      pop\n      pop\n      pop\n      pop\n      jump\t// out\n        /* \"#utility.yul\":20573:20720   */\n    tag_257:\n        /* \"#utility.yul\":20674:20685   */\n      0x00\n        /* \"#utility.yul\":20711:20714   */\n      dup2\n        /* \"#utility.yul\":20696:20714   */\n      swap1\n      pop\n        /* \"#utility.yul\":20573:20720   */\n      swap3\n      swap2\n      pop\n      pop\n      jump\t// out\n        /* \"#utility.yul\":20748:21618   */\n    tag_258:\n        /* \"#utility.yul\":20849:20852   */\n      0x00\n        /* \"#utility.yul\":20886:20891   */\n      dup2\n        /* \"#utility.yul\":20880:20892   */\n      sload\n        /* \"#utility.yul\":20915:20951   */\n      tag_468\n        /* \"#utility.yul\":20941:20950   */\n      dup2\n        /* \"#utility.yul\":20915:20951   */\n      tag_151\n      jump\t// in\n    tag_468:\n        /* \"#utility.yul\":20967:21055   */\n      tag_469\n        /* \"#utility.yul\":21048:21054   */\n      dup2\n        /* \"#utility.yul\":21043:21046   */\n      dup7\n        /* \"#utility.yul\":20967:21055   */\n      tag_257\n      jump\t// in\n    tag_469:\n        /* \"#utility.yul\":20960:21055   */\n      swap5\n      pop\n        /* \"#utility.yul\":21086:21087   */\n      0x01\n        /* \"#utility.yul\":21075:21084   */\n      dup3\n        /* \"#utility.yul\":21071:21088   */\n      and\n        /* \"#utility.yul\":21102:21103   */\n      0x00\n        /* \"#utility.yul\":21097:21263   */\n      dup2\n      eq\n      tag_471\n      jumpi\n        /* \"#utility.yul\":21277:21278   */\n      0x01\n        /* \"#utility.yul\":21272:21612   */\n      dup2\n      eq\n      tag_472\n      jumpi\n        /* \"#utility.yul\":21064:21612   */\n      jump(tag_470)\n        /* \"#utility.yul\":21097:21263   */\n    tag_471:\n        /* \"#utility.yul\":21181:21185   */\n      0xff\n        /* \"#utility.yul\":21177:21186   */\n      not\n        /* \"#utility.yul\":21166:21175   */\n      dup4\n        /* \"#utility.yul\":21162:21187   */\n      and\n        /* \"#utility.yul\":21157:21160   */\n      dup7\n        /* \"#utility.yul\":21150:21188   */\n      mstore\n        /* \"#utility.yul\":21243:21249   */\n      dup2\n        /* \"#utility.yul\":21236:21250   */\n      iszero\n        /* \"#utility.yul\":21229:21251   */\n      iszero\n        /* \"#utility.yul\":21221:21227   */\n      dup3\n        /* \"#utility.yul\":21217:21252   */\n      mul\n        /* \"#utility.yul\":21212:21215   */\n      dup7\n        /* \"#utility.yul\":21208:21253   */\n      add\n        /* \"#utility.yul\":21201:21253   */\n      swap4\n      pop\n        /* \"#utility.yul\":21097:21263   */\n      jump(tag_470)\n        /* \"#utility.yul\":21272:21612   */\n    tag_472:\n        /* \"#utility.yul\":21339:21376   */\n      tag_473\n        /* \"#utility.yul\":21370:21375   */\n      dup6\n        /* \"#utility.yul\":21339:21376   */\n      tag_242\n      jump\t// in\n    tag_473:\n        /* \"#utility.yul\":21398:21399   */\n      0x00\n        /* \"#utility.yul\":21412:21566   */\n    tag_474:\n        /* \"#utility.yul\":21426:21432   */\n      dup4\n        /* \"#utility.yul\":21423:21424   */\n      dup2\n        /* \"#utility.yul\":21420:21433   */\n      lt\n        /* \"#utility.yul\":21412:21566   */\n      iszero\n      tag_476\n      jumpi\n        /* \"#utility.yul\":21500:21507   */\n      dup2\n        /* \"#utility.yul\":21494:21508   */\n      sload\n        /* \"#utility.yul\":21490:21491   */\n      dup2\n        /* \"#utility.yul\":21485:21488   */\n      dup10\n        /* \"#utility.yul\":21481:21492   */\n      add\n        /* \"#utility.yul\":21474:21509   */\n      mstore\n        /* \"#utility.yul\":21550:21551   */\n      0x01\n        /* \"#utility.yul\":21541:21548   */\n      dup3\n        /* \"#utility.yul\":21537:21552   */\n      add\n        /* \"#utility.yul\":21526:21552   */\n      swap2\n      pop\n        /* \"#utility.yul\":21448:21452   */\n      0x20\n        /* \"#utility.yul\":21445:21446   */\n      dup2\n        /* \"#utility.yul\":21441:21453   */\n      add\n        /* \"#utility.yul\":21436:21453   */\n      swap1\n      pop\n        /* \"#utility.yul\":21412:21566   */\n      jump(tag_474)\n    tag_476:\n        /* \"#utility.yul\":21595:21601   */\n      dup4\n        /* \"#utility.yul\":21590:21593   */\n      dup9\n        /* \"#utility.yul\":21586:21602   */\n      add\n        /* \"#utility.yul\":21579:21602   */\n      swap6\n      pop\n        /* \"#utility.yul\":21279:21612   */\n      pop\n      pop\n        /* \"#utility.yul\":21064:21612   */\n    tag_470:\n      pop\n        /* \"#utility.yul\":20853:21618   */\n      pop\n      pop\n        /* \"#utility.yul\":20748:21618   */\n      swap3\n      swap2\n      pop\n      pop\n      jump\t// out\n        /* \"#utility.yul\":21624:21889   */\n    tag_191:\n        /* \"#utility.yul\":21751:21754   */\n      0x00\n        /* \"#utility.yul\":21773:21863   */\n      tag_478\n        /* \"#utility.yul\":21859:21862   */\n      dup3\n        /* \"#utility.yul\":21850:21856   */\n      dup5\n        /* \"#utility.yul\":21773:21863   */\n      tag_258\n      jump\t// in\n    tag_478:\n        /* \"#utility.yul\":21766:21863   */\n      swap2\n      pop\n        /* \"#utility.yul\":21880:21883   */\n      dup2\n        /* \"#utility.yul\":21873:21883   */\n      swap1\n      pop\n        /* \"#utility.yul\":21624:21889   */\n      swap3\n      swap2\n      pop\n      pop\n      jump\t// out\n        /* \"#utility.yul\":21895:22073   */\n    tag_259:\n        /* \"#utility.yul\":22035:22065   */\n      0x5472616e73616374696f6e20657865637574696f6e206661696c656400000000\n        /* \"#utility.yul\":22031:22032   */\n      0x00\n        /* \"#utility.yul\":22023:22029   */\n      dup3\n        /* \"#utility.yul\":22019:22033   */\n      add\n        /* \"#utility.yul\":22012:22066   */\n      mstore\n        /* \"#utility.yul\":21895:22073   */\n      pop\n      jump\t// out\n        /* \"#utility.yul\":22079:22445   */\n    tag_260:\n        /* \"#utility.yul\":22221:22224   */\n      0x00\n        /* \"#utility.yul\":22242:22309   */\n      tag_481\n        /* \"#utility.yul\":22306:22308   */\n      0x1c\n        /* \"#utility.yul\":22301:22304   */\n      dup4\n        /* \"#utility.yul\":22242:22309   */\n      tag_227\n      jump\t// in\n    tag_481:\n        /* \"#utility.yul\":22235:22309   */\n      swap2\n      pop\n        /* \"#utility.yul\":22318:22411   */\n      tag_482\n        /* \"#utility.yul\":22407:22410   */\n      dup3\n        /* \"#utility.yul\":22318:22411   */\n      tag_259\n      jump\t// in\n    tag_482:\n        /* \"#utility.yul\":22436:22438   */\n      0x20\n        /* \"#utility.yul\":22431:22434   */\n      dup3\n        /* \"#utility.yul\":22427:22439   */\n      add\n        /* \"#utility.yul\":22420:22439   */\n      swap1\n      pop\n        /* \"#utility.yul\":22079:22445   */\n      swap2\n      swap1\n      pop\n      jump\t// out\n        /* \"#utility.yul\":22451:22870   */\n    tag_197:\n        /* \"#utility.yul\":22617:22621   */\n      0x00\n        /* \"#utility.yul\":22655:22657   */\n      0x20\n        /* \"#utility.yul\":22644:22653   */\n      dup3\n        /* \"#utility.yul\":22640:22658   */\n      add\n        /* \"#utility.yul\":22632:22658   */\n      swap1\n      pop\n        /* \"#utility.yul\":22704:22713   */\n      dup2\n        /* \"#utility.yul\":22698:22702   */\n      dup2\n        /* \"#utility.yul\":22694:22714   */\n      sub\n        /* \"#utility.yul\":22690:22691   */\n      0x00\n        /* \"#utility.yul\":22679:22688   */\n      dup4\n        /* \"#utility.yul\":22675:22692   */\n      add\n        /* \"#utility.yul\":22668:22715   */\n      mstore\n        /* \"#utility.yul\":22732:22863   */\n      tag_484\n        /* \"#utility.yul\":22858:22862   */\n      dup2\n        /* \"#utility.yul\":22732:22863   */\n      tag_260\n      jump\t// in\n    tag_484:\n        /* \"#utility.yul\":22724:22863   */\n      swap1\n      pop\n        /* \"#utility.yul\":22451:22870   */\n      swap2\n      swap1\n      pop\n      jump\t// out\n\n    auxdata: 0xa2646970667358221220827216f7dad50054725260b70a8db4411fd761fab1ed6cb6724b743d8198ea5b64736f6c63430008160033\n}\n",
				"bytecode": {
					"linkReferences": {},
					"object": "608060405234801562000010575f80fd5b506040516200238338038062002383833981810160405281019062000036919062000471565b5f82511180156200004657505f81115b801562000054575081518111155b62000096576040517f08c379a00000000000000000000000000000000000000000000000000000000081526004016200008d9062000533565b60405180910390fd5b5f5b82518110156200024b575f838281518110620000b957620000b862000553565b5b602002602001015190505f73ffffffffffffffffffffffffffffffffffffffff168173ffffffffffffffffffffffffffffffffffffffff161415801562000147575060015f8273ffffffffffffffffffffffffffffffffffffffff1673ffffffffffffffffffffffffffffffffffffffff1681526020019081526020015f205f9054906101000a900460ff16155b62000189576040517f08c379a00000000000000000000000000000000000000000000000000000000081526004016200018090620005ce565b60405180910390fd5b6001805f8373ffffffffffffffffffffffffffffffffffffffff1673ffffffffffffffffffffffffffffffffffffffff1681526020019081526020015f205f6101000a81548160ff0219169083151502179055505f81908060018154018082558091505060019003905f5260205f20015f9091909190916101000a81548173ffffffffffffffffffffffffffffffffffffffff021916908373ffffffffffffffffffffffffffffffffffffffff16021790555050808060010191505062000098565b50806002819055505050620005ee565b5f604051905090565b5f80fd5b5f80fd5b5f80fd5b5f601f19601f8301169050919050565b7f4e487b71000000000000000000000000000000000000000000000000000000005f52604160045260245ffd5b620002b88262000270565b810181811067ffffffffffffffff82111715620002da57620002d962000280565b5b80604052505050565b5f620002ee6200025b565b9050620002fc8282620002ad565b919050565b5f67ffffffffffffffff8211156200031e576200031d62000280565b5b602082029050602081019050919050565b5f80fd5b5f73ffffffffffffffffffffffffffffffffffffffff82169050919050565b5f6200035e8262000333565b9050919050565b620003708162000352565b81146200037b575f80fd5b50565b5f815190506200038e8162000365565b92915050565b5f620003aa620003a48462000301565b620002e3565b90508083825260208201905060208402830185811115620003d057620003cf6200032f565b5b835b81811015620003fd5780620003e888826200037e565b845260208401935050602081019050620003d2565b5050509392505050565b5f82601f8301126200041e576200041d6200026c565b5b81516200043084826020860162000394565b91505092915050565b5f819050919050565b6200044d8162000439565b811462000458575f80fd5b50565b5f815190506200046b8162000442565b92915050565b5f80604083850312156200048a576200048962000264565b5b5f83015167ffffffffffffffff811115620004aa57620004a962000268565b5b620004b88582860162000407565b9250506020620004cb858286016200045b565b9150509250929050565b5f82825260208201905092915050565b7f496e76616c696420706172616d657465727300000000000000000000000000005f82015250565b5f6200051b601283620004d5565b91506200052882620004e5565b602082019050919050565b5f6020820190508181035f8301526200054c816200050d565b9050919050565b7f4e487b71000000000000000000000000000000000000000000000000000000005f52603260045260245ffd5b7f496e76616c6964206f776e6572000000000000000000000000000000000000005f82015250565b5f620005b6600d83620004d5565b9150620005c38262000580565b602082019050919050565b5f6020820190508181035f830152620005e781620005a8565b9050919050565b611d8780620005fc5f395ff3fe608060405234801561000f575f80fd5b5060043610610091575f3560e01c80633380c0d8116100645780633380c0d81461012d57806342cde4e8146101495780637065cb48146101675780639ace38c214610183578063c6427474146101b757610091565b8063025e7c2714610095578063173825d9146100c5578063242232d1146100e15780632f54bf6e146100fd575b5f80fd5b6100af60048036038101906100aa91906111bb565b6101d3565b6040516100bc9190611225565b60405180910390f35b6100df60048036038101906100da9190611268565b61020d565b005b6100fb60048036038101906100f691906111bb565b610568565b005b61011760048036038101906101129190611268565b610879565b60405161012491906112ad565b60405180910390f35b610147600480360381019061014291906111bb565b610896565b005b610151610a4f565b60405161015e91906112d5565b60405180910390f35b610181600480360381019061017c9190611268565b610a55565b005b61019d600480360381019061019891906111bb565b610c8d565b6040516101ae959493929190611378565b60405180910390f35b6101d160048036038101906101cc91906114fc565b610d7f565b005b5f81815481106101e1575f80fd5b905f5260205f20015f915054906101000a900473ffffffffffffffffffffffffffffffffffffffff1681565b60015f3373ffffffffffffffffffffffffffffffffffffffff1673ffffffffffffffffffffffffffffffffffffffff1681526020019081526020015f205f9054906101000a900460ff16610296576040517f08c379a000000000000000000000000000000000000000000000000000000000815260040161028d906115c2565b60405180910390fd5b60015f8273ffffffffffffffffffffffffffffffffffffffff1673ffffffffffffffffffffffffffffffffffffffff1681526020019081526020015f205f9054906101000a900460ff1661031f576040517f08c379a0000000000000000000000000000000000000000000000000000000008152600401610316906115c2565b60405180910390fd5b60015f8054905011610366576040517f08c379a000000000000000000000000000000000000000000000000000000000815260040161035d9061162a565b60405180910390fd5b5f60015f8373ffffffffffffffffffffffffffffffffffffffff1673ffffffffffffffffffffffffffffffffffffffff1681526020019081526020015f205f6101000a81548160ff0219169083151502179055505f5b5f80549050811015610564578173ffffffffffffffffffffffffffffffffffffffff165f82815481106103f2576103f1611648565b5b905f5260205f20015f9054906101000a900473ffffffffffffffffffffffffffffffffffffffff1673ffffffffffffffffffffffffffffffffffffffff1603610557575f60015f8054905061044791906116a2565b8154811061045857610457611648565b5b905f5260205f20015f9054906101000a900473ffffffffffffffffffffffffffffffffffffffff165f828154811061049357610492611648565b5b905f5260205f20015f6101000a81548173ffffffffffffffffffffffffffffffffffffffff021916908373ffffffffffffffffffffffffffffffffffffffff1602179055505f8054806104e9576104e86116d5565b5b600190038181905f5260205f20015f6101000a81549073ffffffffffffffffffffffffffffffffffffffff021916905590557f86d076ecf250a6d90a67a7c75317f44709d5001395ecf1df6d9dad5278f1e6818260405161054a9190611225565b60405180910390a1610564565b80806001019150506103bc565b5050565b60015f3373ffffffffffffffffffffffffffffffffffffffff1673ffffffffffffffffffffffffffffffffffffffff1681526020019081526020015f205f9054906101000a900460ff166105f1576040517f08c379a00000000000000000000000000000000000000000000000000000000081526004016105e8906115c2565b60405180910390fd5b806003805490508110610639576040517f08c379a00000000000000000000000000000000000000000000000000000000081526004016106309061174c565b60405180910390fd5b816003818154811061064e5761064d611648565b5b905f5260205f2090600602016003015f9054906101000a900460ff16156106aa576040517f08c379a00000000000000000000000000000000000000000000000000000000081526004016106a1906117b4565b60405180910390fd5b82600381815481106106bf576106be611648565b5b905f5260205f2090600602016004015f3373ffffffffffffffffffffffffffffffffffffffff1673ffffffffffffffffffffffffffffffffffffffff1681526020019081526020015f205f9054906101000a900460ff1615610756576040517f08c379a000000000000000000000000000000000000000000000000000000000815260040161074d90611842565b60405180910390fd5b60016003858154811061076c5761076b611648565b5b905f5260205f2090600602016004015f3373ffffffffffffffffffffffffffffffffffffffff1673ffffffffffffffffffffffffffffffffffffffff1681526020019081526020015f205f6101000a81548160ff021916908315150217905550600384815481106107e0576107df611648565b5b905f5260205f2090600602016005015f8154809291906107ff90611860565b91905055507f924813d717e221b5f46dcd8a56da1679e4612584ab3237d55e5faabf6f6a307984336040516108359291906118a7565b60405180910390a16002546003858154811061085457610853611648565b5b905f5260205f20906006020160050154106108735761087284610f14565b5b50505050565b6001602052805f5260405f205f915054906101000a900460ff1681565b60015f3373ffffffffffffffffffffffffffffffffffffffff1673ffffffffffffffffffffffffffffffffffffffff1681526020019081526020015f205f9054906101000a900460ff1661091f576040517f08c379a0000000000000000000000000000000000000000000000000000000008152600401610916906115c2565b60405180910390fd5b806003805490508110610967576040517f08c379a000000000000000000000000000000000000000000000000000000000815260040161095e9061174c565b60405180910390fd5b816003818154811061097c5761097b611648565b5b905f5260205f2090600602016003015f9054906101000a900460ff16156109d8576040517f08c379a00000000000000000000000000000000000000000000000000000000081526004016109cf906117b4565b60405180910390fd5b6001600384815481106109ee576109ed611648565b5b905f5260205f2090600602016003015f6101000a81548160ff0219169083151502179055507f956fb32199d8b882b2039a14e1be35ab14f7a80b9089fc223f14b43937173e6083604051610a4291906112d5565b60405180910390a1505050565b60025481565b60015f3373ffffffffffffffffffffffffffffffffffffffff1673ffffffffffffffffffffffffffffffffffffffff1681526020019081526020015f205f9054906101000a900460ff16610ade576040517f08c379a0000000000000000000000000000000000000000000000000000000008152600401610ad5906115c2565b60405180910390fd5b5f73ffffffffffffffffffffffffffffffffffffffff168173ffffffffffffffffffffffffffffffffffffffff1614158015610b61575060015f8273ffffffffffffffffffffffffffffffffffffffff1673ffffffffffffffffffffffffffffffffffffffff1681526020019081526020015f205f9054906101000a900460ff16155b610ba0576040517f08c379a0000000000000000000000000000000000000000000000000000000008152600401610b9790611918565b60405180910390fd5b6001805f8373ffffffffffffffffffffffffffffffffffffffff1673ffffffffffffffffffffffffffffffffffffffff1681526020019081526020015f205f6101000a81548160ff0219169083151502179055505f81908060018154018082558091505060019003905f5260205f20015f9091909190916101000a81548173ffffffffffffffffffffffffffffffffffffffff021916908373ffffffffffffffffffffffffffffffffffffffff1602179055507fb4cd6c6140e1db788f68710738b06ef4d0df6a884a06a088433a4c2f5e036e7c81604051610c829190611225565b60405180910390a150565b60038181548110610c9c575f80fd5b905f5260205f2090600602015f91509050805f015f9054906101000a900473ffffffffffffffffffffffffffffffffffffffff1690806001015490806002018054610ce690611963565b80601f0160208091040260200160405190810160405280929190818152602001828054610d1290611963565b8015610d5d5780601f10610d3457610100808354040283529160200191610d5d565b820191905f5260205f20905b815481529060010190602001808311610d4057829003601f168201915b505050505090806003015f9054906101000a900460ff16908060050154905085565b60015f3373ffffffffffffffffffffffffffffffffffffffff1673ffffffffffffffffffffffffffffffffffffffff1681526020019081526020015f205f9054906101000a900460ff16610e08576040517f08c379a0000000000000000000000000000000000000000000000000000000008152600401610dff906115c2565b60405180910390fd5b5f6003805490509050600360018160018154018082558091505003905f5260205f209050505f60038281548110610e4257610e41611648565b5b905f5260205f209060060201905084815f015f6101000a81548173ffffffffffffffffffffffffffffffffffffffff021916908373ffffffffffffffffffffffffffffffffffffffff16021790555083816001018190555082816002019081610eab9190611b30565b505f816003015f6101000a81548160ff0219169083151502179055505f81600501819055507f3f6db45da5513bd4fe9f8a31e60ea668bdd4bca57e30a85a9a26f90c9fbcb56c82868686604051610f059493929190611bff565b60405180910390a15050505050565b806003805490508110610f5c576040517f08c379a0000000000000000000000000000000000000000000000000000000008152600401610f539061174c565b60405180910390fd5b8160038181548110610f7157610f70611648565b5b905f5260205f2090600602016003015f9054906101000a900460ff1615610fcd576040517f08c379a0000000000000000000000000000000000000000000000000000000008152600401610fc4906117b4565b60405180910390fd5b600160038481548110610fe357610fe2611648565b5b905f5260205f2090600602016003015f6101000a81548160ff0219169083151502179055505f6003848154811061101d5761101c611648565b5b905f5260205f2090600602015f015f9054906101000a900473ffffffffffffffffffffffffffffffffffffffff1673ffffffffffffffffffffffffffffffffffffffff166003858154811061107557611074611648565b5b905f5260205f209060060201600101546003868154811061109957611098611648565b5b905f5260205f2090600602016002016040516110b59190611cd3565b5f6040518083038185875af1925050503d805f81146110ef576040519150601f19603f3d011682016040523d82523d5f602084013e6110f4565b606091505b5050905080611138576040517f08c379a000000000000000000000000000000000000000000000000000000000815260040161112f90611d33565b60405180910390fd5b7fefc13bdcf58f184ea7cae26b499fb33b539e01d0197cea456f3ada289b8cf19b84336040516111699291906118a7565b60405180910390a150505050565b5f604051905090565b5f80fd5b5f80fd5b5f819050919050565b61119a81611188565b81146111a4575f80fd5b50565b5f813590506111b581611191565b92915050565b5f602082840312156111d0576111cf611180565b5b5f6111dd848285016111a7565b91505092915050565b5f73ffffffffffffffffffffffffffffffffffffffff82169050919050565b5f61120f826111e6565b9050919050565b61121f81611205565b82525050565b5f6020820190506112385f830184611216565b92915050565b61124781611205565b8114611251575f80fd5b50565b5f813590506112628161123e565b92915050565b5f6020828403121561127d5761127c611180565b5b5f61128a84828501611254565b91505092915050565b5f8115159050919050565b6112a781611293565b82525050565b5f6020820190506112c05f83018461129e565b92915050565b6112cf81611188565b82525050565b5f6020820190506112e85f8301846112c6565b92915050565b5f81519050919050565b5f82825260208201905092915050565b5f5b8381101561132557808201518184015260208101905061130a565b5f8484015250505050565b5f601f19601f8301169050919050565b5f61134a826112ee565b61135481856112f8565b9350611364818560208601611308565b61136d81611330565b840191505092915050565b5f60a08201905061138b5f830188611216565b61139860208301876112c6565b81810360408301526113aa8186611340565b90506113b9606083018561129e565b6113c660808301846112c6565b9695505050505050565b5f80fd5b5f80fd5b7f4e487b71000000000000000000000000000000000000000000000000000000005f52604160045260245ffd5b61140e82611330565b810181811067ffffffffffffffff8211171561142d5761142c6113d8565b5b80604052505050565b5f61143f611177565b905061144b8282611405565b919050565b5f67ffffffffffffffff82111561146a576114696113d8565b5b61147382611330565b9050602081019050919050565b828183375f83830152505050565b5f6114a061149b84611450565b611436565b9050828152602081018484840111156114bc576114bb6113d4565b5b6114c7848285611480565b509392505050565b5f82601f8301126114e3576114e26113d0565b5b81356114f384826020860161148e565b91505092915050565b5f805f6060848603121561151357611512611180565b5b5f61152086828701611254565b9350506020611531868287016111a7565b925050604084013567ffffffffffffffff81111561155257611551611184565b5b61155e868287016114cf565b9150509250925092565b5f82825260208201905092915050565b7f4e6f7420616e206f776e657200000000000000000000000000000000000000005f82015250565b5f6115ac600c83611568565b91506115b782611578565b602082019050919050565b5f6020820190508181035f8301526115d9816115a0565b9050919050565b7f43616e6e6f742072656d6f766520746865206c617374206f776e6572000000005f82015250565b5f611614601c83611568565b915061161f826115e0565b602082019050919050565b5f6020820190508181035f83015261164181611608565b9050919050565b7f4e487b71000000000000000000000000000000000000000000000000000000005f52603260045260245ffd5b7f4e487b71000000000000000000000000000000000000000000000000000000005f52601160045260245ffd5b5f6116ac82611188565b91506116b783611188565b92508282039050818111156116cf576116ce611675565b5b92915050565b7f4e487b71000000000000000000000000000000000000000000000000000000005f52603160045260245ffd5b7f5472616e73616374696f6e20646f6573206e6f742065786973740000000000005f82015250565b5f611736601a83611568565b915061174182611702565b602082019050919050565b5f6020820190508181035f8301526117638161172a565b9050919050565b7f5472616e73616374696f6e20616c7265616479206578656375746564000000005f82015250565b5f61179e601c83611568565b91506117a98261176a565b602082019050919050565b5f6020820190508181035f8301526117cb81611792565b9050919050565b7f5472616e73616374696f6e20616c726561647920617070726f766564206279205f8201527f74686973206f776e657200000000000000000000000000000000000000000000602082015250565b5f61182c602a83611568565b9150611837826117d2565b604082019050919050565b5f6020820190508181035f83015261185981611820565b9050919050565b5f61186a82611188565b91507fffffffffffffffffffffffffffffffffffffffffffffffffffffffffffffffff820361189c5761189b611675565b5b600182019050919050565b5f6040820190506118ba5f8301856112c6565b6118c76020830184611216565b9392505050565b7f496e76616c6964206f776e6572000000000000000000000000000000000000005f82015250565b5f611902600d83611568565b915061190d826118ce565b602082019050919050565b5f6020820190508181035f83015261192f816118f6565b9050919050565b7f4e487b71000000000000000000000000000000000000000000000000000000005f52602260045260245ffd5b5f600282049050600182168061197a57607f821691505b60208210810361198d5761198c611936565b5b50919050565b5f819050815f5260205f209050919050565b5f6020601f8301049050919050565b5f82821b905092915050565b5f600883026119ef7fffffffffffffffffffffffffffffffffffffffffffffffffffffffffffffffff826119b4565b6119f986836119b4565b95508019841693508086168417925050509392505050565b5f819050919050565b5f611a34611a2f611a2a84611188565b611a11565b611188565b9050919050565b5f819050919050565b611a4d83611a1a565b611a61611a5982611a3b565b8484546119c0565b825550505050565b5f90565b611a75611a69565b611a80818484611a44565b505050565b5b81811015611aa357611a985f82611a6d565b600181019050611a86565b5050565b601f821115611ae857611ab981611993565b611ac2846119a5565b81016020851015611ad1578190505b611ae5611add856119a5565b830182611a85565b50505b505050565b5f82821c905092915050565b5f611b085f1984600802611aed565b1980831691505092915050565b5f611b208383611af9565b9150826002028217905092915050565b611b39826112ee565b67ffffffffffffffff811115611b5257611b516113d8565b5b611b5c8254611963565b611b67828285611aa7565b5f60209050601f831160018114611b98575f8415611b86578287015190505b611b908582611b15565b865550611bf7565b601f198416611ba686611993565b5f5b82811015611bcd57848901518255600182019150602085019450602081019050611ba8565b86831015611bea5784890151611be6601f891682611af9565b8355505b6001600288020188555050505b505050505050565b5f608082019050611c125f8301876112c6565b611c1f6020830186611216565b611c2c60408301856112c6565b8181036060830152611c3e8184611340565b905095945050505050565b5f81905092915050565b5f8154611c5f81611963565b611c698186611c49565b9450600182165f8114611c835760018114611c9857611cca565b60ff1983168652811515820286019350611cca565b611ca185611993565b5f5b83811015611cc257815481890152600182019150602081019050611ca3565b838801955050505b50505092915050565b5f611cde8284611c53565b915081905092915050565b7f5472616e73616374696f6e20657865637574696f6e206661696c6564000000005f82015250565b5f611d1d601c83611568565b9150611d2882611ce9565b602082019050919050565b5f6020820190508181035f830152611d4a81611d11565b905091905056fea2646970667358221220827216f7dad50054725260b70a8db4411fd761fab1ed6cb6724b743d8198ea5b64736f6c63430008160033",
					"opcodes": "PUSH1 0x80 PUSH1 0x40 MSTORE CALLVALUE DUP1 ISZERO PUSH3 0x10 JUMPI PUSH0 DUP1 REVERT JUMPDEST POP PUSH1 0x40 MLOAD PUSH3 0x2383 CODESIZE SUB DUP1 PUSH3 0x2383 DUP4 CODECOPY DUP2 DUP2 ADD PUSH1 0x40 MSTORE DUP2 ADD SWAP1 PUSH3 0x36 SWAP2 SWAP1 PUSH3 0x471 JUMP JUMPDEST PUSH0 DUP3 MLOAD GT DUP1 ISZERO PUSH3 0x46 JUMPI POP PUSH0 DUP2 GT JUMPDEST DUP1 ISZERO PUSH3 0x54 JUMPI POP DUP2 MLOAD DUP2 GT ISZERO JUMPDEST PUSH3 0x96 JUMPI PUSH1 0x40 MLOAD PUSH32 0x8C379A000000000000000000000000000000000000000000000000000000000 DUP2 MSTORE PUSH1 0x4 ADD PUSH3 0x8D SWAP1 PUSH3 0x533 JUMP JUMPDEST PUSH1 0x40 MLOAD DUP1 SWAP2 SUB SWAP1 REVERT JUMPDEST PUSH0 JUMPDEST DUP3 MLOAD DUP2 LT ISZERO PUSH3 0x24B JUMPI PUSH0 DUP4 DUP3 DUP2 MLOAD DUP2 LT PUSH3 0xB9 JUMPI PUSH3 0xB8 PUSH3 0x553 JUMP JUMPDEST JUMPDEST PUSH1 0x20 MUL PUSH1 0x20 ADD ADD MLOAD SWAP1 POP PUSH0 PUSH20 0xFFFFFFFFFFFFFFFFFFFFFFFFFFFFFFFFFFFFFFFF AND DUP2 PUSH20 0xFFFFFFFFFFFFFFFFFFFFFFFFFFFFFFFFFFFFFFFF AND EQ ISZERO DUP1 ISZERO PUSH3 0x147 JUMPI POP PUSH1 0x1 PUSH0 DUP3 PUSH20 0xFFFFFFFFFFFFFFFFFFFFFFFFFFFFFFFFFFFFFFFF AND PUSH20 0xFFFFFFFFFFFFFFFFFFFFFFFFFFFFFFFFFFFFFFFF AND DUP2 MSTORE PUSH1 0x20 ADD SWAP1 DUP2 MSTORE PUSH1 0x20 ADD PUSH0 KECCAK256 PUSH0 SWAP1 SLOAD SWAP1 PUSH2 0x100 EXP SWAP1 DIV PUSH1 0xFF AND ISZERO JUMPDEST PUSH3 0x189 JUMPI PUSH1 0x40 MLOAD PUSH32 0x8C379A000000000000000000000000000000000000000000000000000000000 DUP2 MSTORE PUSH1 0x4 ADD PUSH3 0x180 SWAP1 PUSH3 0x5CE JUMP JUMPDEST PUSH1 0x40 MLOAD DUP1 SWAP2 SUB SWAP1 REVERT JUMPDEST PUSH1 0x1 DUP1 PUSH0 DUP4 PUSH20 0xFFFFFFFFFFFFFFFFFFFFFFFFFFFFFFFFFFFFFFFF AND PUSH20 0xFFFFFFFFFFFFFFFFFFFFFFFFFFFFFFFFFFFFFFFF AND DUP2 MSTORE PUSH1 0x20 ADD SWAP1 DUP2 MSTORE PUSH1 0x20 ADD PUSH0 KECCAK256 PUSH0 PUSH2 0x100 EXP DUP2 SLOAD DUP2 PUSH1 0xFF MUL NOT AND SWAP1 DUP4 ISZERO ISZERO MUL OR SWAP1 SSTORE POP PUSH0 DUP2 SWAP1 DUP1 PUSH1 0x1 DUP2 SLOAD ADD DUP1 DUP3 SSTORE DUP1 SWAP2 POP POP PUSH1 0x1 SWAP1 SUB SWAP1 PUSH0 MSTORE PUSH1 0x20 PUSH0 KECCAK256 ADD PUSH0 SWAP1 SWAP2 SWAP1 SWAP2 SWAP1 SWAP2 PUSH2 0x100 EXP DUP2 SLOAD DUP2 PUSH20 0xFFFFFFFFFFFFFFFFFFFFFFFFFFFFFFFFFFFFFFFF MUL NOT AND SWAP1 DUP4 PUSH20 0xFFFFFFFFFFFFFFFFFFFFFFFFFFFFFFFFFFFFFFFF AND MUL OR SWAP1 SSTORE POP POP DUP1 DUP1 PUSH1 0x1 ADD SWAP2 POP POP PUSH3 0x98 JUMP JUMPDEST POP DUP1 PUSH1 0x2 DUP2 SWAP1 SSTORE POP POP POP PUSH3 0x5EE JUMP JUMPDEST PUSH0 PUSH1 0x40 MLOAD SWAP1 POP SWAP1 JUMP JUMPDEST PUSH0 DUP1 REVERT JUMPDEST PUSH0 DUP1 REVERT JUMPDEST PUSH0 DUP1 REVERT JUMPDEST PUSH0 PUSH1 0x1F NOT PUSH1 0x1F DUP4 ADD AND SWAP1 POP SWAP2 SWAP1 POP JUMP JUMPDEST PUSH32 0x4E487B7100000000000000000000000000000000000000000000000000000000 PUSH0 MSTORE PUSH1 0x41 PUSH1 0x4 MSTORE PUSH1 0x24 PUSH0 REVERT JUMPDEST PUSH3 0x2B8 DUP3 PUSH3 0x270 JUMP JUMPDEST DUP2 ADD DUP2 DUP2 LT PUSH8 0xFFFFFFFFFFFFFFFF DUP3 GT OR ISZERO PUSH3 0x2DA JUMPI PUSH3 0x2D9 PUSH3 0x280 JUMP JUMPDEST JUMPDEST DUP1 PUSH1 0x40 MSTORE POP POP POP JUMP JUMPDEST PUSH0 PUSH3 0x2EE PUSH3 0x25B JUMP JUMPDEST SWAP1 POP PUSH3 0x2FC DUP3 DUP3 PUSH3 0x2AD JUMP JUMPDEST SWAP2 SWAP1 POP JUMP JUMPDEST PUSH0 PUSH8 0xFFFFFFFFFFFFFFFF DUP3 GT ISZERO PUSH3 0x31E JUMPI PUSH3 0x31D PUSH3 0x280 JUMP JUMPDEST JUMPDEST PUSH1 0x20 DUP3 MUL SWAP1 POP PUSH1 0x20 DUP2 ADD SWAP1 POP SWAP2 SWAP1 POP JUMP JUMPDEST PUSH0 DUP1 REVERT JUMPDEST PUSH0 PUSH20 0xFFFFFFFFFFFFFFFFFFFFFFFFFFFFFFFFFFFFFFFF DUP3 AND SWAP1 POP SWAP2 SWAP1 POP JUMP JUMPDEST PUSH0 PUSH3 0x35E DUP3 PUSH3 0x333 JUMP JUMPDEST SWAP1 POP SWAP2 SWAP1 POP JUMP JUMPDEST PUSH3 0x370 DUP2 PUSH3 0x352 JUMP JUMPDEST DUP2 EQ PUSH3 0x37B JUMPI PUSH0 DUP1 REVERT JUMPDEST POP JUMP JUMPDEST PUSH0 DUP2 MLOAD SWAP1 POP PUSH3 0x38E DUP2 PUSH3 0x365 JUMP JUMPDEST SWAP3 SWAP2 POP POP JUMP JUMPDEST PUSH0 PUSH3 0x3AA PUSH3 0x3A4 DUP5 PUSH3 0x301 JUMP JUMPDEST PUSH3 0x2E3 JUMP JUMPDEST SWAP1 POP DUP1 DUP4 DUP3 MSTORE PUSH1 0x20 DUP3 ADD SWAP1 POP PUSH1 0x20 DUP5 MUL DUP4 ADD DUP6 DUP2 GT ISZERO PUSH3 0x3D0 JUMPI PUSH3 0x3CF PUSH3 0x32F JUMP JUMPDEST JUMPDEST DUP4 JUMPDEST DUP2 DUP2 LT ISZERO PUSH3 0x3FD JUMPI DUP1 PUSH3 0x3E8 DUP9 DUP3 PUSH3 0x37E JUMP JUMPDEST DUP5 MSTORE PUSH1 0x20 DUP5 ADD SWAP4 POP POP PUSH1 0x20 DUP2 ADD SWAP1 POP PUSH3 0x3D2 JUMP JUMPDEST POP POP POP SWAP4 SWAP3 POP POP POP JUMP JUMPDEST PUSH0 DUP3 PUSH1 0x1F DUP4 ADD SLT PUSH3 0x41E JUMPI PUSH3 0x41D PUSH3 0x26C JUMP JUMPDEST JUMPDEST DUP2 MLOAD PUSH3 0x430 DUP5 DUP3 PUSH1 0x20 DUP7 ADD PUSH3 0x394 JUMP JUMPDEST SWAP2 POP POP SWAP3 SWAP2 POP POP JUMP JUMPDEST PUSH0 DUP2 SWAP1 POP SWAP2 SWAP1 POP JUMP JUMPDEST PUSH3 0x44D DUP2 PUSH3 0x439 JUMP JUMPDEST DUP2 EQ PUSH3 0x458 JUMPI PUSH0 DUP1 REVERT JUMPDEST POP JUMP JUMPDEST PUSH0 DUP2 MLOAD SWAP1 POP PUSH3 0x46B DUP2 PUSH3 0x442 JUMP JUMPDEST SWAP3 SWAP2 POP POP JUMP JUMPDEST PUSH0 DUP1 PUSH1 0x40 DUP4 DUP6 SUB SLT ISZERO PUSH3 0x48A JUMPI PUSH3 0x489 PUSH3 0x264 JUMP JUMPDEST JUMPDEST PUSH0 DUP4 ADD MLOAD PUSH8 0xFFFFFFFFFFFFFFFF DUP2 GT ISZERO PUSH3 0x4AA JUMPI PUSH3 0x4A9 PUSH3 0x268 JUMP JUMPDEST JUMPDEST PUSH3 0x4B8 DUP6 DUP3 DUP7 ADD PUSH3 0x407 JUMP JUMPDEST SWAP3 POP POP PUSH1 0x20 PUSH3 0x4CB DUP6 DUP3 DUP7 ADD PUSH3 0x45B JUMP JUMPDEST SWAP2 POP POP SWAP3 POP SWAP3 SWAP1 POP JUMP JUMPDEST PUSH0 DUP3 DUP3 MSTORE PUSH1 0x20 DUP3 ADD SWAP1 POP SWAP3 SWAP2 POP POP JUMP JUMPDEST PUSH32 0x496E76616C696420706172616D65746572730000000000000000000000000000 PUSH0 DUP3 ADD MSTORE POP JUMP JUMPDEST PUSH0 PUSH3 0x51B PUSH1 0x12 DUP4 PUSH3 0x4D5 JUMP JUMPDEST SWAP2 POP PUSH3 0x528 DUP3 PUSH3 0x4E5 JUMP JUMPDEST PUSH1 0x20 DUP3 ADD SWAP1 POP SWAP2 SWAP1 POP JUMP JUMPDEST PUSH0 PUSH1 0x20 DUP3 ADD SWAP1 POP DUP2 DUP2 SUB PUSH0 DUP4 ADD MSTORE PUSH3 0x54C DUP2 PUSH3 0x50D JUMP JUMPDEST SWAP1 POP SWAP2 SWAP1 POP JUMP JUMPDEST PUSH32 0x4E487B7100000000000000000000000000000000000000000000000000000000 PUSH0 MSTORE PUSH1 0x32 PUSH1 0x4 MSTORE PUSH1 0x24 PUSH0 REVERT JUMPDEST PUSH32 0x496E76616C6964206F776E657200000000000000000000000000000000000000 PUSH0 DUP3 ADD MSTORE POP JUMP JUMPDEST PUSH0 PUSH3 0x5B6 PUSH1 0xD DUP4 PUSH3 0x4D5 JUMP JUMPDEST SWAP2 POP PUSH3 0x5C3 DUP3 PUSH3 0x580 JUMP JUMPDEST PUSH1 0x20 DUP3 ADD SWAP1 POP SWAP2 SWAP1 POP JUMP JUMPDEST PUSH0 PUSH1 0x20 DUP3 ADD SWAP1 POP DUP2 DUP2 SUB PUSH0 DUP4 ADD MSTORE PUSH3 0x5E7 DUP2 PUSH3 0x5A8 JUMP JUMPDEST SWAP1 POP SWAP2 SWAP1 POP JUMP JUMPDEST PUSH2 0x1D87 DUP1 PUSH3 0x5FC PUSH0 CODECOPY PUSH0 RETURN INVALID PUSH1 0x80 PUSH1 0x40 MSTORE CALLVALUE DUP1 ISZERO PUSH2 0xF JUMPI PUSH0 DUP1 REVERT JUMPDEST POP PUSH1 0x4 CALLDATASIZE LT PUSH2 0x91 JUMPI PUSH0 CALLDATALOAD PUSH1 0xE0 SHR DUP1 PUSH4 0x3380C0D8 GT PUSH2 0x64 JUMPI DUP1 PUSH4 0x3380C0D8 EQ PUSH2 0x12D JUMPI DUP1 PUSH4 0x42CDE4E8 EQ PUSH2 0x149 JUMPI DUP1 PUSH4 0x7065CB48 EQ PUSH2 0x167 JUMPI DUP1 PUSH4 0x9ACE38C2 EQ PUSH2 0x183 JUMPI DUP1 PUSH4 0xC6427474 EQ PUSH2 0x1B7 JUMPI PUSH2 0x91 JUMP JUMPDEST DUP1 PUSH4 0x25E7C27 EQ PUSH2 0x95 JUMPI DUP1 PUSH4 0x173825D9 EQ PUSH2 0xC5 JUMPI DUP1 PUSH4 0x242232D1 EQ PUSH2 0xE1 JUMPI DUP1 PUSH4 0x2F54BF6E EQ PUSH2 0xFD JUMPI JUMPDEST PUSH0 DUP1 REVERT JUMPDEST PUSH2 0xAF PUSH1 0x4 DUP1 CALLDATASIZE SUB DUP2 ADD SWAP1 PUSH2 0xAA SWAP2 SWAP1 PUSH2 0x11BB JUMP JUMPDEST PUSH2 0x1D3 JUMP JUMPDEST PUSH1 0x40 MLOAD PUSH2 0xBC SWAP2 SWAP1 PUSH2 0x1225 JUMP JUMPDEST PUSH1 0x40 MLOAD DUP1 SWAP2 SUB SWAP1 RETURN JUMPDEST PUSH2 0xDF PUSH1 0x4 DUP1 CALLDATASIZE SUB DUP2 ADD SWAP1 PUSH2 0xDA SWAP2 SWAP1 PUSH2 0x1268 JUMP JUMPDEST PUSH2 0x20D JUMP JUMPDEST STOP JUMPDEST PUSH2 0xFB PUSH1 0x4 DUP1 CALLDATASIZE SUB DUP2 ADD SWAP1 PUSH2 0xF6 SWAP2 SWAP1 PUSH2 0x11BB JUMP JUMPDEST PUSH2 0x568 JUMP JUMPDEST STOP JUMPDEST PUSH2 0x117 PUSH1 0x4 DUP1 CALLDATASIZE SUB DUP2 ADD SWAP1 PUSH2 0x112 SWAP2 SWAP1 PUSH2 0x1268 JUMP JUMPDEST PUSH2 0x879 JUMP JUMPDEST PUSH1 0x40 MLOAD PUSH2 0x124 SWAP2 SWAP1 PUSH2 0x12AD JUMP JUMPDEST PUSH1 0x40 MLOAD DUP1 SWAP2 SUB SWAP1 RETURN JUMPDEST PUSH2 0x147 PUSH1 0x4 DUP1 CALLDATASIZE SUB DUP2 ADD SWAP1 PUSH2 0x142 SWAP2 SWAP1 PUSH2 0x11BB JUMP JUMPDEST PUSH2 0x896 JUMP JUMPDEST STOP JUMPDEST PUSH2 0x151 PUSH2 0xA4F JUMP JUMPDEST PUSH1 0x40 MLOAD PUSH2 0x15E SWAP2 SWAP1 PUSH2 0x12D5 JUMP JUMPDEST PUSH1 0x40 MLOAD DUP1 SWAP2 SUB SWAP1 RETURN JUMPDEST PUSH2 0x181 PUSH1 0x4 DUP1 CALLDATASIZE SUB DUP2 ADD SWAP1 PUSH2 0x17C SWAP2 SWAP1 PUSH2 0x1268 JUMP JUMPDEST PUSH2 0xA55 JUMP JUMPDEST STOP JUMPDEST PUSH2 0x19D PUSH1 0x4 DUP1 CALLDATASIZE SUB DUP2 ADD SWAP1 PUSH2 0x198 SWAP2 SWAP1 PUSH2 0x11BB JUMP JUMPDEST PUSH2 0xC8D JUMP JUMPDEST PUSH1 0x40 MLOAD PUSH2 0x1AE SWAP6 SWAP5 SWAP4 SWAP3 SWAP2 SWAP1 PUSH2 0x1378 JUMP JUMPDEST PUSH1 0x40 MLOAD DUP1 SWAP2 SUB SWAP1 RETURN JUMPDEST PUSH2 0x1D1 PUSH1 0x4 DUP1 CALLDATASIZE SUB DUP2 ADD SWAP1 PUSH2 0x1CC SWAP2 SWAP1 PUSH2 0x14FC JUMP JUMPDEST PUSH2 0xD7F JUMP JUMPDEST STOP JUMPDEST PUSH0 DUP2 DUP2 SLOAD DUP2 LT PUSH2 0x1E1 JUMPI PUSH0 DUP1 REVERT JUMPDEST SWAP1 PUSH0 MSTORE PUSH1 0x20 PUSH0 KECCAK256 ADD PUSH0 SWAP2 POP SLOAD SWAP1 PUSH2 0x100 EXP SWAP1 DIV PUSH20 0xFFFFFFFFFFFFFFFFFFFFFFFFFFFFFFFFFFFFFFFF AND DUP2 JUMP JUMPDEST PUSH1 0x1 PUSH0 CALLER PUSH20 0xFFFFFFFFFFFFFFFFFFFFFFFFFFFFFFFFFFFFFFFF AND PUSH20 0xFFFFFFFFFFFFFFFFFFFFFFFFFFFFFFFFFFFFFFFF AND DUP2 MSTORE PUSH1 0x20 ADD SWAP1 DUP2 MSTORE PUSH1 0x20 ADD PUSH0 KECCAK256 PUSH0 SWAP1 SLOAD SWAP1 PUSH2 0x100 EXP SWAP1 DIV PUSH1 0xFF AND PUSH2 0x296 JUMPI PUSH1 0x40 MLOAD PUSH32 0x8C379A000000000000000000000000000000000000000000000000000000000 DUP2 MSTORE PUSH1 0x4 ADD PUSH2 0x28D SWAP1 PUSH2 0x15C2 JUMP JUMPDEST PUSH1 0x40 MLOAD DUP1 SWAP2 SUB SWAP1 REVERT JUMPDEST PUSH1 0x1 PUSH0 DUP3 PUSH20 0xFFFFFFFFFFFFFFFFFFFFFFFFFFFFFFFFFFFFFFFF AND PUSH20 0xFFFFFFFFFFFFFFFFFFFFFFFFFFFFFFFFFFFFFFFF AND DUP2 MSTORE PUSH1 0x20 ADD SWAP1 DUP2 MSTORE PUSH1 0x20 ADD PUSH0 KECCAK256 PUSH0 SWAP1 SLOAD SWAP1 PUSH2 0x100 EXP SWAP1 DIV PUSH1 0xFF AND PUSH2 0x31F JUMPI PUSH1 0x40 MLOAD PUSH32 0x8C379A000000000000000000000000000000000000000000000000000000000 DUP2 MSTORE PUSH1 0x4 ADD PUSH2 0x316 SWAP1 PUSH2 0x15C2 JUMP JUMPDEST PUSH1 0x40 MLOAD DUP1 SWAP2 SUB SWAP1 REVERT JUMPDEST PUSH1 0x1 PUSH0 DUP1 SLOAD SWAP1 POP GT PUSH2 0x366 JUMPI PUSH1 0x40 MLOAD PUSH32 0x8C379A000000000000000000000000000000000000000000000000000000000 DUP2 MSTORE PUSH1 0x4 ADD PUSH2 0x35D SWAP1 PUSH2 0x162A JUMP JUMPDEST PUSH1 0x40 MLOAD DUP1 SWAP2 SUB SWAP1 REVERT JUMPDEST PUSH0 PUSH1 0x1 PUSH0 DUP4 PUSH20 0xFFFFFFFFFFFFFFFFFFFFFFFFFFFFFFFFFFFFFFFF AND PUSH20 0xFFFFFFFFFFFFFFFFFFFFFFFFFFFFFFFFFFFFFFFF AND DUP2 MSTORE PUSH1 0x20 ADD SWAP1 DUP2 MSTORE PUSH1 0x20 ADD PUSH0 KECCAK256 PUSH0 PUSH2 0x100 EXP DUP2 SLOAD DUP2 PUSH1 0xFF MUL NOT AND SWAP1 DUP4 ISZERO ISZERO MUL OR SWAP1 SSTORE POP PUSH0 JUMPDEST PUSH0 DUP1 SLOAD SWAP1 POP DUP2 LT ISZERO PUSH2 0x564 JUMPI DUP2 PUSH20 0xFFFFFFFFFFFFFFFFFFFFFFFFFFFFFFFFFFFFFFFF AND PUSH0 DUP3 DUP2 SLOAD DUP2 LT PUSH2 0x3F2 JUMPI PUSH2 0x3F1 PUSH2 0x1648 JUMP JUMPDEST JUMPDEST SWAP1 PUSH0 MSTORE PUSH1 0x20 PUSH0 KECCAK256 ADD PUSH0 SWAP1 SLOAD SWAP1 PUSH2 0x100 EXP SWAP1 DIV PUSH20 0xFFFFFFFFFFFFFFFFFFFFFFFFFFFFFFFFFFFFFFFF AND PUSH20 0xFFFFFFFFFFFFFFFFFFFFFFFFFFFFFFFFFFFFFFFF AND SUB PUSH2 0x557 JUMPI PUSH0 PUSH1 0x1 PUSH0 DUP1 SLOAD SWAP1 POP PUSH2 0x447 SWAP2 SWAP1 PUSH2 0x16A2 JUMP JUMPDEST DUP2 SLOAD DUP2 LT PUSH2 0x458 JUMPI PUSH2 0x457 PUSH2 0x1648 JUMP JUMPDEST JUMPDEST SWAP1 PUSH0 MSTORE PUSH1 0x20 PUSH0 KECCAK256 ADD PUSH0 SWAP1 SLOAD SWAP1 PUSH2 0x100 EXP SWAP1 DIV PUSH20 0xFFFFFFFFFFFFFFFFFFFFFFFFFFFFFFFFFFFFFFFF AND PUSH0 DUP3 DUP2 SLOAD DUP2 LT PUSH2 0x493 JUMPI PUSH2 0x492 PUSH2 0x1648 JUMP JUMPDEST JUMPDEST SWAP1 PUSH0 MSTORE PUSH1 0x20 PUSH0 KECCAK256 ADD PUSH0 PUSH2 0x100 EXP DUP2 SLOAD DUP2 PUSH20 0xFFFFFFFFFFFFFFFFFFFFFFFFFFFFFFFFFFFFFFFF MUL NOT AND SWAP1 DUP4 PUSH20 0xFFFFFFFFFFFFFFFFFFFFFFFFFFFFFFFFFFFFFFFF AND MUL OR SWAP1 SSTORE POP PUSH0 DUP1 SLOAD DUP1 PUSH2 0x4E9 JUMPI PUSH2 0x4E8 PUSH2 0x16D5 JUMP JUMPDEST JUMPDEST PUSH1 0x1 SWAP1 SUB DUP2 DUP2 SWAP1 PUSH0 MSTORE PUSH1 0x20 PUSH0 KECCAK256 ADD PUSH0 PUSH2 0x100 EXP DUP2 SLOAD SWAP1 PUSH20 0xFFFFFFFFFFFFFFFFFFFFFFFFFFFFFFFFFFFFFFFF MUL NOT AND SWAP1 SSTORE SWAP1 SSTORE PUSH32 0x86D076ECF250A6D90A67A7C75317F44709D5001395ECF1DF6D9DAD5278F1E681 DUP3 PUSH1 0x40 MLOAD PUSH2 0x54A SWAP2 SWAP1 PUSH2 0x1225 JUMP JUMPDEST PUSH1 0x40 MLOAD DUP1 SWAP2 SUB SWAP1 LOG1 PUSH2 0x564 JUMP JUMPDEST DUP1 DUP1 PUSH1 0x1 ADD SWAP2 POP POP PUSH2 0x3BC JUMP JUMPDEST POP POP JUMP JUMPDEST PUSH1 0x1 PUSH0 CALLER PUSH20 0xFFFFFFFFFFFFFFFFFFFFFFFFFFFFFFFFFFFFFFFF AND PUSH20 0xFFFFFFFFFFFFFFFFFFFFFFFFFFFFFFFFFFFFFFFF AND DUP2 MSTORE PUSH1 0x20 ADD SWAP1 DUP2 MSTORE PUSH1 0x20 ADD PUSH0 KECCAK256 PUSH0 SWAP1 SLOAD SWAP1 PUSH2 0x100 EXP SWAP1 DIV PUSH1 0xFF AND PUSH2 0x5F1 JUMPI PUSH1 0x40 MLOAD PUSH32 0x8C379A000000000000000000000000000000000000000000000000000000000 DUP2 MSTORE PUSH1 0x4 ADD PUSH2 0x5E8 SWAP1 PUSH2 0x15C2 JUMP JUMPDEST PUSH1 0x40 MLOAD DUP1 SWAP2 SUB SWAP1 REVERT JUMPDEST DUP1 PUSH1 0x3 DUP1 SLOAD SWAP1 POP DUP2 LT PUSH2 0x639 JUMPI PUSH1 0x40 MLOAD PUSH32 0x8C379A000000000000000000000000000000000000000000000000000000000 DUP2 MSTORE PUSH1 0x4 ADD PUSH2 0x630 SWAP1 PUSH2 0x174C JUMP JUMPDEST PUSH1 0x40 MLOAD DUP1 SWAP2 SUB SWAP1 REVERT JUMPDEST DUP2 PUSH1 0x3 DUP2 DUP2 SLOAD DUP2 LT PUSH2 0x64E JUMPI PUSH2 0x64D PUSH2 0x1648 JUMP JUMPDEST JUMPDEST SWAP1 PUSH0 MSTORE PUSH1 0x20 PUSH0 KECCAK256 SWAP1 PUSH1 0x6 MUL ADD PUSH1 0x3 ADD PUSH0 SWAP1 SLOAD SWAP1 PUSH2 0x100 EXP SWAP1 DIV PUSH1 0xFF AND ISZERO PUSH2 0x6AA JUMPI PUSH1 0x40 MLOAD PUSH32 0x8C379A000000000000000000000000000000000000000000000000000000000 DUP2 MSTORE PUSH1 0x4 ADD PUSH2 0x6A1 SWAP1 PUSH2 0x17B4 JUMP JUMPDEST PUSH1 0x40 MLOAD DUP1 SWAP2 SUB SWAP1 REVERT JUMPDEST DUP3 PUSH1 0x3 DUP2 DUP2 SLOAD DUP2 LT PUSH2 0x6BF JUMPI PUSH2 0x6BE PUSH2 0x1648 JUMP JUMPDEST JUMPDEST SWAP1 PUSH0 MSTORE PUSH1 0x20 PUSH0 KECCAK256 SWAP1 PUSH1 0x6 MUL ADD PUSH1 0x4 ADD PUSH0 CALLER PUSH20 0xFFFFFFFFFFFFFFFFFFFFFFFFFFFFFFFFFFFFFFFF AND PUSH20 0xFFFFFFFFFFFFFFFFFFFFFFFFFFFFFFFFFFFFFFFF AND DUP2 MSTORE PUSH1 0x20 ADD SWAP1 DUP2 MSTORE PUSH1 0x20 ADD PUSH0 KECCAK256 PUSH0 SWAP1 SLOAD SWAP1 PUSH2 0x100 EXP SWAP1 DIV PUSH1 0xFF AND ISZERO PUSH2 0x756 JUMPI PUSH1 0x40 MLOAD PUSH32 0x8C379A000000000000000000000000000000000000000000000000000000000 DUP2 MSTORE PUSH1 0x4 ADD PUSH2 0x74D SWAP1 PUSH2 0x1842 JUMP JUMPDEST PUSH1 0x40 MLOAD DUP1 SWAP2 SUB SWAP1 REVERT JUMPDEST PUSH1 0x1 PUSH1 0x3 DUP6 DUP2 SLOAD DUP2 LT PUSH2 0x76C JUMPI PUSH2 0x76B PUSH2 0x1648 JUMP JUMPDEST JUMPDEST SWAP1 PUSH0 MSTORE PUSH1 0x20 PUSH0 KECCAK256 SWAP1 PUSH1 0x6 MUL ADD PUSH1 0x4 ADD PUSH0 CALLER PUSH20 0xFFFFFFFFFFFFFFFFFFFFFFFFFFFFFFFFFFFFFFFF AND PUSH20 0xFFFFFFFFFFFFFFFFFFFFFFFFFFFFFFFFFFFFFFFF AND DUP2 MSTORE PUSH1 0x20 ADD SWAP1 DUP2 MSTORE PUSH1 0x20 ADD PUSH0 KECCAK256 PUSH0 PUSH2 0x100 EXP DUP2 SLOAD DUP2 PUSH1 0xFF MUL NOT AND SWAP1 DUP4 ISZERO ISZERO MUL OR SWAP1 SSTORE POP PUSH1 0x3 DUP5 DUP2 SLOAD DUP2 LT PUSH2 0x7E0 JUMPI PUSH2 0x7DF PUSH2 0x1648 JUMP JUMPDEST JUMPDEST SWAP1 PUSH0 MSTORE PUSH1 0x20 PUSH0 KECCAK256 SWAP1 PUSH1 0x6 MUL ADD PUSH1 0x5 ADD PUSH0 DUP2 SLOAD DUP1 SWAP3 SWAP2 SWAP1 PUSH2 0x7FF SWAP1 PUSH2 0x1860 JUMP JUMPDEST SWAP2 SWAP1 POP SSTORE POP PUSH32 0x924813D717E221B5F46DCD8A56DA1679E4612584AB3237D55E5FAABF6F6A3079 DUP5 CALLER PUSH1 0x40 MLOAD PUSH2 0x835 SWAP3 SWAP2 SWAP1 PUSH2 0x18A7 JUMP JUMPDEST PUSH1 0x40 MLOAD DUP1 SWAP2 SUB SWAP1 LOG1 PUSH1 0x2 SLOAD PUSH1 0x3 DUP6 DUP2 SLOAD DUP2 LT PUSH2 0x854 JUMPI PUSH2 0x853 PUSH2 0x1648 JUMP JUMPDEST JUMPDEST SWAP1 PUSH0 MSTORE PUSH1 0x20 PUSH0 KECCAK256 SWAP1 PUSH1 0x6 MUL ADD PUSH1 0x5 ADD SLOAD LT PUSH2 0x873 JUMPI PUSH2 0x872 DUP5 PUSH2 0xF14 JUMP JUMPDEST JUMPDEST POP POP POP POP JUMP JUMPDEST PUSH1 0x1 PUSH1 0x20 MSTORE DUP1 PUSH0 MSTORE PUSH1 0x40 PUSH0 KECCAK256 PUSH0 SWAP2 POP SLOAD SWAP1 PUSH2 0x100 EXP SWAP1 DIV PUSH1 0xFF AND DUP2 JUMP JUMPDEST PUSH1 0x1 PUSH0 CALLER PUSH20 0xFFFFFFFFFFFFFFFFFFFFFFFFFFFFFFFFFFFFFFFF AND PUSH20 0xFFFFFFFFFFFFFFFFFFFFFFFFFFFFFFFFFFFFFFFF AND DUP2 MSTORE PUSH1 0x20 ADD SWAP1 DUP2 MSTORE PUSH1 0x20 ADD PUSH0 KECCAK256 PUSH0 SWAP1 SLOAD SWAP1 PUSH2 0x100 EXP SWAP1 DIV PUSH1 0xFF AND PUSH2 0x91F JUMPI PUSH1 0x40 MLOAD PUSH32 0x8C379A000000000000000000000000000000000000000000000000000000000 DUP2 MSTORE PUSH1 0x4 ADD PUSH2 0x916 SWAP1 PUSH2 0x15C2 JUMP JUMPDEST PUSH1 0x40 MLOAD DUP1 SWAP2 SUB SWAP1 REVERT JUMPDEST DUP1 PUSH1 0x3 DUP1 SLOAD SWAP1 POP DUP2 LT PUSH2 0x967 JUMPI PUSH1 0x40 MLOAD PUSH32 0x8C379A000000000000000000000000000000000000000000000000000000000 DUP2 MSTORE PUSH1 0x4 ADD PUSH2 0x95E SWAP1 PUSH2 0x174C JUMP JUMPDEST PUSH1 0x40 MLOAD DUP1 SWAP2 SUB SWAP1 REVERT JUMPDEST DUP2 PUSH1 0x3 DUP2 DUP2 SLOAD DUP2 LT PUSH2 0x97C JUMPI PUSH2 0x97B PUSH2 0x1648 JUMP JUMPDEST JUMPDEST SWAP1 PUSH0 MSTORE PUSH1 0x20 PUSH0 KECCAK256 SWAP1 PUSH1 0x6 MUL ADD PUSH1 0x3 ADD PUSH0 SWAP1 SLOAD SWAP1 PUSH2 0x100 EXP SWAP1 DIV PUSH1 0xFF AND ISZERO PUSH2 0x9D8 JUMPI PUSH1 0x40 MLOAD PUSH32 0x8C379A000000000000000000000000000000000000000000000000000000000 DUP2 MSTORE PUSH1 0x4 ADD PUSH2 0x9CF SWAP1 PUSH2 0x17B4 JUMP JUMPDEST PUSH1 0x40 MLOAD DUP1 SWAP2 SUB SWAP1 REVERT JUMPDEST PUSH1 0x1 PUSH1 0x3 DUP5 DUP2 SLOAD DUP2 LT PUSH2 0x9EE JUMPI PUSH2 0x9ED PUSH2 0x1648 JUMP JUMPDEST JUMPDEST SWAP1 PUSH0 MSTORE PUSH1 0x20 PUSH0 KECCAK256 SWAP1 PUSH1 0x6 MUL ADD PUSH1 0x3 ADD PUSH0 PUSH2 0x100 EXP DUP2 SLOAD DUP2 PUSH1 0xFF MUL NOT AND SWAP1 DUP4 ISZERO ISZERO MUL OR SWAP1 SSTORE POP PUSH32 0x956FB32199D8B882B2039A14E1BE35AB14F7A80B9089FC223F14B43937173E60 DUP4 PUSH1 0x40 MLOAD PUSH2 0xA42 SWAP2 SWAP1 PUSH2 0x12D5 JUMP JUMPDEST PUSH1 0x40 MLOAD DUP1 SWAP2 SUB SWAP1 LOG1 POP POP POP JUMP JUMPDEST PUSH1 0x2 SLOAD DUP2 JUMP JUMPDEST PUSH1 0x1 PUSH0 CALLER PUSH20 0xFFFFFFFFFFFFFFFFFFFFFFFFFFFFFFFFFFFFFFFF AND PUSH20 0xFFFFFFFFFFFFFFFFFFFFFFFFFFFFFFFFFFFFFFFF AND DUP2 MSTORE PUSH1 0x20 ADD SWAP1 DUP2 MSTORE PUSH1 0x20 ADD PUSH0 KECCAK256 PUSH0 SWAP1 SLOAD SWAP1 PUSH2 0x100 EXP SWAP1 DIV PUSH1 0xFF AND PUSH2 0xADE JUMPI PUSH1 0x40 MLOAD PUSH32 0x8C379A000000000000000000000000000000000000000000000000000000000 DUP2 MSTORE PUSH1 0x4 ADD PUSH2 0xAD5 SWAP1 PUSH2 0x15C2 JUMP JUMPDEST PUSH1 0x40 MLOAD DUP1 SWAP2 SUB SWAP1 REVERT JUMPDEST PUSH0 PUSH20 0xFFFFFFFFFFFFFFFFFFFFFFFFFFFFFFFFFFFFFFFF AND DUP2 PUSH20 0xFFFFFFFFFFFFFFFFFFFFFFFFFFFFFFFFFFFFFFFF AND EQ ISZERO DUP1 ISZERO PUSH2 0xB61 JUMPI POP PUSH1 0x1 PUSH0 DUP3 PUSH20 0xFFFFFFFFFFFFFFFFFFFFFFFFFFFFFFFFFFFFFFFF AND PUSH20 0xFFFFFFFFFFFFFFFFFFFFFFFFFFFFFFFFFFFFFFFF AND DUP2 MSTORE PUSH1 0x20 ADD SWAP1 DUP2 MSTORE PUSH1 0x20 ADD PUSH0 KECCAK256 PUSH0 SWAP1 SLOAD SWAP1 PUSH2 0x100 EXP SWAP1 DIV PUSH1 0xFF AND ISZERO JUMPDEST PUSH2 0xBA0 JUMPI PUSH1 0x40 MLOAD PUSH32 0x8C379A000000000000000000000000000000000000000000000000000000000 DUP2 MSTORE PUSH1 0x4 ADD PUSH2 0xB97 SWAP1 PUSH2 0x1918 JUMP JUMPDEST PUSH1 0x40 MLOAD DUP1 SWAP2 SUB SWAP1 REVERT JUMPDEST PUSH1 0x1 DUP1 PUSH0 DUP4 PUSH20 0xFFFFFFFFFFFFFFFFFFFFFFFFFFFFFFFFFFFFFFFF AND PUSH20 0xFFFFFFFFFFFFFFFFFFFFFFFFFFFFFFFFFFFFFFFF AND DUP2 MSTORE PUSH1 0x20 ADD SWAP1 DUP2 MSTORE PUSH1 0x20 ADD PUSH0 KECCAK256 PUSH0 PUSH2 0x100 EXP DUP2 SLOAD DUP2 PUSH1 0xFF MUL NOT AND SWAP1 DUP4 ISZERO ISZERO MUL OR SWAP1 SSTORE POP PUSH0 DUP2 SWAP1 DUP1 PUSH1 0x1 DUP2 SLOAD ADD DUP1 DUP3 SSTORE DUP1 SWAP2 POP POP PUSH1 0x1 SWAP1 SUB SWAP1 PUSH0 MSTORE PUSH1 0x20 PUSH0 KECCAK256 ADD PUSH0 SWAP1 SWAP2 SWAP1 SWAP2 SWAP1 SWAP2 PUSH2 0x100 EXP DUP2 SLOAD DUP2 PUSH20 0xFFFFFFFFFFFFFFFFFFFFFFFFFFFFFFFFFFFFFFFF MUL NOT AND SWAP1 DUP4 PUSH20 0xFFFFFFFFFFFFFFFFFFFFFFFFFFFFFFFFFFFFFFFF AND MUL OR SWAP1 SSTORE POP PUSH32 0xB4CD6C6140E1DB788F68710738B06EF4D0DF6A884A06A088433A4C2F5E036E7C DUP2 PUSH1 0x40 MLOAD PUSH2 0xC82 SWAP2 SWAP1 PUSH2 0x1225 JUMP JUMPDEST PUSH1 0x40 MLOAD DUP1 SWAP2 SUB SWAP1 LOG1 POP JUMP JUMPDEST PUSH1 0x3 DUP2 DUP2 SLOAD DUP2 LT PUSH2 0xC9C JUMPI PUSH0 DUP1 REVERT JUMPDEST SWAP1 PUSH0 MSTORE PUSH1 0x20 PUSH0 KECCAK256 SWAP1 PUSH1 0x6 MUL ADD PUSH0 SWAP2 POP SWAP1 POP DUP1 PUSH0 ADD PUSH0 SWAP1 SLOAD SWAP1 PUSH2 0x100 EXP SWAP1 DIV PUSH20 0xFFFFFFFFFFFFFFFFFFFFFFFFFFFFFFFFFFFFFFFF AND SWAP1 DUP1 PUSH1 0x1 ADD SLOAD SWAP1 DUP1 PUSH1 0x2 ADD DUP1 SLOAD PUSH2 0xCE6 SWAP1 PUSH2 0x1963 JUMP JUMPDEST DUP1 PUSH1 0x1F ADD PUSH1 0x20 DUP1 SWAP2 DIV MUL PUSH1 0x20 ADD PUSH1 0x40 MLOAD SWAP1 DUP2 ADD PUSH1 0x40 MSTORE DUP1 SWAP3 SWAP2 SWAP1 DUP2 DUP2 MSTORE PUSH1 0x20 ADD DUP3 DUP1 SLOAD PUSH2 0xD12 SWAP1 PUSH2 0x1963 JUMP JUMPDEST DUP1 ISZERO PUSH2 0xD5D JUMPI DUP1 PUSH1 0x1F LT PUSH2 0xD34 JUMPI PUSH2 0x100 DUP1 DUP4 SLOAD DIV MUL DUP4 MSTORE SWAP2 PUSH1 0x20 ADD SWAP2 PUSH2 0xD5D JUMP JUMPDEST DUP3 ADD SWAP2 SWAP1 PUSH0 MSTORE PUSH1 0x20 PUSH0 KECCAK256 SWAP1 JUMPDEST DUP2 SLOAD DUP2 MSTORE SWAP1 PUSH1 0x1 ADD SWAP1 PUSH1 0x20 ADD DUP1 DUP4 GT PUSH2 0xD40 JUMPI DUP3 SWAP1 SUB PUSH1 0x1F AND DUP3 ADD SWAP2 JUMPDEST POP POP POP POP POP SWAP1 DUP1 PUSH1 0x3 ADD PUSH0 SWAP1 SLOAD SWAP1 PUSH2 0x100 EXP SWAP1 DIV PUSH1 0xFF AND SWAP1 DUP1 PUSH1 0x5 ADD SLOAD SWAP1 POP DUP6 JUMP JUMPDEST PUSH1 0x1 PUSH0 CALLER PUSH20 0xFFFFFFFFFFFFFFFFFFFFFFFFFFFFFFFFFFFFFFFF AND PUSH20 0xFFFFFFFFFFFFFFFFFFFFFFFFFFFFFFFFFFFFFFFF AND DUP2 MSTORE PUSH1 0x20 ADD SWAP1 DUP2 MSTORE PUSH1 0x20 ADD PUSH0 KECCAK256 PUSH0 SWAP1 SLOAD SWAP1 PUSH2 0x100 EXP SWAP1 DIV PUSH1 0xFF AND PUSH2 0xE08 JUMPI PUSH1 0x40 MLOAD PUSH32 0x8C379A000000000000000000000000000000000000000000000000000000000 DUP2 MSTORE PUSH1 0x4 ADD PUSH2 0xDFF SWAP1 PUSH2 0x15C2 JUMP JUMPDEST PUSH1 0x40 MLOAD DUP1 SWAP2 SUB SWAP1 REVERT JUMPDEST PUSH0 PUSH1 0x3 DUP1 SLOAD SWAP1 POP SWAP1 POP PUSH1 0x3 PUSH1 0x1 DUP2 PUSH1 0x1 DUP2 SLOAD ADD DUP1 DUP3 SSTORE DUP1 SWAP2 POP POP SUB SWAP1 PUSH0 MSTORE PUSH1 0x20 PUSH0 KECCAK256 SWAP1 POP POP PUSH0 PUSH1 0x3 DUP3 DUP2 SLOAD DUP2 LT PUSH2 0xE42 JUMPI PUSH2 0xE41 PUSH2 0x1648 JUMP JUMPDEST JUMPDEST SWAP1 PUSH0 MSTORE PUSH1 0x20 PUSH0 KECCAK256 SWAP1 PUSH1 0x6 MUL ADD SWAP1 POP DUP5 DUP2 PUSH0 ADD PUSH0 PUSH2 0x100 EXP DUP2 SLOAD DUP2 PUSH20 0xFFFFFFFFFFFFFFFFFFFFFFFFFFFFFFFFFFFFFFFF MUL NOT AND SWAP1 DUP4 PUSH20 0xFFFFFFFFFFFFFFFFFFFFFFFFFFFFFFFFFFFFFFFF AND MUL OR SWAP1 SSTORE POP DUP4 DUP2 PUSH1 0x1 ADD DUP2 SWAP1 SSTORE POP DUP3 DUP2 PUSH1 0x2 ADD SWAP1 DUP2 PUSH2 0xEAB SWAP2 SWAP1 PUSH2 0x1B30 JUMP JUMPDEST POP PUSH0 DUP2 PUSH1 0x3 ADD PUSH0 PUSH2 0x100 EXP DUP2 SLOAD DUP2 PUSH1 0xFF MUL NOT AND SWAP1 DUP4 ISZERO ISZERO MUL OR SWAP1 SSTORE POP PUSH0 DUP2 PUSH1 0x5 ADD DUP2 SWAP1 SSTORE POP PUSH32 0x3F6DB45DA5513BD4FE9F8A31E60EA668BDD4BCA57E30A85A9A26F90C9FBCB56C DUP3 DUP7 DUP7 DUP7 PUSH1 0x40 MLOAD PUSH2 0xF05 SWAP5 SWAP4 SWAP3 SWAP2 SWAP1 PUSH2 0x1BFF JUMP JUMPDEST PUSH1 0x40 MLOAD DUP1 SWAP2 SUB SWAP1 LOG1 POP POP POP POP POP JUMP JUMPDEST DUP1 PUSH1 0x3 DUP1 SLOAD SWAP1 POP DUP2 LT PUSH2 0xF5C JUMPI PUSH1 0x40 MLOAD PUSH32 0x8C379A000000000000000000000000000000000000000000000000000000000 DUP2 MSTORE PUSH1 0x4 ADD PUSH2 0xF53 SWAP1 PUSH2 0x174C JUMP JUMPDEST PUSH1 0x40 MLOAD DUP1 SWAP2 SUB SWAP1 REVERT JUMPDEST DUP2 PUSH1 0x3 DUP2 DUP2 SLOAD DUP2 LT PUSH2 0xF71 JUMPI PUSH2 0xF70 PUSH2 0x1648 JUMP JUMPDEST JUMPDEST SWAP1 PUSH0 MSTORE PUSH1 0x20 PUSH0 KECCAK256 SWAP1 PUSH1 0x6 MUL ADD PUSH1 0x3 ADD PUSH0 SWAP1 SLOAD SWAP1 PUSH2 0x100 EXP SWAP1 DIV PUSH1 0xFF AND ISZERO PUSH2 0xFCD JUMPI PUSH1 0x40 MLOAD PUSH32 0x8C379A000000000000000000000000000000000000000000000000000000000 DUP2 MSTORE PUSH1 0x4 ADD PUSH2 0xFC4 SWAP1 PUSH2 0x17B4 JUMP JUMPDEST PUSH1 0x40 MLOAD DUP1 SWAP2 SUB SWAP1 REVERT JUMPDEST PUSH1 0x1 PUSH1 0x3 DUP5 DUP2 SLOAD DUP2 LT PUSH2 0xFE3 JUMPI PUSH2 0xFE2 PUSH2 0x1648 JUMP JUMPDEST JUMPDEST SWAP1 PUSH0 MSTORE PUSH1 0x20 PUSH0 KECCAK256 SWAP1 PUSH1 0x6 MUL ADD PUSH1 0x3 ADD PUSH0 PUSH2 0x100 EXP DUP2 SLOAD DUP2 PUSH1 0xFF MUL NOT AND SWAP1 DUP4 ISZERO ISZERO MUL OR SWAP1 SSTORE POP PUSH0 PUSH1 0x3 DUP5 DUP2 SLOAD DUP2 LT PUSH2 0x101D JUMPI PUSH2 0x101C PUSH2 0x1648 JUMP JUMPDEST JUMPDEST SWAP1 PUSH0 MSTORE PUSH1 0x20 PUSH0 KECCAK256 SWAP1 PUSH1 0x6 MUL ADD PUSH0 ADD PUSH0 SWAP1 SLOAD SWAP1 PUSH2 0x100 EXP SWAP1 DIV PUSH20 0xFFFFFFFFFFFFFFFFFFFFFFFFFFFFFFFFFFFFFFFF AND PUSH20 0xFFFFFFFFFFFFFFFFFFFFFFFFFFFFFFFFFFFFFFFF AND PUSH1 0x3 DUP6 DUP2 SLOAD DUP2 LT PUSH2 0x1075 JUMPI PUSH2 0x1074 PUSH2 0x1648 JUMP JUMPDEST JUMPDEST SWAP1 PUSH0 MSTORE PUSH1 0x20 PUSH0 KECCAK256 SWAP1 PUSH1 0x6 MUL ADD PUSH1 0x1 ADD SLOAD PUSH1 0x3 DUP7 DUP2 SLOAD DUP2 LT PUSH2 0x1099 JUMPI PUSH2 0x1098 PUSH2 0x1648 JUMP JUMPDEST JUMPDEST SWAP1 PUSH0 MSTORE PUSH1 0x20 PUSH0 KECCAK256 SWAP1 PUSH1 0x6 MUL ADD PUSH1 0x2 ADD PUSH1 0x40 MLOAD PUSH2 0x10B5 SWAP2 SWAP1 PUSH2 0x1CD3 JUMP JUMPDEST PUSH0 PUSH1 0x40 MLOAD DUP1 DUP4 SUB DUP2 DUP6 DUP8 GAS CALL SWAP3 POP POP POP RETURNDATASIZE DUP1 PUSH0 DUP2 EQ PUSH2 0x10EF JUMPI PUSH1 0x40 MLOAD SWAP2 POP PUSH1 0x1F NOT PUSH1 0x3F RETURNDATASIZE ADD AND DUP3 ADD PUSH1 0x40 MSTORE RETURNDATASIZE DUP3 MSTORE RETURNDATASIZE PUSH0 PUSH1 0x20 DUP5 ADD RETURNDATACOPY PUSH2 0x10F4 JUMP JUMPDEST PUSH1 0x60 SWAP2 POP JUMPDEST POP POP SWAP1 POP DUP1 PUSH2 0x1138 JUMPI PUSH1 0x40 MLOAD PUSH32 0x8C379A000000000000000000000000000000000000000000000000000000000 DUP2 MSTORE PUSH1 0x4 ADD PUSH2 0x112F SWAP1 PUSH2 0x1D33 JUMP JUMPDEST PUSH1 0x40 MLOAD DUP1 SWAP2 SUB SWAP1 REVERT JUMPDEST PUSH32 0xEFC13BDCF58F184EA7CAE26B499FB33B539E01D0197CEA456F3ADA289B8CF19B DUP5 CALLER PUSH1 0x40 MLOAD PUSH2 0x1169 SWAP3 SWAP2 SWAP1 PUSH2 0x18A7 JUMP JUMPDEST PUSH1 0x40 MLOAD DUP1 SWAP2 SUB SWAP1 LOG1 POP POP POP POP JUMP JUMPDEST PUSH0 PUSH1 0x40 MLOAD SWAP1 POP SWAP1 JUMP JUMPDEST PUSH0 DUP1 REVERT JUMPDEST PUSH0 DUP1 REVERT JUMPDEST PUSH0 DUP2 SWAP1 POP SWAP2 SWAP1 POP JUMP JUMPDEST PUSH2 0x119A DUP2 PUSH2 0x1188 JUMP JUMPDEST DUP2 EQ PUSH2 0x11A4 JUMPI PUSH0 DUP1 REVERT JUMPDEST POP JUMP JUMPDEST PUSH0 DUP2 CALLDATALOAD SWAP1 POP PUSH2 0x11B5 DUP2 PUSH2 0x1191 JUMP JUMPDEST SWAP3 SWAP2 POP POP JUMP JUMPDEST PUSH0 PUSH1 0x20 DUP3 DUP5 SUB SLT ISZERO PUSH2 0x11D0 JUMPI PUSH2 0x11CF PUSH2 0x1180 JUMP JUMPDEST JUMPDEST PUSH0 PUSH2 0x11DD DUP5 DUP3 DUP6 ADD PUSH2 0x11A7 JUMP JUMPDEST SWAP2 POP POP SWAP3 SWAP2 POP POP JUMP JUMPDEST PUSH0 PUSH20 0xFFFFFFFFFFFFFFFFFFFFFFFFFFFFFFFFFFFFFFFF DUP3 AND SWAP1 POP SWAP2 SWAP1 POP JUMP JUMPDEST PUSH0 PUSH2 0x120F DUP3 PUSH2 0x11E6 JUMP JUMPDEST SWAP1 POP SWAP2 SWAP1 POP JUMP JUMPDEST PUSH2 0x121F DUP2 PUSH2 0x1205 JUMP JUMPDEST DUP3 MSTORE POP POP JUMP JUMPDEST PUSH0 PUSH1 0x20 DUP3 ADD SWAP1 POP PUSH2 0x1238 PUSH0 DUP4 ADD DUP5 PUSH2 0x1216 JUMP JUMPDEST SWAP3 SWAP2 POP POP JUMP JUMPDEST PUSH2 0x1247 DUP2 PUSH2 0x1205 JUMP JUMPDEST DUP2 EQ PUSH2 0x1251 JUMPI PUSH0 DUP1 REVERT JUMPDEST POP JUMP JUMPDEST PUSH0 DUP2 CALLDATALOAD SWAP1 POP PUSH2 0x1262 DUP2 PUSH2 0x123E JUMP JUMPDEST SWAP3 SWAP2 POP POP JUMP JUMPDEST PUSH0 PUSH1 0x20 DUP3 DUP5 SUB SLT ISZERO PUSH2 0x127D JUMPI PUSH2 0x127C PUSH2 0x1180 JUMP JUMPDEST JUMPDEST PUSH0 PUSH2 0x128A DUP5 DUP3 DUP6 ADD PUSH2 0x1254 JUMP JUMPDEST SWAP2 POP POP SWAP3 SWAP2 POP POP JUMP JUMPDEST PUSH0 DUP2 ISZERO ISZERO SWAP1 POP SWAP2 SWAP1 POP JUMP JUMPDEST PUSH2 0x12A7 DUP2 PUSH2 0x1293 JUMP JUMPDEST DUP3 MSTORE POP POP JUMP JUMPDEST PUSH0 PUSH1 0x20 DUP3 ADD SWAP1 POP PUSH2 0x12C0 PUSH0 DUP4 ADD DUP5 PUSH2 0x129E JUMP JUMPDEST SWAP3 SWAP2 POP POP JUMP JUMPDEST PUSH2 0x12CF DUP2 PUSH2 0x1188 JUMP JUMPDEST DUP3 MSTORE POP POP JUMP JUMPDEST PUSH0 PUSH1 0x20 DUP3 ADD SWAP1 POP PUSH2 0x12E8 PUSH0 DUP4 ADD DUP5 PUSH2 0x12C6 JUMP JUMPDEST SWAP3 SWAP2 POP POP JUMP JUMPDEST PUSH0 DUP2 MLOAD SWAP1 POP SWAP2 SWAP1 POP JUMP JUMPDEST PUSH0 DUP3 DUP3 MSTORE PUSH1 0x20 DUP3 ADD SWAP1 POP SWAP3 SWAP2 POP POP JUMP JUMPDEST PUSH0 JUMPDEST DUP4 DUP2 LT ISZERO PUSH2 0x1325 JUMPI DUP1 DUP3 ADD MLOAD DUP2 DUP5 ADD MSTORE PUSH1 0x20 DUP2 ADD SWAP1 POP PUSH2 0x130A JUMP JUMPDEST PUSH0 DUP5 DUP5 ADD MSTORE POP POP POP POP JUMP JUMPDEST PUSH0 PUSH1 0x1F NOT PUSH1 0x1F DUP4 ADD AND SWAP1 POP SWAP2 SWAP1 POP JUMP JUMPDEST PUSH0 PUSH2 0x134A DUP3 PUSH2 0x12EE JUMP JUMPDEST PUSH2 0x1354 DUP2 DUP6 PUSH2 0x12F8 JUMP JUMPDEST SWAP4 POP PUSH2 0x1364 DUP2 DUP6 PUSH1 0x20 DUP7 ADD PUSH2 0x1308 JUMP JUMPDEST PUSH2 0x136D DUP2 PUSH2 0x1330 JUMP JUMPDEST DUP5 ADD SWAP2 POP POP SWAP3 SWAP2 POP POP JUMP JUMPDEST PUSH0 PUSH1 0xA0 DUP3 ADD SWAP1 POP PUSH2 0x138B PUSH0 DUP4 ADD DUP9 PUSH2 0x1216 JUMP JUMPDEST PUSH2 0x1398 PUSH1 0x20 DUP4 ADD DUP8 PUSH2 0x12C6 JUMP JUMPDEST DUP2 DUP2 SUB PUSH1 0x40 DUP4 ADD MSTORE PUSH2 0x13AA DUP2 DUP7 PUSH2 0x1340 JUMP JUMPDEST SWAP1 POP PUSH2 0x13B9 PUSH1 0x60 DUP4 ADD DUP6 PUSH2 0x129E JUMP JUMPDEST PUSH2 0x13C6 PUSH1 0x80 DUP4 ADD DUP5 PUSH2 0x12C6 JUMP JUMPDEST SWAP7 SWAP6 POP POP POP POP POP POP JUMP JUMPDEST PUSH0 DUP1 REVERT JUMPDEST PUSH0 DUP1 REVERT JUMPDEST PUSH32 0x4E487B7100000000000000000000000000000000000000000000000000000000 PUSH0 MSTORE PUSH1 0x41 PUSH1 0x4 MSTORE PUSH1 0x24 PUSH0 REVERT JUMPDEST PUSH2 0x140E DUP3 PUSH2 0x1330 JUMP JUMPDEST DUP2 ADD DUP2 DUP2 LT PUSH8 0xFFFFFFFFFFFFFFFF DUP3 GT OR ISZERO PUSH2 0x142D JUMPI PUSH2 0x142C PUSH2 0x13D8 JUMP JUMPDEST JUMPDEST DUP1 PUSH1 0x40 MSTORE POP POP POP JUMP JUMPDEST PUSH0 PUSH2 0x143F PUSH2 0x1177 JUMP JUMPDEST SWAP1 POP PUSH2 0x144B DUP3 DUP3 PUSH2 0x1405 JUMP JUMPDEST SWAP2 SWAP1 POP JUMP JUMPDEST PUSH0 PUSH8 0xFFFFFFFFFFFFFFFF DUP3 GT ISZERO PUSH2 0x146A JUMPI PUSH2 0x1469 PUSH2 0x13D8 JUMP JUMPDEST JUMPDEST PUSH2 0x1473 DUP3 PUSH2 0x1330 JUMP JUMPDEST SWAP1 POP PUSH1 0x20 DUP2 ADD SWAP1 POP SWAP2 SWAP1 POP JUMP JUMPDEST DUP3 DUP2 DUP4 CALLDATACOPY PUSH0 DUP4 DUP4 ADD MSTORE POP POP POP JUMP JUMPDEST PUSH0 PUSH2 0x14A0 PUSH2 0x149B DUP5 PUSH2 0x1450 JUMP JUMPDEST PUSH2 0x1436 JUMP JUMPDEST SWAP1 POP DUP3 DUP2 MSTORE PUSH1 0x20 DUP2 ADD DUP5 DUP5 DUP5 ADD GT ISZERO PUSH2 0x14BC JUMPI PUSH2 0x14BB PUSH2 0x13D4 JUMP JUMPDEST JUMPDEST PUSH2 0x14C7 DUP5 DUP3 DUP6 PUSH2 0x1480 JUMP JUMPDEST POP SWAP4 SWAP3 POP POP POP JUMP JUMPDEST PUSH0 DUP3 PUSH1 0x1F DUP4 ADD SLT PUSH2 0x14E3 JUMPI PUSH2 0x14E2 PUSH2 0x13D0 JUMP JUMPDEST JUMPDEST DUP2 CALLDATALOAD PUSH2 0x14F3 DUP5 DUP3 PUSH1 0x20 DUP7 ADD PUSH2 0x148E JUMP JUMPDEST SWAP2 POP POP SWAP3 SWAP2 POP POP JUMP JUMPDEST PUSH0 DUP1 PUSH0 PUSH1 0x60 DUP5 DUP7 SUB SLT ISZERO PUSH2 0x1513 JUMPI PUSH2 0x1512 PUSH2 0x1180 JUMP JUMPDEST JUMPDEST PUSH0 PUSH2 0x1520 DUP7 DUP3 DUP8 ADD PUSH2 0x1254 JUMP JUMPDEST SWAP4 POP POP PUSH1 0x20 PUSH2 0x1531 DUP7 DUP3 DUP8 ADD PUSH2 0x11A7 JUMP JUMPDEST SWAP3 POP POP PUSH1 0x40 DUP5 ADD CALLDATALOAD PUSH8 0xFFFFFFFFFFFFFFFF DUP2 GT ISZERO PUSH2 0x1552 JUMPI PUSH2 0x1551 PUSH2 0x1184 JUMP JUMPDEST JUMPDEST PUSH2 0x155E DUP7 DUP3 DUP8 ADD PUSH2 0x14CF JUMP JUMPDEST SWAP2 POP POP SWAP3 POP SWAP3 POP SWAP3 JUMP JUMPDEST PUSH0 DUP3 DUP3 MSTORE PUSH1 0x20 DUP3 ADD SWAP1 POP SWAP3 SWAP2 POP POP JUMP JUMPDEST PUSH32 0x4E6F7420616E206F776E65720000000000000000000000000000000000000000 PUSH0 DUP3 ADD MSTORE POP JUMP JUMPDEST PUSH0 PUSH2 0x15AC PUSH1 0xC DUP4 PUSH2 0x1568 JUMP JUMPDEST SWAP2 POP PUSH2 0x15B7 DUP3 PUSH2 0x1578 JUMP JUMPDEST PUSH1 0x20 DUP3 ADD SWAP1 POP SWAP2 SWAP1 POP JUMP JUMPDEST PUSH0 PUSH1 0x20 DUP3 ADD SWAP1 POP DUP2 DUP2 SUB PUSH0 DUP4 ADD MSTORE PUSH2 0x15D9 DUP2 PUSH2 0x15A0 JUMP JUMPDEST SWAP1 POP SWAP2 SWAP1 POP JUMP JUMPDEST PUSH32 0x43616E6E6F742072656D6F766520746865206C617374206F776E657200000000 PUSH0 DUP3 ADD MSTORE POP JUMP JUMPDEST PUSH0 PUSH2 0x1614 PUSH1 0x1C DUP4 PUSH2 0x1568 JUMP JUMPDEST SWAP2 POP PUSH2 0x161F DUP3 PUSH2 0x15E0 JUMP JUMPDEST PUSH1 0x20 DUP3 ADD SWAP1 POP SWAP2 SWAP1 POP JUMP JUMPDEST PUSH0 PUSH1 0x20 DUP3 ADD SWAP1 POP DUP2 DUP2 SUB PUSH0 DUP4 ADD MSTORE PUSH2 0x1641 DUP2 PUSH2 0x1608 JUMP JUMPDEST SWAP1 POP SWAP2 SWAP1 POP JUMP JUMPDEST PUSH32 0x4E487B7100000000000000000000000000000000000000000000000000000000 PUSH0 MSTORE PUSH1 0x32 PUSH1 0x4 MSTORE PUSH1 0x24 PUSH0 REVERT JUMPDEST PUSH32 0x4E487B7100000000000000000000000000000000000000000000000000000000 PUSH0 MSTORE PUSH1 0x11 PUSH1 0x4 MSTORE PUSH1 0x24 PUSH0 REVERT JUMPDEST PUSH0 PUSH2 0x16AC DUP3 PUSH2 0x1188 JUMP JUMPDEST SWAP2 POP PUSH2 0x16B7 DUP4 PUSH2 0x1188 JUMP JUMPDEST SWAP3 POP DUP3 DUP3 SUB SWAP1 POP DUP2 DUP2 GT ISZERO PUSH2 0x16CF JUMPI PUSH2 0x16CE PUSH2 0x1675 JUMP JUMPDEST JUMPDEST SWAP3 SWAP2 POP POP JUMP JUMPDEST PUSH32 0x4E487B7100000000000000000000000000000000000000000000000000000000 PUSH0 MSTORE PUSH1 0x31 PUSH1 0x4 MSTORE PUSH1 0x24 PUSH0 REVERT JUMPDEST PUSH32 0x5472616E73616374696F6E20646F6573206E6F74206578697374000000000000 PUSH0 DUP3 ADD MSTORE POP JUMP JUMPDEST PUSH0 PUSH2 0x1736 PUSH1 0x1A DUP4 PUSH2 0x1568 JUMP JUMPDEST SWAP2 POP PUSH2 0x1741 DUP3 PUSH2 0x1702 JUMP JUMPDEST PUSH1 0x20 DUP3 ADD SWAP1 POP SWAP2 SWAP1 POP JUMP JUMPDEST PUSH0 PUSH1 0x20 DUP3 ADD SWAP1 POP DUP2 DUP2 SUB PUSH0 DUP4 ADD MSTORE PUSH2 0x1763 DUP2 PUSH2 0x172A JUMP JUMPDEST SWAP1 POP SWAP2 SWAP1 POP JUMP JUMPDEST PUSH32 0x5472616E73616374696F6E20616C726561647920657865637574656400000000 PUSH0 DUP3 ADD MSTORE POP JUMP JUMPDEST PUSH0 PUSH2 0x179E PUSH1 0x1C DUP4 PUSH2 0x1568 JUMP JUMPDEST SWAP2 POP PUSH2 0x17A9 DUP3 PUSH2 0x176A JUMP JUMPDEST PUSH1 0x20 DUP3 ADD SWAP1 POP SWAP2 SWAP1 POP JUMP JUMPDEST PUSH0 PUSH1 0x20 DUP3 ADD SWAP1 POP DUP2 DUP2 SUB PUSH0 DUP4 ADD MSTORE PUSH2 0x17CB DUP2 PUSH2 0x1792 JUMP JUMPDEST SWAP1 POP SWAP2 SWAP1 POP JUMP JUMPDEST PUSH32 0x5472616E73616374696F6E20616C726561647920617070726F76656420627920 PUSH0 DUP3 ADD MSTORE PUSH32 0x74686973206F776E657200000000000000000000000000000000000000000000 PUSH1 0x20 DUP3 ADD MSTORE POP JUMP JUMPDEST PUSH0 PUSH2 0x182C PUSH1 0x2A DUP4 PUSH2 0x1568 JUMP JUMPDEST SWAP2 POP PUSH2 0x1837 DUP3 PUSH2 0x17D2 JUMP JUMPDEST PUSH1 0x40 DUP3 ADD SWAP1 POP SWAP2 SWAP1 POP JUMP JUMPDEST PUSH0 PUSH1 0x20 DUP3 ADD SWAP1 POP DUP2 DUP2 SUB PUSH0 DUP4 ADD MSTORE PUSH2 0x1859 DUP2 PUSH2 0x1820 JUMP JUMPDEST SWAP1 POP SWAP2 SWAP1 POP JUMP JUMPDEST PUSH0 PUSH2 0x186A DUP3 PUSH2 0x1188 JUMP JUMPDEST SWAP2 POP PUSH32 0xFFFFFFFFFFFFFFFFFFFFFFFFFFFFFFFFFFFFFFFFFFFFFFFFFFFFFFFFFFFFFFFF DUP3 SUB PUSH2 0x189C JUMPI PUSH2 0x189B PUSH2 0x1675 JUMP JUMPDEST JUMPDEST PUSH1 0x1 DUP3 ADD SWAP1 POP SWAP2 SWAP1 POP JUMP JUMPDEST PUSH0 PUSH1 0x40 DUP3 ADD SWAP1 POP PUSH2 0x18BA PUSH0 DUP4 ADD DUP6 PUSH2 0x12C6 JUMP JUMPDEST PUSH2 0x18C7 PUSH1 0x20 DUP4 ADD DUP5 PUSH2 0x1216 JUMP JUMPDEST SWAP4 SWAP3 POP POP POP JUMP JUMPDEST PUSH32 0x496E76616C6964206F776E657200000000000000000000000000000000000000 PUSH0 DUP3 ADD MSTORE POP JUMP JUMPDEST PUSH0 PUSH2 0x1902 PUSH1 0xD DUP4 PUSH2 0x1568 JUMP JUMPDEST SWAP2 POP PUSH2 0x190D DUP3 PUSH2 0x18CE JUMP JUMPDEST PUSH1 0x20 DUP3 ADD SWAP1 POP SWAP2 SWAP1 POP JUMP JUMPDEST PUSH0 PUSH1 0x20 DUP3 ADD SWAP1 POP DUP2 DUP2 SUB PUSH0 DUP4 ADD MSTORE PUSH2 0x192F DUP2 PUSH2 0x18F6 JUMP JUMPDEST SWAP1 POP SWAP2 SWAP1 POP JUMP JUMPDEST PUSH32 0x4E487B7100000000000000000000000000000000000000000000000000000000 PUSH0 MSTORE PUSH1 0x22 PUSH1 0x4 MSTORE PUSH1 0x24 PUSH0 REVERT JUMPDEST PUSH0 PUSH1 0x2 DUP3 DIV SWAP1 POP PUSH1 0x1 DUP3 AND DUP1 PUSH2 0x197A JUMPI PUSH1 0x7F DUP3 AND SWAP2 POP JUMPDEST PUSH1 0x20 DUP3 LT DUP2 SUB PUSH2 0x198D JUMPI PUSH2 0x198C PUSH2 0x1936 JUMP JUMPDEST JUMPDEST POP SWAP2 SWAP1 POP JUMP JUMPDEST PUSH0 DUP2 SWAP1 POP DUP2 PUSH0 MSTORE PUSH1 0x20 PUSH0 KECCAK256 SWAP1 POP SWAP2 SWAP1 POP JUMP JUMPDEST PUSH0 PUSH1 0x20 PUSH1 0x1F DUP4 ADD DIV SWAP1 POP SWAP2 SWAP1 POP JUMP JUMPDEST PUSH0 DUP3 DUP3 SHL SWAP1 POP SWAP3 SWAP2 POP POP JUMP JUMPDEST PUSH0 PUSH1 0x8 DUP4 MUL PUSH2 0x19EF PUSH32 0xFFFFFFFFFFFFFFFFFFFFFFFFFFFFFFFFFFFFFFFFFFFFFFFFFFFFFFFFFFFFFFFF DUP3 PUSH2 0x19B4 JUMP JUMPDEST PUSH2 0x19F9 DUP7 DUP4 PUSH2 0x19B4 JUMP JUMPDEST SWAP6 POP DUP1 NOT DUP5 AND SWAP4 POP DUP1 DUP7 AND DUP5 OR SWAP3 POP POP POP SWAP4 SWAP3 POP POP POP JUMP JUMPDEST PUSH0 DUP2 SWAP1 POP SWAP2 SWAP1 POP JUMP JUMPDEST PUSH0 PUSH2 0x1A34 PUSH2 0x1A2F PUSH2 0x1A2A DUP5 PUSH2 0x1188 JUMP JUMPDEST PUSH2 0x1A11 JUMP JUMPDEST PUSH2 0x1188 JUMP JUMPDEST SWAP1 POP SWAP2 SWAP1 POP JUMP JUMPDEST PUSH0 DUP2 SWAP1 POP SWAP2 SWAP1 POP JUMP JUMPDEST PUSH2 0x1A4D DUP4 PUSH2 0x1A1A JUMP JUMPDEST PUSH2 0x1A61 PUSH2 0x1A59 DUP3 PUSH2 0x1A3B JUMP JUMPDEST DUP5 DUP5 SLOAD PUSH2 0x19C0 JUMP JUMPDEST DUP3 SSTORE POP POP POP POP JUMP JUMPDEST PUSH0 SWAP1 JUMP JUMPDEST PUSH2 0x1A75 PUSH2 0x1A69 JUMP JUMPDEST PUSH2 0x1A80 DUP2 DUP5 DUP5 PUSH2 0x1A44 JUMP JUMPDEST POP POP POP JUMP JUMPDEST JUMPDEST DUP2 DUP2 LT ISZERO PUSH2 0x1AA3 JUMPI PUSH2 0x1A98 PUSH0 DUP3 PUSH2 0x1A6D JUMP JUMPDEST PUSH1 0x1 DUP2 ADD SWAP1 POP PUSH2 0x1A86 JUMP JUMPDEST POP POP JUMP JUMPDEST PUSH1 0x1F DUP3 GT ISZERO PUSH2 0x1AE8 JUMPI PUSH2 0x1AB9 DUP2 PUSH2 0x1993 JUMP JUMPDEST PUSH2 0x1AC2 DUP5 PUSH2 0x19A5 JUMP JUMPDEST DUP2 ADD PUSH1 0x20 DUP6 LT ISZERO PUSH2 0x1AD1 JUMPI DUP2 SWAP1 POP JUMPDEST PUSH2 0x1AE5 PUSH2 0x1ADD DUP6 PUSH2 0x19A5 JUMP JUMPDEST DUP4 ADD DUP3 PUSH2 0x1A85 JUMP JUMPDEST POP POP JUMPDEST POP POP POP JUMP JUMPDEST PUSH0 DUP3 DUP3 SHR SWAP1 POP SWAP3 SWAP2 POP POP JUMP JUMPDEST PUSH0 PUSH2 0x1B08 PUSH0 NOT DUP5 PUSH1 0x8 MUL PUSH2 0x1AED JUMP JUMPDEST NOT DUP1 DUP4 AND SWAP2 POP POP SWAP3 SWAP2 POP POP JUMP JUMPDEST PUSH0 PUSH2 0x1B20 DUP4 DUP4 PUSH2 0x1AF9 JUMP JUMPDEST SWAP2 POP DUP3 PUSH1 0x2 MUL DUP3 OR SWAP1 POP SWAP3 SWAP2 POP POP JUMP JUMPDEST PUSH2 0x1B39 DUP3 PUSH2 0x12EE JUMP JUMPDEST PUSH8 0xFFFFFFFFFFFFFFFF DUP2 GT ISZERO PUSH2 0x1B52 JUMPI PUSH2 0x1B51 PUSH2 0x13D8 JUMP JUMPDEST JUMPDEST PUSH2 0x1B5C DUP3 SLOAD PUSH2 0x1963 JUMP JUMPDEST PUSH2 0x1B67 DUP3 DUP3 DUP6 PUSH2 0x1AA7 JUMP JUMPDEST PUSH0 PUSH1 0x20 SWAP1 POP PUSH1 0x1F DUP4 GT PUSH1 0x1 DUP2 EQ PUSH2 0x1B98 JUMPI PUSH0 DUP5 ISZERO PUSH2 0x1B86 JUMPI DUP3 DUP8 ADD MLOAD SWAP1 POP JUMPDEST PUSH2 0x1B90 DUP6 DUP3 PUSH2 0x1B15 JUMP JUMPDEST DUP7 SSTORE POP PUSH2 0x1BF7 JUMP JUMPDEST PUSH1 0x1F NOT DUP5 AND PUSH2 0x1BA6 DUP7 PUSH2 0x1993 JUMP JUMPDEST PUSH0 JUMPDEST DUP3 DUP2 LT ISZERO PUSH2 0x1BCD JUMPI DUP5 DUP10 ADD MLOAD DUP3 SSTORE PUSH1 0x1 DUP3 ADD SWAP2 POP PUSH1 0x20 DUP6 ADD SWAP5 POP PUSH1 0x20 DUP2 ADD SWAP1 POP PUSH2 0x1BA8 JUMP JUMPDEST DUP7 DUP4 LT ISZERO PUSH2 0x1BEA JUMPI DUP5 DUP10 ADD MLOAD PUSH2 0x1BE6 PUSH1 0x1F DUP10 AND DUP3 PUSH2 0x1AF9 JUMP JUMPDEST DUP4 SSTORE POP JUMPDEST PUSH1 0x1 PUSH1 0x2 DUP9 MUL ADD DUP9 SSTORE POP POP POP JUMPDEST POP POP POP POP POP POP JUMP JUMPDEST PUSH0 PUSH1 0x80 DUP3 ADD SWAP1 POP PUSH2 0x1C12 PUSH0 DUP4 ADD DUP8 PUSH2 0x12C6 JUMP JUMPDEST PUSH2 0x1C1F PUSH1 0x20 DUP4 ADD DUP7 PUSH2 0x1216 JUMP JUMPDEST PUSH2 0x1C2C PUSH1 0x40 DUP4 ADD DUP6 PUSH2 0x12C6 JUMP JUMPDEST DUP2 DUP2 SUB PUSH1 0x60 DUP4 ADD MSTORE PUSH2 0x1C3E DUP2 DUP5 PUSH2 0x1340 JUMP JUMPDEST SWAP1 POP SWAP6 SWAP5 POP POP POP POP POP JUMP JUMPDEST PUSH0 DUP2 SWAP1 POP SWAP3 SWAP2 POP POP JUMP JUMPDEST PUSH0 DUP2 SLOAD PUSH2 0x1C5F DUP2 PUSH2 0x1963 JUMP JUMPDEST PUSH2 0x1C69 DUP2 DUP7 PUSH2 0x1C49 JUMP JUMPDEST SWAP5 POP PUSH1 0x1 DUP3 AND PUSH0 DUP2 EQ PUSH2 0x1C83 JUMPI PUSH1 0x1 DUP2 EQ PUSH2 0x1C98 JUMPI PUSH2 0x1CCA JUMP JUMPDEST PUSH1 0xFF NOT DUP4 AND DUP7 MSTORE DUP2 ISZERO ISZERO DUP3 MUL DUP7 ADD SWAP4 POP PUSH2 0x1CCA JUMP JUMPDEST PUSH2 0x1CA1 DUP6 PUSH2 0x1993 JUMP JUMPDEST PUSH0 JUMPDEST DUP4 DUP2 LT ISZERO PUSH2 0x1CC2 JUMPI DUP2 SLOAD DUP2 DUP10 ADD MSTORE PUSH1 0x1 DUP3 ADD SWAP2 POP PUSH1 0x20 DUP2 ADD SWAP1 POP PUSH2 0x1CA3 JUMP JUMPDEST DUP4 DUP9 ADD SWAP6 POP POP POP JUMPDEST POP POP POP SWAP3 SWAP2 POP POP JUMP JUMPDEST PUSH0 PUSH2 0x1CDE DUP3 DUP5 PUSH2 0x1C53 JUMP JUMPDEST SWAP2 POP DUP2 SWAP1 POP SWAP3 SWAP2 POP POP JUMP JUMPDEST PUSH32 0x5472616E73616374696F6E20657865637574696F6E206661696C656400000000 PUSH0 DUP3 ADD MSTORE POP JUMP JUMPDEST PUSH0 PUSH2 0x1D1D PUSH1 0x1C DUP4 PUSH2 0x1568 JUMP JUMPDEST SWAP2 POP PUSH2 0x1D28 DUP3 PUSH2 0x1CE9 JUMP JUMPDEST PUSH1 0x20 DUP3 ADD SWAP1 POP SWAP2 SWAP1 POP JUMP JUMPDEST PUSH0 PUSH1 0x20 DUP3 ADD SWAP1 POP DUP2 DUP2 SUB PUSH0 DUP4 ADD MSTORE PUSH2 0x1D4A DUP2 PUSH2 0x1D11 JUMP JUMPDEST SWAP1 POP SWAP2 SWAP1 POP JUMP INVALID LOG2 PUSH5 0x6970667358 0x22 SLT KECCAK256 DUP3 PUSH19 0x16F7DAD50054725260B70A8DB4411FD761FAB1 0xED PUSH13 0xB6724B743D8198EA5B64736F6C PUSH4 0x43000816 STOP CALLER "
				},
				"gasEstimates": {
					"creation": {
						"codeDepositCost": "1511800",
						"executionCost": "infinite",
						"totalCost": "infinite"
					},
					"external": {
						"addOwner(address)": "infinite",
						"approveTransaction(uint256)": "infinite",
						"cancelTransaction(uint256)": "infinite",
						"isOwner(address)": "2900",
						"owners(uint256)": "4944",
						"removeOwner(address)": "infinite",
						"submitTransaction(address,uint256,bytes)": "infinite",
						"threshold()": "2447",
						"transactions(uint256)": "infinite"
					},
					"internal": {
						"executeTransaction(uint256)": "infinite"
					}
				},
				"methodIdentifiers": {
					"addOwner(address)": "7065cb48",
					"approveTransaction(uint256)": "242232d1",
					"cancelTransaction(uint256)": "3380c0d8",
					"isOwner(address)": "2f54bf6e",
					"owners(uint256)": "025e7c27",
					"removeOwner(address)": "173825d9",
					"submitTransaction(address,uint256,bytes)": "c6427474",
					"threshold()": "42cde4e8",
					"transactions(uint256)": "9ace38c2"
				}
			},
			"storageLayout": {
				"storage": [
					{
						"astId": 4,
						"contract": "contracts/wallet.sol:MultiSignatureWallet",
						"label": "owners",
						"offset": 0,
						"slot": "0",
						"type": "t_array(t_address)dyn_storage"
					},
					{
						"astId": 8,
						"contract": "contracts/wallet.sol:MultiSignatureWallet",
						"label": "isOwner",
						"offset": 0,
						"slot": "1",
						"type": "t_mapping(t_address,t_bool)"
					},
					{
						"astId": 10,
						"contract": "contracts/wallet.sol:MultiSignatureWallet",
						"label": "threshold",
						"offset": 0,
						"slot": "2",
						"type": "t_uint256"
					},
					{
						"astId": 29,
						"contract": "contracts/wallet.sol:MultiSignatureWallet",
						"label": "transactions",
						"offset": 0,
						"slot": "3",
						"type": "t_array(t_struct(Transaction)25_storage)dyn_storage"
					}
				],
				"types": {
					"t_address": {
						"encoding": "inplace",
						"label": "address",
						"numberOfBytes": "20"
					},
					"t_array(t_address)dyn_storage": {
						"base": "t_address",
						"encoding": "dynamic_array",
						"label": "address[]",
						"numberOfBytes": "32"
					},
					"t_array(t_struct(Transaction)25_storage)dyn_storage": {
						"base": "t_struct(Transaction)25_storage",
						"encoding": "dynamic_array",
						"label": "struct MultiSignatureWallet.Transaction[]",
						"numberOfBytes": "32"
					},
					"t_bool": {
						"encoding": "inplace",
						"label": "bool",
						"numberOfBytes": "1"
					},
					"t_bytes_storage": {
						"encoding": "bytes",
						"label": "bytes",
						"numberOfBytes": "32"
					},
					"t_mapping(t_address,t_bool)": {
						"encoding": "mapping",
						"key": "t_address",
						"label": "mapping(address => bool)",
						"numberOfBytes": "32",
						"value": "t_bool"
					},
					"t_struct(Transaction)25_storage": {
						"encoding": "inplace",
						"label": "struct MultiSignatureWallet.Transaction",
						"members": [
							{
								"astId": 12,
								"contract": "contracts/wallet.sol:MultiSignatureWallet",
								"label": "to",
								"offset": 0,
								"slot": "0",
								"type": "t_address"
							},
							{
								"astId": 14,
								"contract": "contracts/wallet.sol:MultiSignatureWallet",
								"label": "value",
								"offset": 0,
								"slot": "1",
								"type": "t_uint256"
							},
							{
								"astId": 16,
								"contract": "contracts/wallet.sol:MultiSignatureWallet",
								"label": "data",
								"offset": 0,
								"slot": "2",
								"type": "t_bytes_storage"
							},
							{
								"astId": 18,
								"contract": "contracts/wallet.sol:MultiSignatureWallet",
								"label": "executed",
								"offset": 0,
								"slot": "3",
								"type": "t_bool"
							},
							{
								"astId": 22,
								"contract": "contracts/wallet.sol:MultiSignatureWallet",
								"label": "approvals",
								"offset": 0,
								"slot": "4",
								"type": "t_mapping(t_address,t_bool)"
							},
							{
								"astId": 24,
								"contract": "contracts/wallet.sol:MultiSignatureWallet",
								"label": "approvalCount",
								"offset": 0,
								"slot": "5",
								"type": "t_uint256"
							}
						],
						"numberOfBytes": "192"
					},
					"t_uint256": {
						"encoding": "inplace",
						"label": "uint256",
						"numberOfBytes": "32"
					}
				}
			},
			"userdoc": {
				"kind": "user",
				"methods": {},
				"version": 1
			}
		}
	}
}